{
  "contractName": "LaunchpadFactory",
  "abi": [
    {
      "anonymous": false,
      "inputs": [
        {
          "indexed": true,
          "internalType": "address",
          "name": "previousOwner",
          "type": "address"
        },
        {
          "indexed": true,
          "internalType": "address",
          "name": "newOwner",
          "type": "address"
        }
      ],
      "name": "OwnershipTransferred",
      "type": "event"
    },
    {
      "anonymous": false,
      "inputs": [
        {
          "indexed": true,
          "internalType": "address",
          "name": "launchpadContract",
          "type": "address"
        }
      ],
      "name": "launchpadRegistered",
      "type": "event"
    },
    {
      "inputs": [],
      "name": "owner",
      "outputs": [
        {
          "internalType": "address",
          "name": "",
          "type": "address"
        }
      ],
      "stateMutability": "view",
      "type": "function"
    },
    {
      "inputs": [],
      "name": "renounceOwnership",
      "outputs": [],
      "stateMutability": "nonpayable",
      "type": "function"
    },
    {
      "inputs": [
        {
          "internalType": "address",
          "name": "newOwner",
          "type": "address"
        }
      ],
      "name": "transferOwnership",
      "outputs": [],
      "stateMutability": "nonpayable",
      "type": "function"
    },
    {
      "inputs": [
        {
          "internalType": "address",
          "name": "_address",
          "type": "address"
        },
        {
          "internalType": "bool",
          "name": "_allow",
          "type": "bool"
        }
      ],
      "name": "adminAllowLaunchpadGenerator",
      "outputs": [],
      "stateMutability": "nonpayable",
      "type": "function"
    },
    {
      "inputs": [
        {
          "internalType": "address",
          "name": "_launchpadAddress",
          "type": "address"
        }
      ],
      "name": "registerLaunchpad",
      "outputs": [],
      "stateMutability": "nonpayable",
      "type": "function"
    },
    {
      "inputs": [
        {
          "internalType": "uint256",
          "name": "_index",
          "type": "uint256"
        }
      ],
      "name": "launchpadAtIndex",
      "outputs": [
        {
          "internalType": "address",
          "name": "",
          "type": "address"
        }
      ],
      "stateMutability": "view",
      "type": "function"
    },
    {
      "inputs": [
        {
          "internalType": "uint256",
          "name": "_index",
          "type": "uint256"
        }
      ],
      "name": "launchpadGeneratorAtIndex",
      "outputs": [
        {
          "internalType": "address",
          "name": "",
          "type": "address"
        }
      ],
      "stateMutability": "view",
      "type": "function"
    },
    {
      "inputs": [],
      "name": "launchpadGeneratorsLength",
      "outputs": [
        {
          "internalType": "uint256",
          "name": "",
          "type": "uint256"
        }
      ],
      "stateMutability": "view",
      "type": "function"
    },
    {
      "inputs": [
        {
          "internalType": "address",
          "name": "_launchpadAddress",
          "type": "address"
        }
      ],
      "name": "launchpadIsRegistered",
      "outputs": [
        {
          "internalType": "bool",
          "name": "",
          "type": "bool"
        }
      ],
      "stateMutability": "view",
      "type": "function"
    },
    {
      "inputs": [],
      "name": "launchpadsLength",
      "outputs": [
        {
          "internalType": "uint256",
          "name": "",
          "type": "uint256"
        }
      ],
      "stateMutability": "view",
      "type": "function"
    }
  ],
  "bytecode": "0x608060405234801561001057600080fd5b50600061001b61006a565b600080546001600160a01b0319166001600160a01b0383169081178255604051929350917f8be0079c531659141344cd1fd0a4f28419497f9722a3daafe3b4186f6b6457e0908290a35061006e565b3390565b6107ec8061007d6000396000f3fe608060405234801561001057600080fd5b506004361061009e5760003560e01c8063b61609ab11610066578063b61609ab14610119578063b83b48f314610136578063ba888c2914610153578063d8045afe1461018d578063f2fde38b146101bb5761009e565b80632751ed26146100a357806344081ed6146100bd578063715018a6146100c557806377eb877c146100cf5780638da5cb5b146100f5575b600080fd5b6100ab6101e1565b60408051918252519081900360200190f35b6100ab6101f2565b6100cd6101fe565b005b6100cd600480360360208110156100e557600080fd5b50356001600160a01b03166102bc565b6100fd610347565b604080516001600160a01b039092168252519081900360200190f35b6100fd6004803603602081101561012f57600080fd5b5035610356565b6100fd6004803603602081101561014c57600080fd5b5035610369565b6101796004803603602081101561016957600080fd5b50356001600160a01b0316610376565b604080519115158252519081900360200190f35b6100cd600480360360408110156101a357600080fd5b506001600160a01b0381351690602001351515610383565b6100cd600480360360208110156101d157600080fd5b50356001600160a01b0316610469565b60006101ed600361057d565b905090565b60006101ed600161057d565b610206610588565b6001600160a01b0316610217610347565b6001600160a01b031614610272576040805162461bcd60e51b815260206004820181905260248201527f4f776e61626c653a2063616c6c6572206973206e6f7420746865206f776e6572604482015290519081900360640190fd5b600080546040516001600160a01b03909116907f8be0079c531659141344cd1fd0a4f28419497f9722a3daafe3b4186f6b6457e0908390a3600080546001600160a01b0319169055565b6102c760033361058c565b610304576040805162461bcd60e51b81526020600482015260096024820152682327a92124a22222a760b91b604482015290519081900360640190fd5b61030f6001826105a8565b506040516001600160a01b038216907f077d8c327c063838fcf08b9de8f97861315f0b111723a0ae87d949bb660dda5490600090a250565b6000546001600160a01b031690565b60006103636001836105bd565b92915050565b60006103636003836105bd565b600061036360018361058c565b61038b610588565b6001600160a01b031661039c610347565b6001600160a01b0316146103f7576040805162461bcd60e51b815260206004820181905260248201527f4f776e61626c653a2063616c6c6572206973206e6f7420746865206f776e6572604482015290519081900360640190fd5b6001600160a01b038216610441576040805162461bcd60e51b815260206004820152600c60248201526b5a45524f204144445245535360a01b604482015290519081900360640190fd5b8015610458576104526003836105a8565b50610465565b6104636003836105c9565b505b5050565b610471610588565b6001600160a01b0316610482610347565b6001600160a01b0316146104dd576040805162461bcd60e51b815260206004820181905260248201527f4f776e61626c653a2063616c6c6572206973206e6f7420746865206f776e6572604482015290519081900360640190fd5b6001600160a01b0381166105225760405162461bcd60e51b81526004018080602001828103825260268152602001806107916026913960400191505060405180910390fd5b600080546040516001600160a01b03808516939216917f8be0079c531659141344cd1fd0a4f28419497f9722a3daafe3b4186f6b6457e091a3600080546001600160a01b0319166001600160a01b0392909216919091179055565b6000610363826105de565b3390565b60006105a1836001600160a01b0384166105e2565b9392505050565b60006105a1836001600160a01b0384166105fa565b60006105a18383610644565b60006105a1836001600160a01b0384166106a8565b5490565b60009081526001919091016020526040902054151590565b600061060683836105e2565b61063c57508154600181810184556000848152602080822090930184905584548482528286019093526040902091909155610363565b506000610363565b815460009082106106865760405162461bcd60e51b815260040180806020018281038252602281526020018061076f6022913960400191505060405180910390fd5b82600001828154811061069557fe5b9060005260206000200154905092915050565b6000818152600183016020526040812054801561076457835460001980830191908101906000908790839081106106db57fe5b90600052602060002001549050808760000184815481106106f857fe5b60009182526020808320909101929092558281526001898101909252604090209084019055865487908061072857fe5b60019003818190600052602060002001600090559055866001016000878152602001908152602001600020600090556001945050505050610363565b600091505061036356fe456e756d657261626c655365743a20696e646578206f7574206f6620626f756e64734f776e61626c653a206e6577206f776e657220697320746865207a65726f2061646472657373a26469706673582212202a324103e351fef586aaded7fb9f5d0379b39c412b839eafb4b2f57c987f248164736f6c634300060c0033",
  "immutableReferences": {},
  "source": "// SPDX-License-Identifier: MIT\n\n/**\n * @title Factory of Pancake launchpad enviroment\n * @dev This contract registeres launchpads and launchpad generators. Launchpad generators can be\n * registered by the contract owner (admin) and launchpads can only be registered by launchpad\n * generators.\n */\n \npragma solidity 0.6.12;\n\nimport \"@openzeppelin/contracts/access/Ownable.sol\";\nimport \"@openzeppelin/contracts/utils/EnumerableSet.sol\";\nimport \"../interfaces/ILaunchpadFactory.sol\";\n\ncontract LaunchpadFactory is ILaunchpadFactory, Ownable {\n    using EnumerableSet for EnumerableSet.AddressSet;\n\n    // holding all launchpad addresses registered by generator\n    EnumerableSet.AddressSet private launchpads;\n\n    // holding all generators addresses registered by owner (admin)\n    EnumerableSet.AddressSet private launchpadGenerators;\n\n    event launchpadRegistered(address indexed launchpadContract);\n\n    /*---------------------------------------------------------------------------------------------\n     * ------------------------------------Only owner function-------------------------------------\n     */\n\n    /**\n     * @notice adds or removes a launchpad generator to the factory by owner\n     * @param _address address of the launchpad generator to be added\n     * @param _allow bool if the generator should be added(=true) or removed(=false)\n     */\n    function adminAllowLaunchpadGenerator(address _address, bool _allow)\n        external\n        onlyOwner\n    {\n        require(_address != address(0), \"ZERO ADDRESS\");\n\n        if (_allow) {\n            launchpadGenerators.add(_address);\n        } else {\n            launchpadGenerators.remove(_address);\n        }\n    }\n\n    /*---------------------------------------------------------------------------------------------\n     * ----------------------------------Only generator function-----------------------------------\n     */\n\n    /**\n     * @notice adds a launchpad to factory by generator\n     * @param _launchpadAddress address of the launchpad to be added\n     */\n    function registerLaunchpad(address _launchpadAddress) external override {\n        require(launchpadGenerators.contains(msg.sender), \"FORBIDDEN\");\n        launchpads.add(_launchpadAddress);\n        emit launchpadRegistered(_launchpadAddress);\n    }\n\n    /*---------------------------------------------------------------------------------------------\n     * --------------------------------------Getter functions--------------------------------------\n     */\n\n    /**\n     * @notice returns the address of a launchpad at a given index\n     * @param _index index of the launchpads address set\n     */\n    function launchpadAtIndex(uint256 _index)\n        external\n        view\n        override\n        returns (address)\n    {\n        return launchpads.at(_index);\n    }\n\n    /**\n     * @notice returns the address of a launchpad generator at a given index\n     * @param _index index of the launchpad generator address set\n     */\n    function launchpadGeneratorAtIndex(uint256 _index)\n        external\n        view\n        override\n        returns (address)\n    {\n        return launchpadGenerators.at(_index);\n    }\n\n    /**\n     * @notice returns the total number of registered launchpad generators\n     */\n    function launchpadGeneratorsLength()\n        external\n        view\n        override\n        returns (uint256)\n    {\n        return launchpadGenerators.length();\n    }\n\n    /**\n     * @notice returns if a given address is registered as a launchpad\n     * @param _launchpadAddress address of the lauchpad to be checked\n     */\n    function launchpadIsRegistered(address _launchpadAddress)\n        external\n        view\n        override\n        returns (bool)\n    {\n        return launchpads.contains(_launchpadAddress);\n    }\n\n    /**\n     * @notice returns the total number of registered launchpads\n     */\n    function launchpadsLength() external view override returns (uint256) {\n        return launchpads.length();\n    }\n}\n",
  "sourcePath": "/Users/apple/Downloads/kinko-ilo-contracts-main/contracts/LaunchpadFactory.sol",
  "compiler": {
    "name": "solc",
    "version": "0.6.12+commit.27d51765.Emscripten.clang"
  },
  "schemaVersion": "3.4.6",
  "updatedAt": "2022-05-02T10:05:42.407Z",
  "networkType": "ethereum",
  "devdoc": {
    "kind": "dev",
    "methods": {
      "adminAllowLaunchpadGenerator(address,bool)": {
        "params": {
          "_address": "address of the launchpad generator to be added",
          "_allow": "bool if the generator should be added(=true) or removed(=false)"
        }
      },
      "launchpadAtIndex(uint256)": {
        "params": {
          "_index": "index of the launchpads address set"
        }
      },
      "launchpadGeneratorAtIndex(uint256)": {
        "params": {
          "_index": "index of the launchpad generator address set"
        }
      },
      "launchpadIsRegistered(address)": {
        "params": {
          "_launchpadAddress": "address of the lauchpad to be checked"
        }
      },
      "owner()": {
        "details": "Returns the address of the current owner."
      },
      "registerLaunchpad(address)": {
        "params": {
          "_launchpadAddress": "address of the launchpad to be added"
        }
      },
      "renounceOwnership()": {
        "details": "Leaves the contract without owner. It will not be possible to call `onlyOwner` functions anymore. Can only be called by the current owner. NOTE: Renouncing ownership will leave the contract without an owner, thereby removing any functionality that is only available to the owner."
      },
      "transferOwnership(address)": {
        "details": "Transfers ownership of the contract to a new account (`newOwner`). Can only be called by the current owner."
      }
    },
    "version": 1
  },
  "userdoc": {
    "kind": "user",
    "methods": {
      "adminAllowLaunchpadGenerator(address,bool)": {
        "notice": "adds or removes a launchpad generator to the factory by owner"
      },
      "launchpadAtIndex(uint256)": {
        "notice": "returns the address of a launchpad at a given index"
      },
      "launchpadGeneratorAtIndex(uint256)": {
        "notice": "returns the address of a launchpad generator at a given index"
      },
      "launchpadGeneratorsLength()": {
        "notice": "returns the total number of registered launchpad generators"
      },
      "launchpadIsRegistered(address)": {
        "notice": "returns if a given address is registered as a launchpad"
      },
      "launchpadsLength()": {
        "notice": "returns the total number of registered launchpads"
      },
      "registerLaunchpad(address)": {
        "notice": "adds a launchpad to factory by generator"
      }
    },
    "version": 1
  }
}