{
  "contractName": "LaunchpadSettings",
  "abi": [
    {
      "inputs": [],
      "stateMutability": "nonpayable",
      "type": "constructor"
    },
    {
      "anonymous": false,
      "inputs": [
        {
          "indexed": true,
          "internalType": "address",
          "name": "previousOwner",
          "type": "address"
        },
        {
          "indexed": true,
          "internalType": "address",
          "name": "newOwner",
          "type": "address"
        }
      ],
      "name": "OwnershipTransferred",
      "type": "event"
    },
    {
      "inputs": [
        {
          "internalType": "address",
          "name": "",
          "type": "address"
        }
      ],
      "name": "EARLY_ACCESS_AMOUNTS",
      "outputs": [
        {
          "internalType": "uint256",
          "name": "",
          "type": "uint256"
        }
      ],
      "stateMutability": "view",
      "type": "function",
      "constant": true
    },
    {
      "inputs": [],
      "name": "owner",
      "outputs": [
        {
          "internalType": "address",
          "name": "",
          "type": "address"
        }
      ],
      "stateMutability": "view",
      "type": "function",
      "constant": true
    },
    {
      "inputs": [],
      "name": "renounceOwnership",
      "outputs": [],
      "stateMutability": "nonpayable",
      "type": "function"
    },
    {
      "inputs": [],
      "name": "settings",
      "outputs": [
        {
          "internalType": "uint256",
          "name": "tokenFee",
          "type": "uint256"
        },
        {
          "internalType": "uint256",
          "name": "referralFee",
          "type": "uint256"
        },
        {
          "internalType": "address payable",
          "name": "baseFeeReceiver",
          "type": "address"
        },
        {
          "internalType": "address payable",
          "name": "tokenFeeReceiver",
          "type": "address"
        },
        {
          "internalType": "uint256",
          "name": "creationFee",
          "type": "uint256"
        },
        {
          "internalType": "uint256",
          "name": "round1Length",
          "type": "uint256"
        },
        {
          "internalType": "uint256",
          "name": "maxLaunchpadLength",
          "type": "uint256"
        },
        {
          "internalType": "uint256",
          "name": "minLockingDuration",
          "type": "uint256"
        }
      ],
      "stateMutability": "view",
      "type": "function",
      "constant": true
    },
    {
      "inputs": [
        {
          "internalType": "address",
          "name": "newOwner",
          "type": "address"
        }
      ],
      "name": "transferOwnership",
      "outputs": [],
      "stateMutability": "nonpayable",
      "type": "function"
    },
    {
      "inputs": [
        {
          "internalType": "address payable",
          "name": "_referrer",
          "type": "address"
        },
        {
          "internalType": "bool",
          "name": "_allow",
          "type": "bool"
        }
      ],
      "name": "editAllowedReferrers",
      "outputs": [],
      "stateMutability": "nonpayable",
      "type": "function"
    },
    {
      "inputs": [
        {
          "internalType": "address",
          "name": "_token",
          "type": "address"
        },
        {
          "internalType": "uint256",
          "name": "_holdAmount",
          "type": "uint256"
        },
        {
          "internalType": "bool",
          "name": "_allow",
          "type": "bool"
        }
      ],
      "name": "editEarlyAccessTokens",
      "outputs": [],
      "stateMutability": "nonpayable",
      "type": "function"
    },
    {
      "inputs": [
        {
          "internalType": "address payable",
          "name": "_baseFeeReceiver",
          "type": "address"
        },
        {
          "internalType": "address payable",
          "name": "_tokenFeeReceiver",
          "type": "address"
        }
      ],
      "name": "setFeeAddresses",
      "outputs": [],
      "stateMutability": "nonpayable",
      "type": "function"
    },
    {
      "inputs": [
        {
          "internalType": "uint256",
          "name": "_tokenFee",
          "type": "uint256"
        },
        {
          "internalType": "uint256",
          "name": "_creationFee",
          "type": "uint256"
        },
        {
          "internalType": "uint256",
          "name": "_referralFee",
          "type": "uint256"
        }
      ],
      "name": "setFees",
      "outputs": [],
      "stateMutability": "nonpayable",
      "type": "function"
    },
    {
      "inputs": [
        {
          "internalType": "uint256",
          "name": "_maxLength",
          "type": "uint256"
        }
      ],
      "name": "setMaxLaunchpadLength",
      "outputs": [],
      "stateMutability": "nonpayable",
      "type": "function"
    },
    {
      "inputs": [
        {
          "internalType": "uint256",
          "name": "_minLength",
          "type": "uint256"
        }
      ],
      "name": "setMinLockingDuration",
      "outputs": [],
      "stateMutability": "nonpayable",
      "type": "function"
    },
    {
      "inputs": [
        {
          "internalType": "uint256",
          "name": "_round1Length",
          "type": "uint256"
        }
      ],
      "name": "setRound1Length",
      "outputs": [],
      "stateMutability": "nonpayable",
      "type": "function"
    },
    {
      "inputs": [],
      "name": "allowedReferrersLength",
      "outputs": [
        {
          "internalType": "uint256",
          "name": "",
          "type": "uint256"
        }
      ],
      "stateMutability": "view",
      "type": "function",
      "constant": true
    },
    {
      "inputs": [],
      "name": "earlyAccessTokensLength",
      "outputs": [
        {
          "internalType": "uint256",
          "name": "",
          "type": "uint256"
        }
      ],
      "stateMutability": "view",
      "type": "function",
      "constant": true
    },
    {
      "inputs": [],
      "name": "getBaseFeeReceiver",
      "outputs": [
        {
          "internalType": "address payable",
          "name": "",
          "type": "address"
        }
      ],
      "stateMutability": "view",
      "type": "function",
      "constant": true
    },
    {
      "inputs": [],
      "name": "getGlmrCreationFee",
      "outputs": [
        {
          "internalType": "uint256",
          "name": "",
          "type": "uint256"
        }
      ],
      "stateMutability": "view",
      "type": "function",
      "constant": true
    },
    {
      "inputs": [
        {
          "internalType": "uint256",
          "name": "_index",
          "type": "uint256"
        }
      ],
      "name": "getEarlyAccessTokenAtIndex",
      "outputs": [
        {
          "internalType": "address",
          "name": "",
          "type": "address"
        },
        {
          "internalType": "uint256",
          "name": "",
          "type": "uint256"
        }
      ],
      "stateMutability": "view",
      "type": "function",
      "constant": true
    },
    {
      "inputs": [],
      "name": "getMaxLaunchpadLength",
      "outputs": [
        {
          "internalType": "uint256",
          "name": "",
          "type": "uint256"
        }
      ],
      "stateMutability": "view",
      "type": "function",
      "constant": true
    },
    {
      "inputs": [],
      "name": "getMinLockingDuration",
      "outputs": [
        {
          "internalType": "uint256",
          "name": "",
          "type": "uint256"
        }
      ],
      "stateMutability": "view",
      "type": "function",
      "constant": true
    },
    {
      "inputs": [],
      "name": "getReferralFee",
      "outputs": [
        {
          "internalType": "uint256",
          "name": "",
          "type": "uint256"
        }
      ],
      "stateMutability": "view",
      "type": "function",
      "constant": true
    },
    {
      "inputs": [
        {
          "internalType": "uint256",
          "name": "_index",
          "type": "uint256"
        }
      ],
      "name": "getReferrerAtIndex",
      "outputs": [
        {
          "internalType": "address",
          "name": "",
          "type": "address"
        }
      ],
      "stateMutability": "view",
      "type": "function",
      "constant": true
    },
    {
      "inputs": [],
      "name": "getRound1Length",
      "outputs": [
        {
          "internalType": "uint256",
          "name": "",
          "type": "uint256"
        }
      ],
      "stateMutability": "view",
      "type": "function",
      "constant": true
    },
    {
      "inputs": [],
      "name": "getSaleFeeReceiver",
      "outputs": [
        {
          "internalType": "address payable",
          "name": "",
          "type": "address"
        }
      ],
      "stateMutability": "view",
      "type": "function",
      "constant": true
    },
    {
      "inputs": [],
      "name": "getTokenFee",
      "outputs": [
        {
          "internalType": "uint256",
          "name": "",
          "type": "uint256"
        }
      ],
      "stateMutability": "view",
      "type": "function",
      "constant": true
    },
    {
      "inputs": [
        {
          "internalType": "address",
          "name": "_referrer",
          "type": "address"
        }
      ],
      "name": "referrerIsValid",
      "outputs": [
        {
          "internalType": "bool",
          "name": "",
          "type": "bool"
        }
      ],
      "stateMutability": "view",
      "type": "function",
      "constant": true
    },
    {
      "inputs": [
        {
          "internalType": "address",
          "name": "_user",
          "type": "address"
        }
      ],
      "name": "userHoldsSufficientRound1Token",
      "outputs": [
        {
          "internalType": "bool",
          "name": "",
          "type": "bool"
        }
      ],
      "stateMutability": "view",
      "type": "function",
      "constant": true
    }
  ],
  "bytecode": "0x608060405234801561001057600080fd5b50600061001b6100b7565b600080546001600160a01b0319166001600160a01b0383169081178255604051929350917f8be0079c531659141344cd1fd0a4f28419497f9722a3daafe3b4186f6b6457e0908290a350600f60065560646007556706f05b59d3b20000600a5560088054336001600160a01b03199182168117909255600980549091169091179055611c20600b5562127500600c556301e13380600d556100bb565b3390565b610e0b806100ca6000396000f3fe608060405234801561001057600080fd5b506004361061018e5760003560e01c806376aa6344116100de578063b2ca6f0211610097578063cef6fc0b11610071578063cef6fc0b14610406578063e06174e41461040e578063f2fde38b14610463578063f6c0812f146104895761018e565b8063b2ca6f02146103a7578063be413054146103d5578063cec10c11146103dd5761018e565b806376aa6344146103365780637ee360d714610353578063847e997c146103875780638da5cb5b1461038f578063aac9121614610397578063abc689b41461039f5761018e565b806347a2085f1161014b57806359477dde1161012557806359477dde146102ce57806369bd3ec0146102eb5780636d10fdff14610311578063715018a61461032e5761018e565b806347a2085f146102605780634a6da4811461026857806352cf4fd41461028e5761018e565b80630b9714ca1461019357806311c84120146101cd578063146c4be7146101fd57806330e4352414610221578063355468501461023e5780633b107d9714610258575b600080fd5b6101b9600480360360208110156101a957600080fd5b50356001600160a01b0316610491565b604080519115158252519081900360200190f35b6101fb600480360360408110156101e357600080fd5b506001600160a01b03813581169160200135166104a6565b005b610205610536565b604080516001600160a01b039092168252519081900360200190f35b6102056004803603602081101561023757600080fd5b5035610545565b610246610552565b60408051918252519081900360200190f35b610246610558565b61020561055e565b6101b96004803603602081101561027e57600080fd5b50356001600160a01b031661056d565b6102ab600480360360208110156102a457600080fd5b5035610643565b604080516001600160a01b03909316835260208301919091528051918290030190f35b6101fb600480360360208110156102e457600080fd5b5035610676565b6102466004803603602081101561030157600080fd5b50356001600160a01b03166106dd565b6101fb6004803603602081101561032757600080fd5b50356106ef565b6101fb610756565b6101fb6004803603602081101561034c57600080fd5b5035610802565b6101fb6004803603606081101561036957600080fd5b506001600160a01b0381351690602081013590604001351515610869565b61024661090c565b61020561091d565b61024661092c565b610246610932565b6101fb600480360360408110156103bd57600080fd5b506001600160a01b038135169060200135151561093e565b6102466109c8565b6101fb600480360360608110156103f357600080fd5b50803590602081013590604001356109ce565b610246610a41565b610416610a47565b6040805198895260208901979097526001600160a01b0395861688880152939094166060870152608086019190915260a085015260c084019190915260e083015251908190036101000190f35b6101fb6004803603602081101561047957600080fd5b50356001600160a01b0316610a72565b610246610b74565b600061049e600183610b7a565b90505b919050565b6104ae610b98565b6001600160a01b03166104bf61091d565b6001600160a01b031614610508576040805162461bcd60e51b81526020600482018190526024820152600080516020610db6833981519152604482015290519081900360640190fd5b600880546001600160a01b039384166001600160a01b03199182161790915560098054929093169116179055565b6008546001600160a01b031690565b600061049e600183610b9c565b60065490565b600a5490565b6009546001600160a01b031690565b600061057761090c565b610583575060016104a1565b60005b61058e61090c565b81101561063a576000806105a183610643565b9150915080826001600160a01b03166370a08231876040518263ffffffff1660e01b815260040180826001600160a01b0316815260200191505060206040518083038186803b1580156105f357600080fd5b505afa158015610607573d6000803e3d6000fd5b505050506040513d602081101561061d57600080fd5b50511061063057600193505050506104a1565b5050600101610586565b50600092915050565b60008080610652600385610b9c565b6001600160a01b038116600090815260056020526040902054909350915050915091565b61067e610b98565b6001600160a01b031661068f61091d565b6001600160a01b0316146106d8576040805162461bcd60e51b81526020600482018190526024820152600080516020610db6833981519152604482015290519081900360640190fd5b600b55565b60056020526000908152604090205481565b6106f7610b98565b6001600160a01b031661070861091d565b6001600160a01b031614610751576040805162461bcd60e51b81526020600482018190526024820152600080516020610db6833981519152604482015290519081900360640190fd5b600c55565b61075e610b98565b6001600160a01b031661076f61091d565b6001600160a01b0316146107b8576040805162461bcd60e51b81526020600482018190526024820152600080516020610db6833981519152604482015290519081900360640190fd5b600080546040516001600160a01b03909116907f8be0079c531659141344cd1fd0a4f28419497f9722a3daafe3b4186f6b6457e0908390a3600080546001600160a01b0319169055565b61080a610b98565b6001600160a01b031661081b61091d565b6001600160a01b031614610864576040805162461bcd60e51b81526020600482018190526024820152600080516020610db6833981519152604482015290519081900360640190fd5b600d55565b610871610b98565b6001600160a01b031661088261091d565b6001600160a01b0316146108cb576040805162461bcd60e51b81526020600482018190526024820152600080516020610db6833981519152604482015290519081900360640190fd5b80156108e2576108dc600384610ba8565b506108ef565b6108ed600384610bbd565b505b506001600160a01b03909116600090815260056020526040902055565b60006109186003610bd2565b905090565b6000546001600160a01b031690565b600b5490565b60006109186001610bd2565b610946610b98565b6001600160a01b031661095761091d565b6001600160a01b0316146109a0576040805162461bcd60e51b81526020600482018190526024820152600080516020610db6833981519152604482015290519081900360640190fd5b80156109b7576109b1600183610ba8565b506109c4565b6109c2600183610bbd565b505b5050565b600d5490565b6109d6610b98565b6001600160a01b03166109e761091d565b6001600160a01b031614610a30576040805162461bcd60e51b81526020600482018190526024820152600080516020610db6833981519152604482015290519081900360640190fd5b600692909255600791909155600a55565b600c5490565b600654600754600854600954600a54600b54600c54600d546001600160a01b03958616959094169388565b610a7a610b98565b6001600160a01b0316610a8b61091d565b6001600160a01b031614610ad4576040805162461bcd60e51b81526020600482018190526024820152600080516020610db6833981519152604482015290519081900360640190fd5b6001600160a01b038116610b195760405162461bcd60e51b8152600401808060200182810382526026815260200180610d906026913960400191505060405180910390fd5b600080546040516001600160a01b03808516939216917f8be0079c531659141344cd1fd0a4f28419497f9722a3daafe3b4186f6b6457e091a3600080546001600160a01b0319166001600160a01b0392909216919091179055565b60075490565b6000610b8f836001600160a01b038416610bdd565b90505b92915050565b3390565b6000610b8f8383610bf5565b6000610b8f836001600160a01b038416610c59565b6000610b8f836001600160a01b038416610ca3565b600061049e82610d69565b60009081526001919091016020526040902054151590565b81546000908210610c375760405162461bcd60e51b8152600401808060200182810382526022815260200180610d6e6022913960400191505060405180910390fd5b826000018281548110610c4657fe5b9060005260206000200154905092915050565b6000610c658383610bdd565b610c9b57508154600181810184556000848152602080822090930184905584548482528286019093526040902091909155610b92565b506000610b92565b60008181526001830160205260408120548015610d5f5783546000198083019190810190600090879083908110610cd657fe5b9060005260206000200154905080876000018481548110610cf357fe5b600091825260208083209091019290925582815260018981019092526040902090840190558654879080610d2357fe5b60019003818190600052602060002001600090559055866001016000878152602001908152602001600020600090556001945050505050610b92565b6000915050610b92565b549056fe456e756d657261626c655365743a20696e646578206f7574206f6620626f756e64734f776e61626c653a206e6577206f776e657220697320746865207a65726f20616464726573734f776e61626c653a2063616c6c6572206973206e6f7420746865206f776e6572a26469706673582212201813d33bc26cdc0ddecf3b9539a80c160ea411b4f1f8b22929ffabfac94f416d64736f6c634300060c0033",
  "immutableReferences": {},
  "source": "// SPDX-License-Identifier: MIT\n\n/**\n * @title Settings of Pancake launchpad enviroment\n * @dev This contract holds variables with getter and setter to manage general settings of the launchpads.\n * The core is to manage fees, fee receiver, launchpad length limitations, allowed referrers and early\n * access token to participate on round 1. The values can only be changed by the contract owner.\n */\n\npragma solidity 0.6.12;\n\nimport \"@openzeppelin/contracts/access/Ownable.sol\";\nimport \"@openzeppelin/contracts/utils/EnumerableSet.sol\";\nimport \"@openzeppelin/contracts/token/ERC20/IERC20.sol\";\nimport \"../interfaces/ILaunchpadSettings.sol\";\n\ncontract LaunchpadSettings is ILaunchpadSettings, Ownable {\n    using EnumerableSet for EnumerableSet.AddressSet;\n\n    // holding all launchpad settings parameter\n    struct Settings {\n        uint256 tokenFee; // fee charged on base and sale token to dev address in parts per 1000\n        uint256 referralFee; // fee charged on base and sale token fees to referral address in parts per 1000\n        address payable baseFeeReceiver; // address to send the base token fee to\n        address payable tokenFeeReceiver; // address to send the sale token fee to\n        uint256 creationFee; // absolute fee in BNB used by generator on launchpad creation\n        uint256 round1Length; // the duration of round 1 in seconds\n        uint256 maxLaunchpadLength; // maximum duration of launchpad in seconds\n        uint256 minLockingDuration; // minimum locking period in seconds\n    }\n\n    // holds addresses allowed to receive referral fee\n    EnumerableSet.AddressSet private ALLOWED_REFERRERS;\n\n    // set of tokens allowing early access (round1 purchase)\n    EnumerableSet.AddressSet private EARLY_ACCESS_TOKENS;\n    // specifing the amount of early acces token to be held by a user\n    // EARLY_ACCESS_TOKEN => REQUIRED HOLDING AMOUNT\n    mapping(address => uint256) public EARLY_ACCESS_AMOUNTS;\n\n    // holding all launchpad settings parameter\n    Settings public settings;\n\n    /**\n     * @dev Sets initial settings for launchpads\n     */\n    constructor() public {\n        settings.tokenFee = 15; // 1.5%\n        settings.referralFee = 100; // 10%\n        settings.creationFee = 5e17; // 0.5 BNB\n        settings.baseFeeReceiver = msg.sender;\n        settings.tokenFeeReceiver = msg.sender;\n        settings.round1Length = 7200; // 7,200 seconds = 2 hours\n        settings.maxLaunchpadLength = 1209600; // 1,209,600 seconds = 2 weeks\n        settings.minLockingDuration = 365 days; // 1 year\n    }\n\n    /*---------------------------------------------------------------------------------------------\n     * --------------------------------------Setter functions--------------------------------------\n     */\n\n    /**\n     * @notice edits the list of allowed referrers by owner. Referrers can be added to or removed from\n     * the allowed referrers list.\n     * @dev referrers are checked in create function of generator\n     * @param _referrer address of the referrer to be changed\n     * @param _allow bool if the referrer should be added to (=true) or removed from (=false) the list\n     */\n    function editAllowedReferrers(address payable _referrer, bool _allow)\n        external\n        onlyOwner\n    {\n        if (_allow) {\n            ALLOWED_REFERRERS.add(_referrer);\n        } else {\n            ALLOWED_REFERRERS.remove(_referrer);\n        }\n    }\n\n    /**\n     * @notice edits the list of early access tokens by owner.\n     * @param _token address of the token to be changed for early access\n     * @param _holdAmount the minimum amount of early acces token hold by user for early access\n     * @param _allow bool if the token should be added to (=true) or removed from (=false) the list\n     */\n    function editEarlyAccessTokens(\n        address _token,\n        uint256 _holdAmount,\n        bool _allow\n    ) external onlyOwner {\n        if (_allow) {\n            EARLY_ACCESS_TOKENS.add(_token);\n        } else {\n            EARLY_ACCESS_TOKENS.remove(_token);\n        }\n        EARLY_ACCESS_AMOUNTS[_token] = _holdAmount;\n    }\n\n    /**\n     * @notice sets the fee receiver addresses for base token and sale token fees\n     * @param _baseFeeReceiver address of the base token fee receiver\n     * @param _tokenFeeReceiver address of the sale token fee receiver\n     */\n    function setFeeAddresses(\n        address payable _baseFeeReceiver,\n        address payable _tokenFeeReceiver\n    ) external onlyOwner {\n        settings.baseFeeReceiver = _baseFeeReceiver;\n        settings.tokenFeeReceiver = _tokenFeeReceiver;\n    }\n\n    /**\n     * @notice sets the fees for the launchpad by owner\n     * @param _tokenFee relative fee charged on base and sale tokens in parts per 1000\n     * @param _creationFee absolute fee in BNB charged on launchpad creation\n     * @param _referralFee relative fee charged on base and sale tokens fee in parts per 1000\n     */\n    function setFees(\n        uint256 _tokenFee,\n        uint256 _creationFee,\n        uint256 _referralFee\n    ) external onlyOwner {\n        settings.tokenFee = _tokenFee;\n        settings.referralFee = _referralFee;\n        settings.creationFee = _creationFee;\n    }\n\n    /**\n     * @notice sets the maximum duration of a launchpad by owner\n     * @param _maxLength duration in seconds (difference between start and end time)\n     */\n    function setMaxLaunchpadLength(uint256 _maxLength) external onlyOwner {\n        settings.maxLaunchpadLength = _maxLength;\n    }\n\n    /**\n     * @notice sets the minimum duration of locking lp tockens\n     * @param _minLength locking duration in seconds\n     */\n    function setMinLockingDuration(uint256 _minLength) external onlyOwner {\n        settings.minLockingDuration = _minLength;\n    }\n\n    /**\n     * @notice set the duration of round 1 by owner\n     * @param _round1Length the duration of round 1 in seconds\n     */\n    function setRound1Length(uint256 _round1Length) external onlyOwner {\n        settings.round1Length = _round1Length;\n    }\n\n    /*---------------------------------------------------------------------------------------------\n     * --------------------------------------Getter functions--------------------------------------\n     */\n\n    /**\n     * @notice returns total amount of allowed referrers\n     */\n    function allowedReferrersLength() external view returns (uint256) {\n        return ALLOWED_REFERRERS.length();\n    }\n\n    /**\n     * @notice returns total amount registered early access tokens\n     */\n    function earlyAccessTokensLength() public view returns (uint256) {\n        return EARLY_ACCESS_TOKENS.length();\n    }\n\n    /**\n     * @notice returns the address of the base fee receiver\n     */\n    function getBaseFeeReceiver()\n        external\n        view\n        override\n        returns (address payable)\n    {\n        return settings.baseFeeReceiver;\n    }\n\n    /**\n     * @notice returns the absolute fee in BNB for launchpad creation\n     */\n    function getGlmrCreationFee() external view override returns (uint256) {\n        return settings.creationFee;\n    }\n\n    /**\n     * @notice returns the address and holding amount of the early access token at given index\n     * @param _index  position of the early access token in the EARLY_ACCESS_TOKENS set\n     */\n    function getEarlyAccessTokenAtIndex(uint256 _index)\n        public\n        view\n        returns (address, uint256)\n    {\n        address tokenAddress = EARLY_ACCESS_TOKENS.at(_index);\n        return (tokenAddress, EARLY_ACCESS_AMOUNTS[tokenAddress]);\n    }\n\n    /**\n     * @notice returns the maximum duration of a launchpad in seconds\n     */\n    function getMaxLaunchpadLength() external view override returns (uint256) {\n        return settings.maxLaunchpadLength;\n    }\n\n    /**\n     * @notice gets the minimum duration of locking lp tockens\n     */\n    function getMinLockingDuration() external view override returns (uint256) {\n        return settings.minLockingDuration;\n    }\n\n    /**\n     * @notice returns the relative referral fee charged on base and sale token fee in parts per 1000\n     */\n    function getReferralFee() external view override returns (uint256) {\n        return settings.referralFee;\n    }\n\n    /**\n     * @notice returns the address of the referrer at a given index\n     * @param _index position of the referrer in the ALLOWED_REFERRERS set\n     */\n    function getReferrerAtIndex(uint256 _index)\n        external\n        view\n        returns (address)\n    {\n        return ALLOWED_REFERRERS.at(_index);\n    }\n\n    /**\n     * @notice returns the duration of round 1 in seconds\n     */\n    function getRound1Length() external view override returns (uint256) {\n        return settings.round1Length;\n    }\n\n    /**\n     * @notice returns the sale token fee receiver address\n     */\n    function getSaleFeeReceiver()\n        external\n        view\n        override\n        returns (address payable)\n    {\n        return settings.tokenFeeReceiver;\n    }\n\n    /**\n     * @notice returns the relative sale token fee in parts per 1000\n     */\n    function getTokenFee() external view override returns (uint256) {\n        return settings.tokenFee;\n    }\n\n    /**\n     * @notice returns if a given referrer is valid\n     * @param _referrer address of the checked referrer\n     */\n    function referrerIsValid(address _referrer)\n        external\n        view\n        override\n        returns (bool)\n    {\n        return ALLOWED_REFERRERS.contains(_referrer);\n    }\n\n    /**\n     * @notice returns if a given user has sufficient balance of early access tokens\n     * registered in the EARLY_ACCESS_TOKENS set to participate in round 1\n     * @dev we are aware of out of gas scenarios in for loop. It is intended to keep\n     * the early access tokens list very small (max. 5)\n     * @param _user address of the user to be checked\n     */\n    function userHoldsSufficientRound1Token(address _user)\n        external\n        view\n        override\n        returns (bool)\n    {\n        if (earlyAccessTokensLength() == 0) {\n            return true;\n        }\n        for (uint256 i = 0; i < earlyAccessTokensLength(); i++) {\n            (address token, uint256 amountHold) = getEarlyAccessTokenAtIndex(i);\n            if (IERC20(token).balanceOf(_user) >= amountHold) {\n                return true;\n            }\n        }\n        return false;\n    }\n}\n",
  "sourcePath": "/Users/apple/Desktop/datacpoy/BlockChain/kinko-contracts/contracts/LaunchpadSettings.sol",
  "compiler": {
    "name": "solc",
    "version": "0.6.12+commit.27d51765.Emscripten.clang"
  },
  "schemaVersion": "3.4.6",
  "updatedAt": "2022-06-27T08:01:27.441Z",
  "networkType": "ethereum",
  "devdoc": {
    "kind": "dev",
    "methods": {
      "constructor": {
        "details": "Sets initial settings for launchpads"
      },
      "editAllowedReferrers(address,bool)": {
        "details": "referrers are checked in create function of generator",
        "params": {
          "_allow": "bool if the referrer should be added to (=true) or removed from (=false) the list",
          "_referrer": "address of the referrer to be changed"
        }
      },
      "editEarlyAccessTokens(address,uint256,bool)": {
        "params": {
          "_allow": "bool if the token should be added to (=true) or removed from (=false) the list",
          "_holdAmount": "the minimum amount of early acces token hold by user for early access",
          "_token": "address of the token to be changed for early access"
        }
      },
      "getEarlyAccessTokenAtIndex(uint256)": {
        "params": {
          "_index": "position of the early access token in the EARLY_ACCESS_TOKENS set"
        }
      },
      "getReferrerAtIndex(uint256)": {
        "params": {
          "_index": "position of the referrer in the ALLOWED_REFERRERS set"
        }
      },
      "owner()": {
        "details": "Returns the address of the current owner."
      },
      "referrerIsValid(address)": {
        "params": {
          "_referrer": "address of the checked referrer"
        }
      },
      "renounceOwnership()": {
        "details": "Leaves the contract without owner. It will not be possible to call `onlyOwner` functions anymore. Can only be called by the current owner. NOTE: Renouncing ownership will leave the contract without an owner, thereby removing any functionality that is only available to the owner."
      },
      "setFeeAddresses(address,address)": {
        "params": {
          "_baseFeeReceiver": "address of the base token fee receiver",
          "_tokenFeeReceiver": "address of the sale token fee receiver"
        }
      },
      "setFees(uint256,uint256,uint256)": {
        "params": {
          "_creationFee": "absolute fee in BNB charged on launchpad creation",
          "_referralFee": "relative fee charged on base and sale tokens fee in parts per 1000",
          "_tokenFee": "relative fee charged on base and sale tokens in parts per 1000"
        }
      },
      "setMaxLaunchpadLength(uint256)": {
        "params": {
          "_maxLength": "duration in seconds (difference between start and end time)"
        }
      },
      "setMinLockingDuration(uint256)": {
        "params": {
          "_minLength": "locking duration in seconds"
        }
      },
      "setRound1Length(uint256)": {
        "params": {
          "_round1Length": "the duration of round 1 in seconds"
        }
      },
      "transferOwnership(address)": {
        "details": "Transfers ownership of the contract to a new account (`newOwner`). Can only be called by the current owner."
      },
      "userHoldsSufficientRound1Token(address)": {
        "details": "we are aware of out of gas scenarios in for loop. It is intended to keep the early access tokens list very small (max. 5)",
        "params": {
          "_user": "address of the user to be checked"
        }
      }
    },
    "version": 1
  },
  "userdoc": {
    "kind": "user",
    "methods": {
      "allowedReferrersLength()": {
        "notice": "returns total amount of allowed referrers"
      },
      "earlyAccessTokensLength()": {
        "notice": "returns total amount registered early access tokens"
      },
      "editAllowedReferrers(address,bool)": {
        "notice": "edits the list of allowed referrers by owner. Referrers can be added to or removed from the allowed referrers list."
      },
      "editEarlyAccessTokens(address,uint256,bool)": {
        "notice": "edits the list of early access tokens by owner."
      },
      "getBaseFeeReceiver()": {
        "notice": "returns the address of the base fee receiver"
      },
      "getEarlyAccessTokenAtIndex(uint256)": {
        "notice": "returns the address and holding amount of the early access token at given index"
      },
      "getGlmrCreationFee()": {
        "notice": "returns the absolute fee in BNB for launchpad creation"
      },
      "getMaxLaunchpadLength()": {
        "notice": "returns the maximum duration of a launchpad in seconds"
      },
      "getMinLockingDuration()": {
        "notice": "gets the minimum duration of locking lp tockens"
      },
      "getReferralFee()": {
        "notice": "returns the relative referral fee charged on base and sale token fee in parts per 1000"
      },
      "getReferrerAtIndex(uint256)": {
        "notice": "returns the address of the referrer at a given index"
      },
      "getRound1Length()": {
        "notice": "returns the duration of round 1 in seconds"
      },
      "getSaleFeeReceiver()": {
        "notice": "returns the sale token fee receiver address"
      },
      "getTokenFee()": {
        "notice": "returns the relative sale token fee in parts per 1000"
      },
      "referrerIsValid(address)": {
        "notice": "returns if a given referrer is valid"
      },
      "setFeeAddresses(address,address)": {
        "notice": "sets the fee receiver addresses for base token and sale token fees"
      },
      "setFees(uint256,uint256,uint256)": {
        "notice": "sets the fees for the launchpad by owner"
      },
      "setMaxLaunchpadLength(uint256)": {
        "notice": "sets the maximum duration of a launchpad by owner"
      },
      "setMinLockingDuration(uint256)": {
        "notice": "sets the minimum duration of locking lp tockens"
      },
      "setRound1Length(uint256)": {
        "notice": "set the duration of round 1 by owner"
      },
      "userHoldsSufficientRound1Token(address)": {
        "notice": "returns if a given user has sufficient balance of early access tokens registered in the EARLY_ACCESS_TOKENS set to participate in round 1"
      }
    },
    "version": 1
  }
}