{
  "contractName": "LaunchpadLockForwarder",
  "abi": [
    {
      "inputs": [
        {
          "internalType": "address",
          "name": "_launchpadFactory",
          "type": "address"
        },
        {
          "internalType": "address",
          "name": "_pancakeFactory",
          "type": "address"
        },
        {
          "internalType": "address",
          "name": "_pancakeLocker",
          "type": "address"
        }
      ],
      "stateMutability": "nonpayable",
      "type": "constructor"
    },
    {
      "inputs": [],
      "name": "KINKO_FACTORY",
      "outputs": [
        {
          "internalType": "contract IPancakeFactory",
          "name": "",
          "type": "address"
        }
      ],
      "stateMutability": "view",
      "type": "function",
      "constant": true
    },
    {
      "inputs": [],
      "name": "KINKO_LOCKER",
      "outputs": [
        {
          "internalType": "contract IPancakeLocker",
          "name": "",
          "type": "address"
        }
      ],
      "stateMutability": "view",
      "type": "function",
      "constant": true
    },
    {
      "inputs": [],
      "name": "LAUNCHPAD_FACTORY",
      "outputs": [
        {
          "internalType": "contract ILaunchpadFactory",
          "name": "",
          "type": "address"
        }
      ],
      "stateMutability": "view",
      "type": "function",
      "constant": true
    },
    {
      "inputs": [
        {
          "internalType": "address",
          "name": "_token0",
          "type": "address"
        },
        {
          "internalType": "address",
          "name": "_token1",
          "type": "address"
        }
      ],
      "name": "pancakeswapPairIsInitialised",
      "outputs": [
        {
          "internalType": "bool",
          "name": "",
          "type": "bool"
        }
      ],
      "stateMutability": "view",
      "type": "function",
      "constant": true
    },
    {
      "inputs": [
        {
          "internalType": "contract IERC20Meta",
          "name": "_baseToken",
          "type": "address"
        },
        {
          "internalType": "contract IERC20",
          "name": "_saleToken",
          "type": "address"
        },
        {
          "internalType": "uint256",
          "name": "_baseAmount",
          "type": "uint256"
        },
        {
          "internalType": "uint256",
          "name": "_saleAmount",
          "type": "uint256"
        },
        {
          "internalType": "uint256",
          "name": "_unlockDate",
          "type": "uint256"
        },
        {
          "internalType": "address payable",
          "name": "_withdrawer",
          "type": "address"
        }
      ],
      "name": "lockLiquidity",
      "outputs": [],
      "stateMutability": "nonpayable",
      "type": "function"
    }
  ],
  "bytecode": "0x60e060405234801561001057600080fd5b50604051610c6e380380610c6e8339818101604052606081101561003357600080fd5b50805160208201516040909201519091906001600160a01b0383161580159061006457506001600160a01b03821615155b801561007857506001600160a01b03811615155b6100b8576040805162461bcd60e51b815260206004820152600c60248201526b5a45524f204144445245535360a01b604482015290519081900360640190fd5b6001600160601b0319606093841b811660805291831b821660c05290911b1660a05260805160601c60a05160601c60c05160601c610b3c6101326000398061011e528061024b528061030552806103d9528061069a52508061014252806105a2528061062d52508061018452806107f95250610b3c6000f3fe608060405234801561001057600080fd5b50600436106100575760003560e01c806301390d661461005c5780631bfdff18146100805780632277d0e314610088578063b2b6d1a5146100d2578063c1671c5014610114575b600080fd5b61006461011c565b604080516001600160a01b039092168252519081900360200190f35b610064610140565b6100d0600480360360c081101561009e57600080fd5b506001600160a01b038135811691602081013582169160408201359160608101359160808201359160a0013516610164565b005b610100600480360360408110156100e857600080fd5b506001600160a01b0381358116916020013516610695565b604080519115158252519081900360200190f35b6100646107f7565b7f000000000000000000000000000000000000000000000000000000000000000081565b7f000000000000000000000000000000000000000000000000000000000000000081565b6040805163ba888c2960e01b815233600482015290516001600160a01b037f0000000000000000000000000000000000000000000000000000000000000000169163ba888c29916024808301926020929190829003018186803b1580156101ca57600080fd5b505afa1580156101de573d6000803e3d6000fd5b505050506040513d60208110156101f457600080fd5b5051610247576040805162461bcd60e51b815260206004820152601860248201527f4c41554e4348504144204e4f5420524547495354455245440000000000000000604482015290519081900360640190fd5b60007f00000000000000000000000000000000000000000000000000000000000000006001600160a01b031663e6a4390588886040518363ffffffff1660e01b815260040180836001600160a01b03168152602001826001600160a01b031681526020019250505060206040518083038186803b1580156102c757600080fd5b505afa1580156102db573d6000803e3d6000fd5b505050506040513d60208110156102f157600080fd5b505190506001600160a01b038116610451577f00000000000000000000000000000000000000000000000000000000000000006001600160a01b031663c9c6539688886040518363ffffffff1660e01b815260040180836001600160a01b03168152602001826001600160a01b0316815260200192505050602060405180830381600087803b15801561038357600080fd5b505af1158015610397573d6000803e3d6000fd5b505050506040513d60208110156103ad57600080fd5b50506040805163e6a4390560e01b81526001600160a01b038981166004830152888116602483015291517f00000000000000000000000000000000000000000000000000000000000000009092169163e6a4390591604480820192602092909190829003018186803b15801561042257600080fd5b505afa158015610436573d6000803e3d6000fd5b505050506040513d602081101561044c57600080fd5b505190505b61045d8733838861081b565b6104698633838761081b565b604080516335313c2160e11b815230600482015290516001600160a01b03831691636a6278429160248083019260209291908290030181600087803b1580156104b157600080fd5b505af11580156104c5573d6000803e3d6000fd5b505050506040513d60208110156104db57600080fd5b5050604080516370a0823160e01b815230600482015290516000916001600160a01b038416916370a0823191602480820192602092909190829003018186803b15801561052757600080fd5b505afa15801561053b573d6000803e3d6000fd5b505050506040513d602081101561055157600080fd5b505190508061059c576040805162461bcd60e51b815260206004820152601260248201527113140818dc99585d1a5bdb8819985a5b195960721b604482015290519081900360640190fd5b6105c7827f000000000000000000000000000000000000000000000000000000000000000083610978565b60006402540be3ff85116105db57846105e2565b6402540be3ff5b6040805163457a0b7b60e11b81526001600160a01b03868116600483015260248201869052604482018490526000606483018190526001608484015288821660a484015292519394507f00000000000000000000000000000000000000000000000000000000000000001692638af416f69260c48084019391929182900301818387803b15801561067257600080fd5b505af1158015610686573d6000803e3d6000fd5b50505050505050505050505050565b6000807f00000000000000000000000000000000000000000000000000000000000000006001600160a01b031663e6a4390585856040518363ffffffff1660e01b815260040180836001600160a01b03168152602001826001600160a01b031681526020019250505060206040518083038186803b15801561071657600080fd5b505afa15801561072a573d6000803e3d6000fd5b505050506040513d602081101561074057600080fd5b505190506001600160a01b03811661075c5760009150506107f1565b6000846001600160a01b03166370a08231836040518263ffffffff1660e01b815260040180826001600160a01b0316815260200191505060206040518083038186803b1580156107ab57600080fd5b505afa1580156107bf573d6000803e3d6000fd5b505050506040513d60208110156107d557600080fd5b5051905080156107ea576001925050506107f1565b6000925050505b92915050565b7f000000000000000000000000000000000000000000000000000000000000000081565b604080516001600160a01b0385811660248301528481166044830152606480830185905283518084039091018152608490920183526020820180516001600160e01b03166323b872dd60e01b17815292518251600094606094938a169392918291908083835b602083106108a05780518252601f199092019160209182019101610881565b6001836020036101000a0380198251168184511680821785525050505050509050019150506000604051808303816000865af19150503d8060008114610902576040519150601f19603f3d011682016040523d82523d6000602084013e610907565b606091505b5091509150818015610935575080511580610935575080806020019051602081101561093257600080fd5b50515b6109705760405162461bcd60e51b8152600401808060200182810382526024815260200180610ae36024913960400191505060405180910390fd5b505050505050565b604080516001600160a01b038481166024830152604480830185905283518084039091018152606490920183526020820180516001600160e01b031663095ea7b360e01b178152925182516000946060949389169392918291908083835b602083106109f55780518252601f1990920191602091820191016109d6565b6001836020036101000a0380198251168184511680821785525050505050509050019150506000604051808303816000865af19150503d8060008114610a57576040519150601f19603f3d011682016040523d82523d6000602084013e610a5c565b606091505b5091509150818015610a8a575080511580610a8a5750808060200190516020811015610a8757600080fd5b50515b610adb576040805162461bcd60e51b815260206004820152601e60248201527f5472616e7366657248656c7065723a20415050524f56455f4641494c45440000604482015290519081900360640190fd5b505050505056fe5472616e7366657248656c7065723a205452414e534645525f46524f4d5f4641494c4544a26469706673582212200c8df7463b8a06b2f0fe32ca76f5a9a738d56599874ab05711fac4ce3e9589e564736f6c634300060c0033",
  "immutableReferences": {
    "3296": [
      {
        "length": 32,
        "start": 388
      },
      {
        "length": 32,
        "start": 2041
      }
    ],
    "3298": [
      {
        "length": 32,
        "start": 322
      },
      {
        "length": 32,
        "start": 1442
      },
      {
        "length": 32,
        "start": 1581
      }
    ],
    "3300": [
      {
        "length": 32,
        "start": 286
      },
      {
        "length": 32,
        "start": 587
      },
      {
        "length": 32,
        "start": 773
      },
      {
        "length": 32,
        "start": 985
      },
      {
        "length": 32,
        "start": 1690
      }
    ]
  },
  "source": "// SPDX-License-Identifier: MIT\n\n/**\n * @title Lock Forwarder of Pancake launchpad enviroment\n * @dev This contract checks if a pancake pair for the launchpad tokens exists\n * and locks liquidity by creating a LP on pancakeswap and forwards the LP token\n * to the pancakeLocker contract. The LP tokens will be locked in pancakeLocker.\n */\n\npragma solidity 0.6.12;\n\nimport \"@openzeppelin/contracts/token/ERC20/IERC20.sol\";\n\nimport \"../interfaces/pancake/IPancakeFactory.sol\";\nimport \"../interfaces/pancake/IPancakePair.sol\";\nimport \"../interfaces/ILaunchpadFactory.sol\";\nimport \"../interfaces/IPancakeLocker.sol\";\nimport \"../interfaces/ILaunchpadLockForwarder.sol\";\n\nimport \"./TransferHelper.sol\";\n\ncontract LaunchpadLockForwarder is ILaunchpadLockForwarder {\n    ILaunchpadFactory public immutable LAUNCHPAD_FACTORY;\n    IPancakeLocker public immutable KINKO_LOCKER;\n    IPancakeFactory public immutable KINKO_FACTORY;\n\n    /**\n     * @dev sets initially contract dependend addresses\n     * @param _launchpadFactory address of the launchpad factory\n     * @param _pancakeFactory address of the pancake factory\n     * @param _pancakeLocker address of the pancake locker contract\n     */\n    constructor(\n        address _launchpadFactory,\n        address _pancakeFactory,\n        address _pancakeLocker\n    ) public {\n        require(\n            _launchpadFactory != address(0) &&\n                _pancakeFactory != address(0) &&\n                _pancakeLocker != address(0),\n            \"ZERO ADDRESS\"\n        );\n        LAUNCHPAD_FACTORY = ILaunchpadFactory(_launchpadFactory);\n        KINKO_FACTORY = IPancakeFactory(_pancakeFactory);\n        KINKO_LOCKER = IPancakeLocker(_pancakeLocker);\n    }\n\n    /**\n     * @notice checks if a pancake pair with liquidity exists on pancakeswap for the given tokens\n     * @param _token0 one address of the pancake pair base tokens\n     * @param _token1 the other address of the pancake pair base tokens\n     */\n    function pancakeswapPairIsInitialised(address _token0, address _token1)\n        external\n        view\n        override\n        returns (bool)\n    {\n        // check for pancake pair\n        address pairAddress = KINKO_FACTORY.getPair(_token0, _token1);\n        if (pairAddress == address(0)) {\n            return false;\n        }\n\n        // check for liquidity inside pair\n        uint256 balance = IERC20(_token0).balanceOf(pairAddress);\n        if (balance > 0) {\n            return true;\n        }\n        return false;\n    }\n\n    /**\n     * @notice locks iquidity by creating a liquidity pair (LP) with base and sale token,\n     * sending liquidity amount of both tokens to the LP and locks the minted LP token\n     * with PancakeLocker contract.\n     * @param _baseToken token received for sold launchpad token\n     * @param _saleToken token sold in launchpad\n     * @param _baseAmount amount of base tokens to be locked\n     * @param _saleAmount amount of sale tokens to be locked\n     * @param _unlockDate timestamp to unlock the locked lp token\n     * @param _withdrawer address allowed to withdraw token after unlock date\n     */\n    function lockLiquidity(\n        IERC20Meta _baseToken,\n        IERC20 _saleToken,\n        uint256 _baseAmount,\n        uint256 _saleAmount,\n        uint256 _unlockDate,\n        address payable _withdrawer\n    ) external override {\n        require(\n            LAUNCHPAD_FACTORY.launchpadIsRegistered(msg.sender),\n            \"LAUNCHPAD NOT REGISTERED\"\n        );\n        // get pancake pair if exists\n        address pair = KINKO_FACTORY.getPair(\n            address(_baseToken),\n            address(_saleToken)\n        );\n\n        // create pancake pair if not exists\n        if (pair == address(0)) {\n            KINKO_FACTORY.createPair(\n                address(_baseToken),\n                address(_saleToken)\n            );\n            pair = KINKO_FACTORY.getPair(\n                address(_baseToken),\n                address(_saleToken)\n            );\n        }\n\n        // transfer base token amount to pancake pair\n        TransferHelper.safeTransferFrom(\n            address(_baseToken),\n            msg.sender,\n            address(pair),\n            _baseAmount\n        );\n\n        // transfer sale token amount to pancake pair\n        TransferHelper.safeTransferFrom(\n            address(_saleToken),\n            msg.sender,\n            address(pair),\n            _saleAmount\n        );\n\n        // mint LP tokens\n        IPancakePair(pair).mint(address(this));\n        uint256 totalLPTokensMinted = IPancakePair(pair).balanceOf(\n            address(this)\n        );\n        require(totalLPTokensMinted != 0, \"LP creation failed\");\n\n        // approve locker contract with LP tokens\n        TransferHelper.safeApprove(\n            pair,\n            address(KINKO_LOCKER),\n            totalLPTokensMinted\n        );\n\n        // ensure max lock date\n        uint256 unlock_date = _unlockDate > 9999999999\n            ? 9999999999\n            : _unlockDate;\n\n        // lock the LP token with pancake locker contract\n        KINKO_LOCKER.lockLPToken(\n            pair,\n            totalLPTokensMinted,\n            unlock_date,\n            address(0),\n            true,\n            _withdrawer\n        );\n    }\n}\n",
  "sourcePath": "/Users/apple/Desktop/datacpoy/BlockChain/kinko-contracts/contracts/LaunchpadLockForwarder.sol",
  "compiler": {
    "name": "solc",
    "version": "0.6.12+commit.27d51765.Emscripten.clang"
  },
  "schemaVersion": "3.4.6",
  "updatedAt": "2022-06-27T08:01:27.460Z",
  "networkType": "ethereum",
  "devdoc": {
    "kind": "dev",
    "methods": {
      "constructor": {
        "details": "sets initially contract dependend addresses",
        "params": {
          "_launchpadFactory": "address of the launchpad factory",
          "_pancakeFactory": "address of the pancake factory",
          "_pancakeLocker": "address of the pancake locker contract"
        }
      },
      "lockLiquidity(address,address,uint256,uint256,uint256,address)": {
        "params": {
          "_baseAmount": "amount of base tokens to be locked",
          "_baseToken": "token received for sold launchpad token",
          "_saleAmount": "amount of sale tokens to be locked",
          "_saleToken": "token sold in launchpad",
          "_unlockDate": "timestamp to unlock the locked lp token",
          "_withdrawer": "address allowed to withdraw token after unlock date"
        }
      },
      "pancakeswapPairIsInitialised(address,address)": {
        "params": {
          "_token0": "one address of the pancake pair base tokens",
          "_token1": "the other address of the pancake pair base tokens"
        }
      }
    },
    "version": 1
  },
  "userdoc": {
    "kind": "user",
    "methods": {
      "lockLiquidity(address,address,uint256,uint256,uint256,address)": {
        "notice": "locks iquidity by creating a liquidity pair (LP) with base and sale token, sending liquidity amount of both tokens to the LP and locks the minted LP token with PancakeLocker contract."
      },
      "pancakeswapPairIsInitialised(address,address)": {
        "notice": "checks if a pancake pair with liquidity exists on pancakeswap for the given tokens"
      }
    },
    "version": 1
  }
}