{
  "contractName": "LaunchpadLockForwarder",
  "abi": [
    {
      "inputs": [
        {
          "internalType": "address",
          "name": "_launchpadFactory",
          "type": "address"
        },
        {
          "internalType": "address",
          "name": "_energyFiFactory",
          "type": "address"
        },
        {
          "internalType": "address",
          "name": "_energyFiLocker",
          "type": "address"
        }
      ],
      "stateMutability": "nonpayable",
      "type": "constructor"
    },
    {
      "inputs": [],
      "name": "KINKO_FACTORY",
      "outputs": [
        {
          "internalType": "contract IPancakeFactory",
          "name": "",
          "type": "address"
        }
      ],
      "stateMutability": "view",
      "type": "function"
    },
    {
      "inputs": [],
      "name": "KINKO_LOCKER",
      "outputs": [
        {
          "internalType": "contract IPancakeLocker",
          "name": "",
          "type": "address"
        }
      ],
      "stateMutability": "view",
      "type": "function"
    },
    {
      "inputs": [],
      "name": "LAUNCHPAD_FACTORY",
      "outputs": [
        {
          "internalType": "contract ILaunchpadFactory",
          "name": "",
          "type": "address"
        }
      ],
      "stateMutability": "view",
      "type": "function"
    },
    {
      "inputs": [
        {
          "internalType": "address",
          "name": "_token0",
          "type": "address"
        },
        {
          "internalType": "address",
          "name": "_token1",
          "type": "address"
        }
      ],
      "name": "energyFiswapPairIsInitialised",
      "outputs": [
        {
          "internalType": "bool",
          "name": "",
          "type": "bool"
        }
      ],
      "stateMutability": "view",
      "type": "function"
    },
    {
      "inputs": [
        {
          "internalType": "contract IERC20Meta",
          "name": "_baseToken",
          "type": "address"
        },
        {
          "internalType": "contract IERC20",
          "name": "_saleToken",
          "type": "address"
        },
        {
          "internalType": "uint256",
          "name": "_baseAmount",
          "type": "uint256"
        },
        {
          "internalType": "uint256",
          "name": "_saleAmount",
          "type": "uint256"
        },
        {
          "internalType": "uint256",
          "name": "_unlockDate",
          "type": "uint256"
        },
        {
          "internalType": "address payable",
          "name": "_withdrawer",
          "type": "address"
        }
      ],
      "name": "lockLiquidity",
      "outputs": [],
      "stateMutability": "nonpayable",
      "type": "function"
    }
  ],
  "bytecode": "0x60e060405234801561001057600080fd5b50604051610c6e380380610c6e8339818101604052606081101561003357600080fd5b50805160208201516040909201519091906001600160a01b0383161580159061006457506001600160a01b03821615155b801561007857506001600160a01b03811615155b6100b8576040805162461bcd60e51b815260206004820152600c60248201526b5a45524f204144445245535360a01b604482015290519081900360640190fd5b6001600160601b0319606093841b811660805291831b821660c05290911b1660a05260805160601c60a05160601c60c05160601c610b3c6101326000398061020352806102bd5280610391528061065252806107b152508061055a52806105e552806107f952508061013c52806107d55250610b3c6000f3fe608060405234801561001057600080fd5b50600436106100575760003560e01c80632277d0e31461005c5780632bd3b8b3146100a65780635e162d73146100e8578063c1671c501461010c578063fb0a5c8014610114575b600080fd5b6100a4600480360360c081101561007257600080fd5b506001600160a01b038135811691602081013582169160408201359160608101359160808201359160a001351661011c565b005b6100d4600480360360408110156100bc57600080fd5b506001600160a01b038135811691602001351661064d565b604080519115158252519081900360200190f35b6100f06107af565b604080516001600160a01b039092168252519081900360200190f35b6100f06107d3565b6100f06107f7565b6040805163ba888c2960e01b815233600482015290516001600160a01b037f0000000000000000000000000000000000000000000000000000000000000000169163ba888c29916024808301926020929190829003018186803b15801561018257600080fd5b505afa158015610196573d6000803e3d6000fd5b505050506040513d60208110156101ac57600080fd5b50516101ff576040805162461bcd60e51b815260206004820152601860248201527f4c41554e4348504144204e4f5420524547495354455245440000000000000000604482015290519081900360640190fd5b60007f00000000000000000000000000000000000000000000000000000000000000006001600160a01b031663e6a4390588886040518363ffffffff1660e01b815260040180836001600160a01b03168152602001826001600160a01b031681526020019250505060206040518083038186803b15801561027f57600080fd5b505afa158015610293573d6000803e3d6000fd5b505050506040513d60208110156102a957600080fd5b505190506001600160a01b038116610409577f00000000000000000000000000000000000000000000000000000000000000006001600160a01b031663c9c6539688886040518363ffffffff1660e01b815260040180836001600160a01b03168152602001826001600160a01b0316815260200192505050602060405180830381600087803b15801561033b57600080fd5b505af115801561034f573d6000803e3d6000fd5b505050506040513d602081101561036557600080fd5b50506040805163e6a4390560e01b81526001600160a01b038981166004830152888116602483015291517f00000000000000000000000000000000000000000000000000000000000000009092169163e6a4390591604480820192602092909190829003018186803b1580156103da57600080fd5b505afa1580156103ee573d6000803e3d6000fd5b505050506040513d602081101561040457600080fd5b505190505b6104158733838861081b565b6104218633838761081b565b604080516335313c2160e11b815230600482015290516001600160a01b03831691636a6278429160248083019260209291908290030181600087803b15801561046957600080fd5b505af115801561047d573d6000803e3d6000fd5b505050506040513d602081101561049357600080fd5b5050604080516370a0823160e01b815230600482015290516000916001600160a01b038416916370a0823191602480820192602092909190829003018186803b1580156104df57600080fd5b505afa1580156104f3573d6000803e3d6000fd5b505050506040513d602081101561050957600080fd5b5051905080610554576040805162461bcd60e51b815260206004820152601260248201527113140818dc99585d1a5bdb8819985a5b195960721b604482015290519081900360640190fd5b61057f827f000000000000000000000000000000000000000000000000000000000000000083610978565b60006402540be3ff8511610593578461059a565b6402540be3ff5b6040805163457a0b7b60e11b81526001600160a01b03868116600483015260248201869052604482018490526000606483018190526001608484015288821660a484015292519394507f00000000000000000000000000000000000000000000000000000000000000001692638af416f69260c48084019391929182900301818387803b15801561062a57600080fd5b505af115801561063e573d6000803e3d6000fd5b50505050505050505050505050565b6000807f00000000000000000000000000000000000000000000000000000000000000006001600160a01b031663e6a4390585856040518363ffffffff1660e01b815260040180836001600160a01b03168152602001826001600160a01b031681526020019250505060206040518083038186803b1580156106ce57600080fd5b505afa1580156106e2573d6000803e3d6000fd5b505050506040513d60208110156106f857600080fd5b505190506001600160a01b0381166107145760009150506107a9565b6000846001600160a01b03166370a08231836040518263ffffffff1660e01b815260040180826001600160a01b0316815260200191505060206040518083038186803b15801561076357600080fd5b505afa158015610777573d6000803e3d6000fd5b505050506040513d602081101561078d57600080fd5b5051905080156107a2576001925050506107a9565b6000925050505b92915050565b7f000000000000000000000000000000000000000000000000000000000000000081565b7f000000000000000000000000000000000000000000000000000000000000000081565b7f000000000000000000000000000000000000000000000000000000000000000081565b604080516001600160a01b0385811660248301528481166044830152606480830185905283518084039091018152608490920183526020820180516001600160e01b03166323b872dd60e01b17815292518251600094606094938a169392918291908083835b602083106108a05780518252601f199092019160209182019101610881565b6001836020036101000a0380198251168184511680821785525050505050509050019150506000604051808303816000865af19150503d8060008114610902576040519150601f19603f3d011682016040523d82523d6000602084013e610907565b606091505b5091509150818015610935575080511580610935575080806020019051602081101561093257600080fd5b50515b6109705760405162461bcd60e51b8152600401808060200182810382526024815260200180610ae36024913960400191505060405180910390fd5b505050505050565b604080516001600160a01b038481166024830152604480830185905283518084039091018152606490920183526020820180516001600160e01b031663095ea7b360e01b178152925182516000946060949389169392918291908083835b602083106109f55780518252601f1990920191602091820191016109d6565b6001836020036101000a0380198251168184511680821785525050505050509050019150506000604051808303816000865af19150503d8060008114610a57576040519150601f19603f3d011682016040523d82523d6000602084013e610a5c565b606091505b5091509150818015610a8a575080511580610a8a5750808060200190516020811015610a8757600080fd5b50515b610adb576040805162461bcd60e51b815260206004820152601e60248201527f5472616e7366657248656c7065723a20415050524f56455f4641494c45440000604482015290519081900360640190fd5b505050505056fe5472616e7366657248656c7065723a205452414e534645525f46524f4d5f4641494c4544a2646970667358221220562bcf210d3694bb360475288d97c41eb7c1faf4fe46ac432a5f5719602fb5f264736f6c634300060c0033",
  "immutableReferences": {
    "4839": [
      {
        "length": 32,
        "start": 316
      },
      {
        "length": 32,
        "start": 2005
      }
    ],
    "4841": [
      {
        "length": 32,
        "start": 1370
      },
      {
        "length": 32,
        "start": 1509
      },
      {
        "length": 32,
        "start": 2041
      }
    ],
    "4843": [
      {
        "length": 32,
        "start": 515
      },
      {
        "length": 32,
        "start": 701
      },
      {
        "length": 32,
        "start": 913
      },
      {
        "length": 32,
        "start": 1618
      },
      {
        "length": 32,
        "start": 1969
      }
    ]
  },
  "source": "// SPDX-License-Identifier: MIT\n\n/**\n * @title Lock Forwarder of Pancake launchpad enviroment\n * @dev This contract checks if a energyFi pair for the launchpad tokens exists\n * and locks liquidity by creating a LP on energyFiswap and forwards the LP token\n * to the energyFiLocker contract. The LP tokens will be locked in energyFiLocker.\n */\n\npragma solidity 0.6.12;\n\nimport \"@openzeppelin/contracts/token/ERC20/IERC20.sol\";\n\nimport \"../interfaces/energyFi/IPancakeFactory.sol\";\nimport \"../interfaces/energyFi/IPancakePair.sol\";\nimport \"../interfaces/ILaunchpadFactory.sol\";\nimport \"../interfaces/IPancakeLocker.sol\";\nimport \"../interfaces/ILaunchpadLockForwarder.sol\";\n\nimport \"./TransferHelper.sol\";\n\ncontract LaunchpadLockForwarder is ILaunchpadLockForwarder {\n    ILaunchpadFactory public immutable LAUNCHPAD_FACTORY;\n    IPancakeLocker public immutable KINKO_LOCKER;\n    IPancakeFactory public immutable KINKO_FACTORY;\n\n    /**\n     * @dev sets initially contract dependend addresses\n     * @param _launchpadFactory address of the launchpad factory\n     * @param _energyFiFactory address of the energyFi factory\n     * @param _energyFiLocker address of the energyFi locker contract\n     */\n    constructor(\n        address _launchpadFactory,\n        address _energyFiFactory,\n        address _energyFiLocker\n    ) public {\n        require(\n            _launchpadFactory != address(0) &&\n                _energyFiFactory != address(0) &&\n                _energyFiLocker != address(0),\n            \"ZERO ADDRESS\"\n        );\n        LAUNCHPAD_FACTORY = ILaunchpadFactory(_launchpadFactory);\n        KINKO_FACTORY = IPancakeFactory(_energyFiFactory);\n        KINKO_LOCKER = IPancakeLocker(_energyFiLocker);\n    }\n\n    /**\n     * @notice checks if a energyFi pair with liquidity exists on energyFiswap for the given tokens\n     * @param _token0 one address of the energyFi pair base tokens\n     * @param _token1 the other address of the energyFi pair base tokens\n     */\n    function energyFiswapPairIsInitialised(address _token0, address _token1)\n        external\n        view\n        override\n        returns (bool)\n    {\n        // check for energyFi pair\n        address pairAddress = KINKO_FACTORY.getPair(_token0, _token1);\n        if (pairAddress == address(0)) {\n            return false;\n        }\n\n        // check for liquidity inside pair\n        uint256 balance = IERC20(_token0).balanceOf(pairAddress);\n        if (balance > 0) {\n            return true;\n        }\n        return false;\n    }\n\n    /**\n     * @notice locks iquidity by creating a liquidity pair (LP) with base and sale token,\n     * sending liquidity amount of both tokens to the LP and locks the minted LP token\n     * with PancakeLocker contract.\n     * @param _baseToken token received for sold launchpad token\n     * @param _saleToken token sold in launchpad\n     * @param _baseAmount amount of base tokens to be locked\n     * @param _saleAmount amount of sale tokens to be locked\n     * @param _unlockDate timestamp to unlock the locked lp token\n     * @param _withdrawer address allowed to withdraw token after unlock date\n     */\n    function lockLiquidity(\n        IERC20Meta _baseToken,\n        IERC20 _saleToken,\n        uint256 _baseAmount,\n        uint256 _saleAmount,\n        uint256 _unlockDate,\n        address payable _withdrawer\n    ) external override {\n        require(\n            LAUNCHPAD_FACTORY.launchpadIsRegistered(msg.sender),\n            \"LAUNCHPAD NOT REGISTERED\"\n        );\n        // get energyFi pair if exists\n        address pair = KINKO_FACTORY.getPair(\n            address(_baseToken),\n            address(_saleToken)\n        );\n\n        // create energyFi pair if not exists\n        if (pair == address(0)) {\n            KINKO_FACTORY.createPair(\n                address(_baseToken),\n                address(_saleToken)\n            );\n            pair = KINKO_FACTORY.getPair(\n                address(_baseToken),\n                address(_saleToken)\n            );\n        }\n\n        // transfer base token amount to energyFi pair\n        TransferHelper.safeTransferFrom(\n            address(_baseToken),\n            msg.sender,\n            address(pair),\n            _baseAmount\n        );\n\n        // transfer sale token amount to energyFi pair\n        TransferHelper.safeTransferFrom(\n            address(_saleToken),\n            msg.sender,\n            address(pair),\n            _saleAmount\n        );\n\n        // mint LP tokens\n        IPancakePair(pair).mint(address(this));\n        uint256 totalLPTokensMinted = IPancakePair(pair).balanceOf(\n            address(this)\n        );\n        require(totalLPTokensMinted != 0, \"LP creation failed\");\n\n        // approve locker contract with LP tokens\n        TransferHelper.safeApprove(\n            pair,\n            address(KINKO_LOCKER),\n            totalLPTokensMinted\n        );\n\n        // ensure max lock date\n        uint256 unlock_date = _unlockDate > 9999999999\n            ? 9999999999\n            : _unlockDate;\n\n        // lock the LP token with energyFi locker contract\n        KINKO_LOCKER.lockLPToken(\n            pair,\n            totalLPTokensMinted,\n            unlock_date,\n            address(0),\n            true,\n            _withdrawer\n        );\n    }\n}\n",
  "sourcePath": "/Users/apple/Downloads/kinko-ilo-contracts-main/contracts/LaunchpadLockForwarder.sol",
  "compiler": {
    "name": "solc",
    "version": "0.6.12+commit.27d51765.Emscripten.clang"
  },
  "schemaVersion": "3.4.6",
  "updatedAt": "2022-06-25T06:55:47.745Z",
  "devdoc": {
    "kind": "dev",
    "methods": {
      "constructor": {
        "details": "sets initially contract dependend addresses",
        "params": {
          "_energyFiFactory": "address of the energyFi factory",
          "_energyFiLocker": "address of the energyFi locker contract",
          "_launchpadFactory": "address of the launchpad factory"
        }
      },
      "energyFiswapPairIsInitialised(address,address)": {
        "params": {
          "_token0": "one address of the energyFi pair base tokens",
          "_token1": "the other address of the energyFi pair base tokens"
        }
      },
      "lockLiquidity(address,address,uint256,uint256,uint256,address)": {
        "params": {
          "_baseAmount": "amount of base tokens to be locked",
          "_baseToken": "token received for sold launchpad token",
          "_saleAmount": "amount of sale tokens to be locked",
          "_saleToken": "token sold in launchpad",
          "_unlockDate": "timestamp to unlock the locked lp token",
          "_withdrawer": "address allowed to withdraw token after unlock date"
        }
      }
    },
    "version": 1
  },
  "userdoc": {
    "kind": "user",
    "methods": {
      "energyFiswapPairIsInitialised(address,address)": {
        "notice": "checks if a energyFi pair with liquidity exists on energyFiswap for the given tokens"
      },
      "lockLiquidity(address,address,uint256,uint256,uint256,address)": {
        "notice": "locks iquidity by creating a liquidity pair (LP) with base and sale token, sending liquidity amount of both tokens to the LP and locks the minted LP token with PancakeLocker contract."
      }
    },
    "version": 1
  }
}