{
  "contractName": "Launchpad",
  "abi": [
    {
      "inputs": [
        {
          "internalType": "address",
          "name": "_launchpadGenerator",
          "type": "address"
        },
        {
          "internalType": "address",
          "name": "_wbnb",
          "type": "address"
        },
        {
          "internalType": "address",
          "name": "_launchpadSettings",
          "type": "address"
        },
        {
          "internalType": "address",
          "name": "_launchpadLockForwarder",
          "type": "address"
        },
        {
          "internalType": "address",
          "name": "_pancakeDev",
          "type": "address"
        }
      ],
      "stateMutability": "nonpayable",
      "type": "constructor"
    },
    {
      "inputs": [],
      "name": "CONTRACT_VERSION",
      "outputs": [
        {
          "internalType": "uint256",
          "name": "",
          "type": "uint256"
        }
      ],
      "stateMutability": "view",
      "type": "function"
    },
    {
      "inputs": [],
      "name": "LAUNCHPAD_GENERATOR",
      "outputs": [
        {
          "internalType": "address",
          "name": "",
          "type": "address"
        }
      ],
      "stateMutability": "view",
      "type": "function"
    },
    {
      "inputs": [],
      "name": "WBNB",
      "outputs": [
        {
          "internalType": "contract IWBNB",
          "name": "",
          "type": "address"
        }
      ],
      "stateMutability": "view",
      "type": "function"
    },
    {
      "inputs": [
        {
          "internalType": "address",
          "name": "",
          "type": "address"
        }
      ],
      "name": "buyers",
      "outputs": [
        {
          "internalType": "uint256",
          "name": "baseDeposited",
          "type": "uint256"
        },
        {
          "internalType": "uint256",
          "name": "tokensOwed",
          "type": "uint256"
        }
      ],
      "stateMutability": "view",
      "type": "function"
    },
    {
      "inputs": [],
      "name": "launchpadFeeInfo",
      "outputs": [
        {
          "internalType": "uint256",
          "name": "pancakeTokenFee",
          "type": "uint256"
        },
        {
          "internalType": "uint256",
          "name": "referralFee",
          "type": "uint256"
        },
        {
          "internalType": "address payable",
          "name": "baseFeeAddress",
          "type": "address"
        },
        {
          "internalType": "address payable",
          "name": "tokenFeeAddress",
          "type": "address"
        },
        {
          "internalType": "address payable",
          "name": "referralFeeAddress",
          "type": "address"
        }
      ],
      "stateMutability": "view",
      "type": "function"
    },
    {
      "inputs": [],
      "name": "launchpadInfo",
      "outputs": [
        {
          "internalType": "address payable",
          "name": "launchpadOwner",
          "type": "address"
        },
        {
          "internalType": "contract IERC20",
          "name": "sToken",
          "type": "address"
        },
        {
          "internalType": "contract IERC20Meta",
          "name": "bToken",
          "type": "address"
        },
        {
          "internalType": "uint256",
          "name": "amount",
          "type": "uint256"
        },
        {
          "internalType": "uint256",
          "name": "tokenPrice",
          "type": "uint256"
        },
        {
          "internalType": "uint256",
          "name": "maxSpendPerBuyer",
          "type": "uint256"
        },
        {
          "internalType": "uint256",
          "name": "softCap",
          "type": "uint256"
        },
        {
          "internalType": "uint256",
          "name": "hardcap",
          "type": "uint256"
        },
        {
          "internalType": "uint256",
          "name": "liquidityPercentage",
          "type": "uint256"
        },
        {
          "internalType": "uint256",
          "name": "listingRate",
          "type": "uint256"
        },
        {
          "internalType": "uint256",
          "name": "lockPeriod",
          "type": "uint256"
        },
        {
          "internalType": "uint256",
          "name": "startTime",
          "type": "uint256"
        },
        {
          "internalType": "uint256",
          "name": "endTime",
          "type": "uint256"
        },
        {
          "internalType": "bool",
          "name": "isBNB",
          "type": "bool"
        }
      ],
      "stateMutability": "view",
      "type": "function"
    },
    {
      "inputs": [],
      "name": "launchpadLockForwarder",
      "outputs": [
        {
          "internalType": "contract ILaunchpadLockForwarder",
          "name": "",
          "type": "address"
        }
      ],
      "stateMutability": "view",
      "type": "function"
    },
    {
      "inputs": [],
      "name": "launchpadSettings",
      "outputs": [
        {
          "internalType": "contract ILaunchpadSettings",
          "name": "",
          "type": "address"
        }
      ],
      "stateMutability": "view",
      "type": "function"
    },
    {
      "inputs": [],
      "name": "launchpadStatus",
      "outputs": [
        {
          "internalType": "bool",
          "name": "forceFailed",
          "type": "bool"
        },
        {
          "internalType": "bool",
          "name": "lpGenerationComplete",
          "type": "bool"
        },
        {
          "internalType": "bool",
          "name": "whitelistOnly",
          "type": "bool"
        },
        {
          "internalType": "uint256",
          "name": "lpGenerationTimestamp",
          "type": "uint256"
        },
        {
          "internalType": "uint256",
          "name": "totalBaseCollected",
          "type": "uint256"
        },
        {
          "internalType": "uint256",
          "name": "totalBaseWithdrawn",
          "type": "uint256"
        },
        {
          "internalType": "uint256",
          "name": "totalTokensSold",
          "type": "uint256"
        },
        {
          "internalType": "uint256",
          "name": "totalTokensWithdrawn",
          "type": "uint256"
        },
        {
          "internalType": "uint256",
          "name": "numBuyers",
          "type": "uint256"
        },
        {
          "internalType": "uint256",
          "name": "round1Length",
          "type": "uint256"
        }
      ],
      "stateMutability": "view",
      "type": "function"
    },
    {
      "inputs": [
        {
          "internalType": "address",
          "name": "",
          "type": "address"
        }
      ],
      "name": "rewardTokens",
      "outputs": [
        {
          "internalType": "uint256",
          "name": "",
          "type": "uint256"
        }
      ],
      "stateMutability": "view",
      "type": "function"
    },
    {
      "inputs": [
        {
          "internalType": "address payable",
          "name": "_launchpadOwner",
          "type": "address"
        },
        {
          "internalType": "uint256",
          "name": "_amount",
          "type": "uint256"
        },
        {
          "internalType": "uint256",
          "name": "_tokenPrice",
          "type": "uint256"
        },
        {
          "internalType": "uint256",
          "name": "_maxSpendPerBuyer",
          "type": "uint256"
        },
        {
          "internalType": "uint256",
          "name": "_hardcap",
          "type": "uint256"
        },
        {
          "internalType": "uint256",
          "name": "_softcap",
          "type": "uint256"
        },
        {
          "internalType": "uint256",
          "name": "_liquidityPercent",
          "type": "uint256"
        },
        {
          "internalType": "uint256",
          "name": "_listingRate",
          "type": "uint256"
        },
        {
          "internalType": "uint256",
          "name": "_startTime",
          "type": "uint256"
        },
        {
          "internalType": "uint256",
          "name": "_endTime",
          "type": "uint256"
        },
        {
          "internalType": "uint256",
          "name": "_lockPeriod",
          "type": "uint256"
        }
      ],
      "name": "init1",
      "outputs": [],
      "stateMutability": "nonpayable",
      "type": "function"
    },
    {
      "inputs": [
        {
          "internalType": "contract IERC20Meta",
          "name": "_baseToken",
          "type": "address"
        },
        {
          "internalType": "contract IERC20",
          "name": "_launchpadToken",
          "type": "address"
        },
        {
          "internalType": "uint256",
          "name": "_pancakeTokenFee",
          "type": "uint256"
        },
        {
          "internalType": "uint256",
          "name": "_referralFee",
          "type": "uint256"
        },
        {
          "internalType": "address payable",
          "name": "_baseFeeAddress",
          "type": "address"
        },
        {
          "internalType": "address payable",
          "name": "_tokenFeeAddress",
          "type": "address"
        },
        {
          "internalType": "address payable",
          "name": "_referralAddress",
          "type": "address"
        }
      ],
      "name": "init2",
      "outputs": [],
      "stateMutability": "nonpayable",
      "type": "function"
    },
    {
      "inputs": [],
      "name": "addLiquidity",
      "outputs": [],
      "stateMutability": "nonpayable",
      "type": "function"
    },
    {
      "inputs": [],
      "name": "forceFailIfPairExists",
      "outputs": [],
      "stateMutability": "nonpayable",
      "type": "function"
    },
    {
      "inputs": [
        {
          "internalType": "uint256",
          "name": "_amount",
          "type": "uint256"
        },
        {
          "internalType": "address[3]",
          "name": "_refferAddresses",
          "type": "address[3]"
        }
      ],
      "name": "userDeposit",
      "outputs": [],
      "stateMutability": "payable",
      "type": "function"
    },
    {
      "inputs": [],
      "name": "userWithdrawBaseTokens",
      "outputs": [],
      "stateMutability": "nonpayable",
      "type": "function"
    },
    {
      "inputs": [],
      "name": "userWithdrawTokens",
      "outputs": [],
      "stateMutability": "nonpayable",
      "type": "function"
    },
    {
      "inputs": [],
      "name": "withdrawRewardTokens",
      "outputs": [],
      "stateMutability": "nonpayable",
      "type": "function"
    },
    {
      "inputs": [
        {
          "internalType": "address[]",
          "name": "_users",
          "type": "address[]"
        },
        {
          "internalType": "bool",
          "name": "_add",
          "type": "bool"
        }
      ],
      "name": "editWhitelist",
      "outputs": [],
      "stateMutability": "nonpayable",
      "type": "function"
    },
    {
      "inputs": [],
      "name": "ownerWithdrawTokens",
      "outputs": [],
      "stateMutability": "nonpayable",
      "type": "function"
    },
    {
      "inputs": [
        {
          "internalType": "bool",
          "name": "_flag",
          "type": "bool"
        }
      ],
      "name": "setWhitelistFlag",
      "outputs": [],
      "stateMutability": "nonpayable",
      "type": "function"
    },
    {
      "inputs": [
        {
          "internalType": "uint256",
          "name": "_startTime",
          "type": "uint256"
        },
        {
          "internalType": "uint256",
          "name": "_endTime",
          "type": "uint256"
        }
      ],
      "name": "updateDuration",
      "outputs": [],
      "stateMutability": "nonpayable",
      "type": "function"
    },
    {
      "inputs": [
        {
          "internalType": "uint256",
          "name": "_maxSpend",
          "type": "uint256"
        }
      ],
      "name": "updateMaxSpendLimit",
      "outputs": [],
      "stateMutability": "nonpayable",
      "type": "function"
    },
    {
      "inputs": [],
      "name": "forceFailByPancake",
      "outputs": [],
      "stateMutability": "nonpayable",
      "type": "function"
    },
    {
      "inputs": [],
      "name": "getLaunchpadStatus",
      "outputs": [
        {
          "internalType": "uint256",
          "name": "",
          "type": "uint256"
        }
      ],
      "stateMutability": "view",
      "type": "function"
    },
    {
      "inputs": [
        {
          "internalType": "address",
          "name": "_user",
          "type": "address"
        }
      ],
      "name": "getUserWhitelistStatus",
      "outputs": [
        {
          "internalType": "bool",
          "name": "",
          "type": "bool"
        }
      ],
      "stateMutability": "view",
      "type": "function"
    },
    {
      "inputs": [
        {
          "internalType": "uint256",
          "name": "_index",
          "type": "uint256"
        }
      ],
      "name": "getWhitelistedUserAtIndex",
      "outputs": [
        {
          "internalType": "address",
          "name": "",
          "type": "address"
        }
      ],
      "stateMutability": "view",
      "type": "function"
    },
    {
      "inputs": [],
      "name": "getWhitelistedUsersLength",
      "outputs": [
        {
          "internalType": "uint256",
          "name": "",
          "type": "uint256"
        }
      ],
      "stateMutability": "view",
      "type": "function"
    }
  ],
  "bytecode": "0x6101206040523480156200001257600080fd5b5060405162002bb438038062002bb4833981810160405260a08110156200003857600080fd5b5080516020820151604083015160608401516080909401516001600055929391929091906001600160a01b038516158015906200007d57506001600160a01b03841615155b80156200009257506001600160a01b03831615155b8015620000a757506001600160a01b03821615155b8015620000bc57506001600160a01b03811615155b620000fd576040805162461bcd60e51b815260206004820152600c60248201526b5a45524f204144445245535360a01b604482015290519081900360640190fd5b6001600160601b0319606086811b821660e05285811b821660c05284811b821660a05283811b821660805282901b16610100526001600160a01b03918216949282169382169282169116612a01620001b360003980610c4e525080610abd528061142e52806116e5525080610b3052806111be52806119065250806108955280610bc25280610d0c5280610e9b5250806112da528061181e528061198b5280611a0c5280611a445280611e225250612a016000f3fe6080604052600436106101b75760003560e01c8063927ac44d116100ec578063bff75f531161008a578063e8078d9411610064578063e8078d9414610714578063e86e634014610729578063f5ab16cc1461073e578063fe8121de14610771576101b7565b8063bff75f5314610683578063c39e7dbb146106ea578063d1ab011e146106ff576101b7565b8063a94e7e80116100c6578063a94e7e801461059f578063b93ac792146105b4578063b9863a4414610627578063bba886311461066e576101b7565b8063927ac44d1461048c57806397a993aa1461053e578063a19ab1161461058a576101b7565b80634bb18e3f1161015957806376936e531161013357806376936e53146103df57806389954886146104015780638c301df81461044d5780638dd9500214610477576101b7565b80634bb18e3f146102f65780636933eb151461030b578063706b63c61461033c576101b7565b806338b903331161019557806338b903331461022d57806339848cd1146102545780633d296122146102b55780634200e4fc146102ca576101b7565b806324ef1bc7146101bc5780632ad1f1db146101e8578063370243dc14610218575b600080fd5b3480156101c857600080fd5b506101e6600480360360208110156101df57600080fd5b5035610786565b005b3480156101f457600080fd5b506101e66004803603604081101561020b57600080fd5b50803590602001356107e0565b34801561022457600080fd5b506101e6610974565b34801561023957600080fd5b50610242610aad565b60408051918252519081900360200190f35b34801561026057600080fd5b506101e6600480360360e081101561027757600080fd5b506001600160a01b0381358116916020810135821691604082013591606081013591608082013581169160a081013582169160c09091013516610ab2565b3480156102c157600080fd5b506101e6610c43565b3480156102d657600080fd5b506101e6600480360360208110156102ed57600080fd5b50351515610c87565b34801561030257600080fd5b50610242610cf8565b34801561031757600080fd5b50610320610d0a565b604080516001600160a01b039092168252519081900360200190f35b34801561034857600080fd5b50610351610d2e565b604051808f6001600160a01b031681526020018e6001600160a01b031681526020018d6001600160a01b031681526020018c81526020018b81526020018a815260200189815260200188815260200187815260200186815260200185815260200184815260200183815260200182151581526020019e50505050505050505050505050505060405180910390f35b6101e6600480360360808110156103f557600080fd5b50803590602001610d72565b34801561040d57600080fd5b50610416611186565b6040805195865260208601949094526001600160a01b03928316858501529082166060850152166080830152519081900360a00190f35b34801561045957600080fd5b506103206004803603602081101561047057600080fd5b50356111a9565b34801561048357600080fd5b506103206111bc565b34801561049857600080fd5b506101e6600480360360408110156104af57600080fd5b8101906020810181356401000000008111156104ca57600080fd5b8201836020820111156104dc57600080fd5b803590602001918460208302840111640100000000831117156104fe57600080fd5b91908080602002602001604051908101604052809392919081815260200183836020028082843760009201919091525092955050505035151590506111e0565b34801561054a57600080fd5b506105716004803603602081101561056157600080fd5b50356001600160a01b03166112bf565b6040805192835260208301919091528051918290030190f35b34801561059657600080fd5b506103206112d8565b3480156105ab57600080fd5b506101e66112fc565b3480156105c057600080fd5b506101e660048036036101608110156105d857600080fd5b506001600160a01b038135169060208101359060408101359060608101359060808101359060a08101359060c08101359060e08101359061010081013590610120810135906101400135611423565b34801561063357600080fd5b5061065a6004803603602081101561064a57600080fd5b50356001600160a01b03166114d9565b604080519115158252519081900360200190f35b34801561067a57600080fd5b506102426114e6565b34801561068f57600080fd5b50610698611579565b604080519a15158b5298151560208b0152961515898901526060890195909552608088019390935260a087019190915260c086015260e085015261010084015261012083015251908190036101400190f35b3480156106f657600080fd5b506101e66115b7565b34801561070b57600080fd5b506103206116e3565b34801561072057600080fd5b506101e6611707565b34801561073557600080fd5b506101e6611d90565b34801561074a57600080fd5b506102426004803603602081101561076157600080fd5b50356001600160a01b0316611eab565b34801561077d57600080fd5b506101e6611ebd565b6001546001600160a01b031633146107db576040805162461bcd60e51b81526020600482015260136024820152722727aa102620aaa721a42820a21027aba722a960691b604482015290519081900360640190fd5b600655565b6001546001600160a01b03163314610835576040805162461bcd60e51b81526020600482015260136024820152722727aa102620aaa721a42820a21027aba722a960691b604482015290519081900360640190fd5b61083d6114e6565b15801561084b5750600c5442105b610893576040805162461bcd60e51b81526020600482015260146024820152734c41554e4348504144204e4f542041435449564560601b604482015290519081900360640190fd5b7f00000000000000000000000000000000000000000000000000000000000000006001600160a01b031663cef6fc0b6040518163ffffffff1660e01b815260040160206040518083038186803b1580156108ec57600080fd5b505afa158015610900573d6000803e3d6000fd5b505050506040513d602081101561091657600080fd5b50516109228284611feb565b1115610969576040805162461bcd60e51b81526020600482015260116024820152704455524154494f4e20544f4f204c4f4e4760781b604482015290519081900360640190fd5b600c91909155600d55565b600260005414156109ba576040805162461bcd60e51b815260206004820152601f6024820152600080516020612967833981519152604482015290519081900360640190fd5b6002600055601454610100900460ff16610a14576040805162461bcd60e51b815260206004820152601660248201527520aba0a4aa24a7239026281023a2a722a920aa24a7a760511b604482015290519081900360640190fd5b336000908152601d602052604090205480610a6c576040805162461bcd60e51b81526020600482015260136024820152724e4f5448494e4720544f20574954484452415760681b604482015290519081900360640190fd5b601954610a799082612048565b601955336000818152601d6020526040812055600254610aa5916001600160a01b0390911690836120a9565b506001600055565b600181565b336001600160a01b037f00000000000000000000000000000000000000000000000000000000000000001614610b1b576040805162461bcd60e51b81526020600482015260096024820152682327a92124a22222a760b91b604482015290519081900360640190fd5b600e805460ff19166001600160a01b038981167f00000000000000000000000000000000000000000000000000000000000000008216811492909217909255600280548984166001600160a01b031991821617909155600380548216909217909155600f8790556010869055601180548684169083161790556012805485841690831617905560138054848416921691909117905560408051635564890b60e11b815290517f00000000000000000000000000000000000000000000000000000000000000009092169163aac9121691600481810192602092909190829003018186803b158015610c0b57600080fd5b505afa158015610c1f573d6000803e3d6000fd5b505050506040513d6020811015610c3557600080fd5b5051601b5550505050505050565b336001600160a01b037f00000000000000000000000000000000000000000000000000000000000000001614610c7857600080fd5b6014805460ff19166001179055565b6001546001600160a01b03163314610cdc576040805162461bcd60e51b81526020600482015260136024820152722727aa102620aaa721a42820a21027aba722a960691b604482015290519081900360640190fd5b60148054911515620100000262ff000019909216919091179055565b6000610d04601e612213565b90505b90565b7f000000000000000000000000000000000000000000000000000000000000000081565b600154600254600354600454600554600654600754600854600954600a54600b54600c54600d54600e546001600160a01b039d8e169d9c8d169c909b169a60ff168e565b60026000541415610db8576040805162461bcd60e51b815260206004820152601f6024820152600080516020612967833981519152604482015290519081900360640190fd5b6002600055610dc56114e6565b600114610e06576040805162461bcd60e51b815260206004820152600a6024820152694e4f542041435449564560b01b604482015290519081900360640190fd5b60145462010000900460ff1615610e6557610e22601e3361221e565b610e65576040805162461bcd60e51b815260206004820152600f60248201526e1393d50815d2125511531254d51151608a1b604482015290519081900360640190fd5b601b54600c54610e7491612048565b421015610f485760408051634a6da48160e01b815233600482015290516001600160a01b037f00000000000000000000000000000000000000000000000000000000000000001691634a6da481916024808301926020929190829003018186803b158015610ee157600080fd5b505afa158015610ef5573d6000803e3d6000fd5b505050506040513d6020811015610f0b57600080fd5b5051610f485760405162461bcd60e51b81526004018080602001828103825260218152602001806129246021913960400191505060405180910390fd5b336000908152601c60205260408120600e5490919060ff16610f6a5783610f6c565b345b8254600654919250600091610f8091611feb565b601654600854919250600091610f9591611feb565b9050808211610fa45781610fa6565b805b915081831115610fb4578192505b600554600090610fd690610fd086670de0b6b3a7640000612233565b9061228c565b90506000811161101b576040805162461bcd60e51b815260206004820152600b60248201526a5a45524f20544f4b454e5360a81b604482015290519081900360640190fd5b845461102b57601a805460010190555b84546110379085612048565b855560018501546110489082612048565b60018601556000611060612710610fd0846064612233565b905060005b60038110156110e457600088826003811061107c57fe5b60200201356001600160a01b03166001600160a01b0316146110dc5781601d60008a84600381106110a957fe5b60200201356001600160a01b03166001600160a01b03166001600160a01b03168152602001908152602001600020819055505b600101611065565b506016546110f29086612048565b60165560185461110490838301612048565b601855600e5460ff16801561111857503485105b1561115557336108fc61112b3488611feb565b6040518115909202916000818181858888f19350505050158015611153573d6000803e3d6000fd5b505b600e5460ff1661117757600354611177906001600160a01b03163330886122f3565b50506001600055505050505050565b600f546010546011546012546013546001600160a01b0392831692918216911685565b60006111b6601e83612450565b92915050565b7f000000000000000000000000000000000000000000000000000000000000000081565b6001546001600160a01b03163314611235576040805162461bcd60e51b81526020600482015260136024820152722727aa102620aaa721a42820a21027aba722a960691b604482015290519081900360640190fd5b801561127d5760005b82518110156112775761126e83828151811061125657fe5b6020026020010151601e61245c90919063ffffffff16565b5060010161123e565b506112bb565b60005b82518110156112b9576112b083828151811061129857fe5b6020026020010151601e61247190919063ffffffff16565b50600101611280565b505b5050565b601c602052600090815260409020805460019091015482565b7f000000000000000000000000000000000000000000000000000000000000000081565b6001546001600160a01b03163314611351576040805162461bcd60e51b81526020600482015260136024820152722727aa102620aaa721a42820a21027aba722a960691b604482015290519081900360640190fd5b6113596114e6565b60031461139a576040805162461bcd60e51b815260206004820152600a6024820152691393d50811905253115160b21b604482015290519081900360640190fd5b600254600154604080516370a0823160e01b81523060048201529051611421936001600160a01b0390811693169183916370a0823191602480820192602092909190829003018186803b1580156113f057600080fd5b505afa158015611404573d6000803e3d6000fd5b505050506040513d602081101561141a57600080fd5b50516120a9565b565b336001600160a01b037f0000000000000000000000000000000000000000000000000000000000000000161461148c576040805162461bcd60e51b81526020600482015260096024820152682327a92124a22222a760b91b604482015290519081900360640190fd5b600180546001600160a01b0319166001600160a01b039c909c169b909b17909a55600498909855600596909655600694909455600892909255600755600955600a55600c55600d55600b55565b60006111b6601e8361221e565b60145460009060ff16156114fc57506003610d07565b600d54421180156115105750600754601654105b1561151d57506003610d07565b6008546016541061153057506002610d07565b600d5442118015611545575060075460165410155b1561155257506002610d07565b600c5442108015906115665750600d544211155b1561157357506001610d07565b50600090565b601454601554601654601754601854601954601a54601b5460ff8089169861010081048216986201000090910490911696909590949093909290918a565b600260005414156115fd576040805162461bcd60e51b815260206004820152601f6024820152600080516020612967833981519152604482015290519081900360640190fd5b600260005561160a6114e6565b60031461164b576040805162461bcd60e51b815260206004820152600a6024820152691393d50811905253115160b21b604482015290519081900360640190fd5b336000908152601c602052604090208054806116a4576040805162461bcd60e51b81526020600482015260136024820152724e4f5448494e4720544f20574954484452415760681b604482015290519081900360640190fd5b81546017546116b291612048565b60175560008255600354600e546116da916001600160a01b0316903390849060ff1615612486565b50506001600055565b7f000000000000000000000000000000000000000000000000000000000000000081565b6002600054141561174d576040805162461bcd60e51b815260206004820152601f6024820152600080516020612967833981519152604482015290519081900360640190fd5b6002600055601454610100900460ff16156117a5576040805162461bcd60e51b815260206004820152601360248201527247454e45524154494f4e20434f4d504c45544560681b604482015290519081900360640190fd5b6117ad6114e6565b6002146117ef576040805162461bcd60e51b815260206004820152600b60248201526a4e4f54205355434345535360a81b604482015290519081900360640190fd5b6002546003546040805163b2b6d1a560e01b81526001600160a01b0393841660048201529183166024830152517f00000000000000000000000000000000000000000000000000000000000000009092169163b2b6d1a591604480820192602092909190829003018186803b15801561186757600080fd5b505afa15801561187b573d6000803e3d6000fd5b505050506040513d602081101561189157600080fd5b5051156118aa576014805460ff19166001179055611d89565b600f546016546000916118c5916103e891610fd09190612233565b905060006118f66103e8610fd06001600801546118f086601460020154611feb90919063ffffffff16565b90612233565b600e5490915060ff1615611979577f00000000000000000000000000000000000000000000000000000000000000006001600160a01b031663d0e30db0826040518263ffffffff1660e01b81526004016000604051808303818588803b15801561195f57600080fd5b505af1158015611973573d6000803e3d6000fd5b50505050505b6003546119b0906001600160a01b03167f000000000000000000000000000000000000000000000000000000000000000083612630565b600f546018546000916119cb916103e891610fd09190612233565b600954600a546018549293506000926119f792620186a092610fd0926118f09160640390829089611feb565b600254909150611a31906001600160a01b03167f000000000000000000000000000000000000000000000000000000000000000083612630565b600354600254600b546001600160a01b037f0000000000000000000000000000000000000000000000000000000000000000811693632277d0e3939082169291169087908690611a82904290612048565b600154604080516001600160e01b031960e08a901b1681526001600160a01b03978816600482015295871660248701526044860194909452606485019290925260848401529290921660a4820152905160c480830192600092919082900301818387803b158015611af257600080fd5b505af1158015611b06573d6000803e3d6000fd5b50506013546001600160a01b0316159150611bc39050576000611b3d6103e8610fd0600f600101548861223390919063ffffffff16565b600354601354600e54929350611b68926001600160a01b039283169290911690849060ff1615612486565b611b728582611feb565b94506000611b946103e8610fd0600f600101548761223390919063ffffffff16565b600254601354919250611bb4916001600160a01b039182169116836120a9565b611bbe8482611feb565b935050505b600354601154600e54611be9926001600160a01b03908116921690879060ff1615612486565b600254601254611c06916001600160a01b039081169116846120a9565b600254604080516370a0823160e01b815230600482015290516000926001600160a01b0316916370a08231916024808301926020929190829003018186803b158015611c5157600080fd5b505afa158015611c65573d6000803e3d6000fd5b505050506040513d6020811015611c7b57600080fd5b5051601854909150811115611cb957601854600090611c9b908390611feb565b600254909150611cb7906001600160a01b031661dead836120a9565b505b600e5460009060ff16611d4257600354604080516370a0823160e01b815230600482015290516001600160a01b03909216916370a0823191602480820192602092909190829003018186803b158015611d1157600080fd5b505afa158015611d25573d6000803e3d6000fd5b505050506040513d6020811015611d3b57600080fd5b5051611d44565b475b600354600154600e54929350611d6f926001600160a01b039283169290911690849060ff1615612486565b50506014805461ff00191661010017905550504260155550505b6001600055565b601454610100900460ff16158015611dab575060145460ff16155b611df3576040805162461bcd60e51b81526020600482015260146024820152734c41554e4348504144204e4f542041435449564560601b604482015290519081900360640190fd5b6002546003546040805163b2b6d1a560e01b81526001600160a01b0393841660048201529183166024830152517f00000000000000000000000000000000000000000000000000000000000000009092169163b2b6d1a591604480820192602092909190829003018186803b158015611e6b57600080fd5b505afa158015611e7f573d6000803e3d6000fd5b505050506040513d6020811015611e9557600080fd5b505115611421576014805460ff19166001179055565b601d6020526000908152604090205481565b60026000541415611f03576040805162461bcd60e51b815260206004820152601f6024820152600080516020612967833981519152604482015290519081900360640190fd5b6002600055601454610100900460ff16611f5d576040805162461bcd60e51b815260206004820152601660248201527520aba0a4aa24a7239026281023a2a722a920aa24a7a760511b604482015290519081900360640190fd5b336000908152601c60205260409020600181015480611fb9576040805162461bcd60e51b81526020600482015260136024820152724e4f5448494e4720544f20574954484452415760681b604482015290519081900360640190fd5b6001820154601954611fca91612048565b601955600060018301556002546116da906001600160a01b031633836120a9565b600082821115612042576040805162461bcd60e51b815260206004820152601e60248201527f536166654d6174683a207375627472616374696f6e206f766572666c6f770000604482015290519081900360640190fd5b50900390565b6000828201838110156120a2576040805162461bcd60e51b815260206004820152601b60248201527f536166654d6174683a206164646974696f6e206f766572666c6f770000000000604482015290519081900360640190fd5b9392505050565b604080516001600160a01b038481166024830152604480830185905283518084039091018152606490920183526020820180516001600160e01b031663a9059cbb60e01b178152925182516000946060949389169392918291908083835b602083106121265780518252601f199092019160209182019101612107565b6001836020036101000a0380198251168184511680821785525050505050509050019150506000604051808303816000865af19150503d8060008114612188576040519150601f19603f3d011682016040523d82523d6000602084013e61218d565b606091505b50915091508180156121bb5750805115806121bb57508080602001905160208110156121b857600080fd5b50515b61220c576040805162461bcd60e51b815260206004820152601f60248201527f5472616e7366657248656c7065723a205452414e534645525f4641494c454400604482015290519081900360640190fd5b5050505050565b60006111b682612793565b60006120a2836001600160a01b038416612797565b600082612242575060006111b6565b8282028284828161224f57fe5b04146120a25760405162461bcd60e51b81526004018080602001828103825260218152602001806129876021913960400191505060405180910390fd5b60008082116122e2576040805162461bcd60e51b815260206004820152601a60248201527f536166654d6174683a206469766973696f6e206279207a65726f000000000000604482015290519081900360640190fd5b8183816122eb57fe5b049392505050565b604080516001600160a01b0385811660248301528481166044830152606480830185905283518084039091018152608490920183526020820180516001600160e01b03166323b872dd60e01b17815292518251600094606094938a169392918291908083835b602083106123785780518252601f199092019160209182019101612359565b6001836020036101000a0380198251168184511680821785525050505050509050019150506000604051808303816000865af19150503d80600081146123da576040519150601f19603f3d011682016040523d82523d6000602084013e6123df565b606091505b509150915081801561240d57508051158061240d575080806020019051602081101561240a57600080fd5b50515b6124485760405162461bcd60e51b81526004018080602001828103825260248152602001806129a86024913960400191505060405180910390fd5b505050505050565b60006120a283836127af565b60006120a2836001600160a01b038416612813565b60006120a2836001600160a01b03841661285d565b806124c7576040516001600160a01b0384169083156108fc029084906000818181858888f193505050501580156124c1573d6000803e3d6000fd5b5061262a565b604080516001600160a01b038581166024830152604480830186905283518084039091018152606490920183526020820180516001600160e01b031663a9059cbb60e01b17815292518251600094606094938a169392918291908083835b602083106125445780518252601f199092019160209182019101612525565b6001836020036101000a0380198251168184511680821785525050505050509050019150506000604051808303816000865af19150503d80600081146125a6576040519150601f19603f3d011682016040523d82523d6000602084013e6125ab565b606091505b50915091508180156125d95750805115806125d957508080602001905160208110156125d657600080fd5b50515b612448576040805162461bcd60e51b815260206004820152601f60248201527f5472616e7366657248656c7065723a205452414e534645525f4641494c454400604482015290519081900360640190fd5b50505050565b604080516001600160a01b038481166024830152604480830185905283518084039091018152606490920183526020820180516001600160e01b031663095ea7b360e01b178152925182516000946060949389169392918291908083835b602083106126ad5780518252601f19909201916020918201910161268e565b6001836020036101000a0380198251168184511680821785525050505050509050019150506000604051808303816000865af19150503d806000811461270f576040519150601f19603f3d011682016040523d82523d6000602084013e612714565b606091505b5091509150818015612742575080511580612742575080806020019051602081101561273f57600080fd5b50515b61220c576040805162461bcd60e51b815260206004820152601e60248201527f5472616e7366657248656c7065723a20415050524f56455f4641494c45440000604482015290519081900360640190fd5b5490565b60009081526001919091016020526040902054151590565b815460009082106127f15760405162461bcd60e51b81526004018080602001828103825260228152602001806129456022913960400191505060405180910390fd5b82600001828154811061280057fe5b9060005260206000200154905092915050565b600061281f8383612797565b612855575081546001818101845560008481526020808220909301849055845484825282860190935260409020919091556111b6565b5060006111b6565b60008181526001830160205260408120548015612919578354600019808301919081019060009087908390811061289057fe5b90600052602060002001549050808760000184815481106128ad57fe5b6000918252602080832090910192909255828152600189810190925260409020908401905586548790806128dd57fe5b600190038181906000526020600020016000905590558660010160008781526020019081526020016000206000905560019450505050506111b6565b60009150506111b656fe494e535546464943454e5420524f554e44203120544f4b454e2042414c414e4345456e756d657261626c655365743a20696e646578206f7574206f6620626f756e64735265656e7472616e637947756172643a207265656e7472616e742063616c6c00536166654d6174683a206d756c7469706c69636174696f6e206f766572666c6f775472616e7366657248656c7065723a205452414e534645525f46524f4d5f4641494c4544a2646970667358221220263a0c6ee0ea0c5db996e6670fc65e6ce2d76fc0594a1d4eedfd0479637a84aa64736f6c634300060c0033",
  "immutableReferences": {
    "1193": [
      {
        "length": 32,
        "start": 4826
      },
      {
        "length": 32,
        "start": 6174
      },
      {
        "length": 32,
        "start": 6539
      },
      {
        "length": 32,
        "start": 6668
      },
      {
        "length": 32,
        "start": 6724
      },
      {
        "length": 32,
        "start": 7714
      }
    ],
    "1195": [
      {
        "length": 32,
        "start": 2197
      },
      {
        "length": 32,
        "start": 3010
      },
      {
        "length": 32,
        "start": 3340
      },
      {
        "length": 32,
        "start": 3739
      }
    ],
    "1197": [
      {
        "length": 32,
        "start": 2864
      },
      {
        "length": 32,
        "start": 4542
      },
      {
        "length": 32,
        "start": 6406
      }
    ],
    "1199": [
      {
        "length": 32,
        "start": 2749
      },
      {
        "length": 32,
        "start": 5166
      },
      {
        "length": 32,
        "start": 5861
      }
    ],
    "1201": [
      {
        "length": 32,
        "start": 3150
      }
    ]
  },
  "source": "// SPDX-License-Identifier: MIT\n\n/**\n * @title Launchpad of Pancake launchpad enviroment\n * @dev This contract represents a launchpad. A launchpad can be created and initilized by a\n * launchpad generator. Users can deposit base token if the launchpad is active and get an\n * amount of sale token in raltion to the token price. The sale tokens can be withdrawn if the\n * the launchpad is successful. Otherwise the users and the launchpad owner get back their\n * vested tokens. On launchpad success a pancakeswap liquidity pair will be created and the\n * specified amount of liquidity will be locked in pancake locker contract.\n */\n\npragma solidity 0.6.12;\n\nimport \"@openzeppelin/contracts/utils/EnumerableSet.sol\";\nimport \"@openzeppelin/contracts/math/SafeMath.sol\";\nimport \"@openzeppelin/contracts/utils/ReentrancyGuard.sol\";\nimport \"@openzeppelin/contracts/token/ERC20/IERC20.sol\";\nimport \"../interfaces/IERC20Meta.sol\";\nimport \"../interfaces/ILaunchpadLockForwarder.sol\";\nimport \"../interfaces/ILaunchpadSettings.sol\";\nimport \"../interfaces/IWBNB.sol\";\nimport \"./TransferHelper.sol\";\n\ncontract Launchpad is ReentrancyGuard {\n    using SafeMath for uint256;\n    using EnumerableSet for EnumerableSet.AddressSet;\n\n    uint256 public constant CONTRACT_VERSION = 1;\n\n    /*---------------------------------------------------------------------------------------------\n     * ------------------------------------Structs definitions-------------------------------------\n     */\n\n    // struct holding accounting information about a buyer\n    struct BuyerInfo {\n        uint256 baseDeposited; // amount of deposited base tokens\n        uint256 tokensOwed; // amount of owed sale tokens\n    }\n\n    // struct holding information about the fees during the ilo\n    struct LaunchpadFeeInfo {\n        uint256 pancakeTokenFee; // fee on adding liquidity calculated on sale token (in parts per 1000)\n        uint256 referralFee; // fee on adding liquidity calculated on baseFee and token fee (in parts per 1000)\n        address payable baseFeeAddress; // address receiving base token fee amount\n        address payable tokenFeeAddress; // address receiving sale token fee amount\n        address payable referralFeeAddress; // address receiving referral fee amount in base and sale token\n    }\n\n    // struct holding information about the launchpad\n    struct LaunchpadInfo {\n        address payable launchpadOwner; // the owner address of the launchpad\n        IERC20 sToken; // token to be sold in the launchpad (sale token)\n        IERC20Meta bToken; // token to purchase the sale token (base token)\n        uint256 amount; // min 10 000\n        uint256 tokenPrice; // the amount of sale tokens received for one base token\n        uint256 maxSpendPerBuyer; // the maximum amount to be spent by a specific buyer\n        uint256 softCap; // minimum sold amount reached at end time for successful ilo\n        uint256 hardcap; // amount to be reached for successful ilo\n        uint256 liquidityPercentage; // min 250(=25%) max 1000(=100%)\n        uint256 listingRate; // listing price of sale token on pancakeswap\n        uint256 lockPeriod; // duration of the token lock in seconds (min 1 year)\n        uint256 startTime; // the timestamp to start the launchpad\n        uint256 endTime; // the timestamp to end the launchpad (max length of settings contract must be met)\n        bool isBNB; // if the base token is native currency\n    }\n\n    // struct with information about the current launchpad status\n    struct LaunchpadStatus {\n        bool forceFailed; // if the ilo failed (is invalid)\n        bool lpGenerationComplete; // if the lp generation was successful\n        bool whitelistOnly; // allow deposits only for whitelisted users\n        uint256 lpGenerationTimestamp; // set to block.timestamp when lpGenerationComplete is set to true\n        uint256 totalBaseCollected; // tracks total collected amount of base tokens\n        uint256 totalBaseWithdrawn; // tracks withdraws base tokens after failed ilo\n        uint256 totalTokensSold; // tracks the total sold sale tokens\n        uint256 totalTokensWithdrawn; // tracks withdraws sale tokens after successful ilo\n        uint256 numBuyers; // total number of sale token buyers\n        uint256 round1Length; // the length of round 1 in seconds\n    }\n\n    /*---------------------------------------------------------------------------------------------\n     * --------------------------------------Global Variables--------------------------------------\n     */\n    // struct variables holding launchpad information\n    LaunchpadInfo public launchpadInfo;\n    LaunchpadFeeInfo public launchpadFeeInfo;\n    LaunchpadStatus public launchpadStatus;\n\n    // interface variables\n    ILaunchpadLockForwarder public immutable launchpadLockForwarder;\n    ILaunchpadSettings public immutable launchpadSettings;\n    IWBNB public immutable WBNB;\n\n    // addresses used for access control\n    address public immutable LAUNCHPAD_GENERATOR;\n    address immutable KINKO_DEV;\n\n    // variables holding information about users\n    mapping(address => BuyerInfo) public buyers;\n    mapping(address => uint256) public rewardTokens;\n\n    EnumerableSet.AddressSet private whitelist;\n\n    /*---------------------------------------------------------------------------------------------\n     * ------------------------------------Initilize functions-------------------------------------\n     */\n\n    /**\n     * @dev sets initially contract dependend addresses\n     * @param _launchpadGenerator address of the launchpad generator\n     * @param _wbnb address of the wrapped bnb contract\n     * @param _launchpadSettings address of the settings contract\n     * @param _launchpadLockForwarder address of LanchpadLockForwarder contract\n     * @param _pancakeDev address of the developer account\n     */\n    constructor(\n        address _launchpadGenerator,\n        address _wbnb,\n        address _launchpadSettings,\n        address _launchpadLockForwarder,\n        address _pancakeDev\n    ) public {\n        require(\n            _launchpadGenerator != address(0) &&\n                _wbnb != address(0) &&\n                _launchpadSettings != address(0) &&\n                _launchpadLockForwarder != address(0) &&\n                _pancakeDev != address(0),\n            \"ZERO ADDRESS\"\n        );\n        LAUNCHPAD_GENERATOR = _launchpadGenerator;\n        WBNB = IWBNB(_wbnb);\n        launchpadSettings = ILaunchpadSettings(_launchpadSettings);\n        launchpadLockForwarder = ILaunchpadLockForwarder(\n            _launchpadLockForwarder\n        );\n        KINKO_DEV = _pancakeDev;\n    }\n\n    /**\n     * @notice first initilize function sets launchpad information by the launchpad generator\n     * @dev this function can only be called by the launchpad generator\n     * @param _launchpadOwner the owner address of the launchpad\n     * @param _amount the total amount of sale tokens (min 10 000)\n     * @param _tokenPrice the amount of sale tokens for one base token\n     * @param _maxSpendPerBuyer the total amount of base token a specific buyer can spend\n     * @param _hardcap the maximum amount of tokens to be reached for success\n     * @param _softcap the minumum amount of tokens to be reached until end time for success\n     * @param _liquidityPercent the percent of locked liquidity in parts per 1000 (min 250)\n     * @param _listingRate the listing rate on pancakeswap\n     * @param _startTime the timestamp to start launchpad\n     * @param _endTime the timestamp of the launchpad end\n     * @param _lockPeriod the duration of the locking period in seconds\n     */\n    function init1(\n        address payable _launchpadOwner,\n        uint256 _amount,\n        uint256 _tokenPrice,\n        uint256 _maxSpendPerBuyer,\n        uint256 _hardcap,\n        uint256 _softcap,\n        uint256 _liquidityPercent,\n        uint256 _listingRate,\n        uint256 _startTime,\n        uint256 _endTime,\n        uint256 _lockPeriod\n    ) external {\n        require(msg.sender == LAUNCHPAD_GENERATOR, \"FORBIDDEN\");\n        launchpadInfo.launchpadOwner = _launchpadOwner;\n        launchpadInfo.amount = _amount;\n        launchpadInfo.tokenPrice = _tokenPrice;\n        launchpadInfo.maxSpendPerBuyer = _maxSpendPerBuyer;\n        launchpadInfo.hardcap = _hardcap;\n        launchpadInfo.softCap = _softcap;\n        launchpadInfo.liquidityPercentage = _liquidityPercent;\n        launchpadInfo.listingRate = _listingRate;\n        launchpadInfo.startTime = _startTime;\n        launchpadInfo.endTime = _endTime;\n        launchpadInfo.lockPeriod = _lockPeriod;\n    }\n\n    /**\n     * @notice second initilize function sets launchpad information by the launchpad generator\n     * @dev this function can only be called by the launchpad generator\n     * @param _baseToken the token to purchase the sale token\n     * @param _launchpadToken the token to be sold in the launchpad (sale token)\n     * @param _pancakeTokenFee the fee on the sale token by adding liquidity in parts per 1000\n     * @param _referralFee the fee calculated on base fee an token fee in parts per 1000\n     * @param _baseFeeAddress the receiver of the base token fee amount\n     * @param _tokenFeeAddress the receiver of the sale token fee amount\n     * @param _referralAddress the receiver of the sale and base token referral fee amounts\n     */\n    function init2(\n        IERC20Meta _baseToken,\n        IERC20 _launchpadToken,\n        uint256 _pancakeTokenFee,\n        uint256 _referralFee,\n        address payable _baseFeeAddress,\n        address payable _tokenFeeAddress,\n        address payable _referralAddress\n    ) external {\n        require(msg.sender == LAUNCHPAD_GENERATOR, \"FORBIDDEN\");\n\n        launchpadInfo.isBNB = address(_baseToken) == address(WBNB);\n        launchpadInfo.sToken = _launchpadToken;\n        launchpadInfo.bToken = _baseToken;\n        launchpadFeeInfo.pancakeTokenFee = _pancakeTokenFee;\n        launchpadFeeInfo.referralFee = _referralFee;\n\n        launchpadFeeInfo.baseFeeAddress = _baseFeeAddress;\n        launchpadFeeInfo.tokenFeeAddress = _tokenFeeAddress;\n        launchpadFeeInfo.referralFeeAddress = _referralAddress;\n        launchpadStatus.round1Length = launchpadSettings.getRound1Length();\n    }\n\n    /*---------------------------------------------------------------------------------------------\n     * -----------------------------------External user functions----------------------------------\n     */\n    /**\n     * @notice has to be called after the launchpad was successful to end the launchpad.\n     * @dev it creates a liquidity pair, locks liquidty and enables the withdraw of users sale tokens.\n     */\n    function addLiquidity() external nonReentrant {\n        require(!launchpadStatus.lpGenerationComplete, \"GENERATION COMPLETE\");\n        require(getLaunchpadStatus() == 2, \"NOT SUCCESS\");\n\n        // abort the launch and set launchpad to failed if a pair already exists on pancakeswap\n        if (\n            launchpadLockForwarder.pancakeswapPairIsInitialised(\n                address(launchpadInfo.sToken),\n                address(launchpadInfo.bToken)\n            )\n        ) {\n            launchpadStatus.forceFailed = true;\n            return;\n        }\n\n        // calculate eneryFi fee on base token\n        uint256 pancakeBaseFee = launchpadStatus\n            .totalBaseCollected\n            .mul(launchpadFeeInfo.pancakeTokenFee)\n            .div(1000);\n\n        // calculate liquidity amount of base token\n        uint256 baseLiquidity = launchpadStatus\n            .totalBaseCollected\n            .sub(pancakeBaseFee)\n            .mul(launchpadInfo.liquidityPercentage)\n            .div(1000);\n\n        // wrap BNB if base token is BNB\n        if (launchpadInfo.isBNB) {\n            WBNB.deposit{value: baseLiquidity}();\n        }\n\n        // approve lock forwarder with base token liquidity amount\n        TransferHelper.safeApprove(\n            address(launchpadInfo.bToken),\n            address(launchpadLockForwarder),\n            baseLiquidity\n        );\n\n        // calculate pancake sale token fee amount\n        uint256 pancakeTokenFee = launchpadStatus\n            .totalTokensSold\n            .mul(launchpadFeeInfo.pancakeTokenFee)\n            .div(1000);\n\n        // calculate equivalent sale token liquidity amount\n        uint256 tokenLiquidity = launchpadStatus\n            .totalTokensSold\n            .sub(pancakeTokenFee)\n            .mul(100 - launchpadInfo.listingRate)\n            .mul(launchpadInfo.liquidityPercentage)\n            .div(100000);\n\n        // approve lock forwarder with sale token liquidity amount\n        TransferHelper.safeApprove(\n            address(launchpadInfo.sToken),\n            address(launchpadLockForwarder),\n            tokenLiquidity\n        );\n\n        // create liquidity pool and lock liquidity\n        launchpadLockForwarder.lockLiquidity(\n            launchpadInfo.bToken,\n            launchpadInfo.sToken,\n            baseLiquidity,\n            tokenLiquidity,\n            block.timestamp.add(launchpadInfo.lockPeriod),\n            launchpadInfo.launchpadOwner\n        );\n\n        // calculate referral fee on pancake base fee and kinko token fee\n        if (launchpadFeeInfo.referralFeeAddress != address(0)) {\n            // calculate base token referral fee\n            uint256 referralBaseFee = pancakeBaseFee\n                .mul(launchpadFeeInfo.referralFee)\n                .div(1000);\n            // send base token referral fee to referral receiver address\n            TransferHelper.safeTransferBaseToken(\n                address(launchpadInfo.bToken),\n                launchpadFeeInfo.referralFeeAddress,\n                referralBaseFee,\n                !launchpadInfo.isBNB\n            );\n            pancakeBaseFee = pancakeBaseFee.sub(referralBaseFee);\n\n            // calculate sale token referral fee\n            uint256 referralTokenFee = pancakeTokenFee\n                .mul(launchpadFeeInfo.referralFee)\n                .div(1000);\n            // send sale token referral fee to referral receiver address\n            TransferHelper.safeTransfer(\n                address(launchpadInfo.sToken),\n                launchpadFeeInfo.referralFeeAddress,\n                referralTokenFee\n            );\n            pancakeTokenFee = pancakeTokenFee.sub(referralTokenFee);\n        }\n        // transfer pancake base token fee to base token fee receiver\n        TransferHelper.safeTransferBaseToken(\n            address(launchpadInfo.bToken),\n            launchpadFeeInfo.baseFeeAddress,\n            pancakeBaseFee,\n            !launchpadInfo.isBNB\n        );\n        // transfer pancake sale token fee to sale token fee receiver\n        TransferHelper.safeTransfer(\n            address(launchpadInfo.sToken),\n            launchpadFeeInfo.tokenFeeAddress,\n            pancakeTokenFee\n        );\n\n        uint256 remainingSBalance = launchpadInfo.sToken.balanceOf(\n            address(this)\n        );\n\n        // burn unsold amount of sale tokens\n        if (remainingSBalance > launchpadStatus.totalTokensSold) {\n            uint256 burnAmount = remainingSBalance.sub(\n                launchpadStatus.totalTokensSold\n            );\n            TransferHelper.safeTransfer(\n                address(launchpadInfo.sToken),\n                0x000000000000000000000000000000000000dEaD,\n                burnAmount\n            );\n        }\n\n        // send remaining base token balance to launchpad owner\n        uint256 remainingBaseBalance = launchpadInfo.isBNB\n            ? address(this).balance\n            : launchpadInfo.bToken.balanceOf(address(this));\n        TransferHelper.safeTransferBaseToken(\n            address(launchpadInfo.bToken),\n            launchpadInfo.launchpadOwner,\n            remainingBaseBalance,\n            !launchpadInfo.isBNB\n        );\n\n        // end launchpad by setting pair generation to true\n        launchpadStatus.lpGenerationComplete = true;\n        launchpadStatus.lpGenerationTimestamp = block.timestamp;\n    }\n\n    /**\n     * @notice set the status of the launchpad to failed, if a the liquidity pair exists on\n     * pancakeswap before the launchpad is successfully finished\n     * @dev this function can be called by anyone and requires the launchpad to be active\n     */\n    function forceFailIfPairExists() external {\n        require(\n            !launchpadStatus.lpGenerationComplete &&\n                !launchpadStatus.forceFailed,\n            \"LAUNCHPAD NOT ACTIVE\"\n        );\n        if (\n            launchpadLockForwarder.pancakeswapPairIsInitialised(\n                address(launchpadInfo.sToken),\n                address(launchpadInfo.bToken)\n            )\n        ) {\n            launchpadStatus.forceFailed = true;\n        }\n    }\n\n    /**\n     * @notice deposits the given amount of base tokens and calculates the equivalent amount\n     * of sale tokens owed by the caller.\n     * @dev this function uses msg.value and ignores _amount param for BNB as base token.\n     * The correct amount is required for ERC20 base tokens\n     * @param _amount the amount of base token to deposit\n     */\n    function userDeposit(uint256 _amount, address[3] calldata _refferAddresses)\n        external\n        payable\n        nonReentrant\n    {\n        require(getLaunchpadStatus() == 1, \"NOT ACTIVE\");\n\n        // check for whitelisted auction\n        if (launchpadStatus.whitelistOnly) {\n            require(whitelist.contains(msg.sender), \"NOT WHITELISTED\");\n        }\n\n        // check if token balance for round 1 deposit is met\n        // round 1 deposits require the user to hold a specific token and balance\n        if (\n            block.timestamp <\n            launchpadInfo.startTime.add(launchpadStatus.round1Length)\n        ) {\n            require(\n                launchpadSettings.userHoldsSufficientRound1Token(msg.sender),\n                \"INSUFFICENT ROUND 1 TOKEN BALANCE\"\n            );\n        }\n\n        // check if user is allowed to spend the desired token and calculate max amount\n        BuyerInfo storage buyer = buyers[msg.sender];\n        uint256 amount_in = launchpadInfo.isBNB ? msg.value : _amount;\n        uint256 allowance = launchpadInfo.maxSpendPerBuyer.sub(\n            buyer.baseDeposited\n        );\n        uint256 remaining = launchpadInfo.hardcap.sub(\n            launchpadStatus.totalBaseCollected\n        );\n        allowance = allowance > remaining ? remaining : allowance;\n        if (amount_in > allowance) {\n            amount_in = allowance;\n        }\n\n        // calculate amount of sale token for deposit\n        uint256 tokensSold = amount_in.mul(10**18).div(\n            launchpadInfo.tokenPrice\n        );\n        require(tokensSold > 0, \"ZERO TOKENS\");\n\n        // increase total number of buyers\n        if (buyer.baseDeposited == 0) {\n            launchpadStatus.numBuyers++;\n        }\n\n        // update buyer token information\n        buyer.baseDeposited = buyer.baseDeposited.add(amount_in);\n        buyer.tokensOwed = buyer.tokensOwed.add(tokensSold);\n\n        //  calculate and add reward for lauchpad prompts\n        uint256 reward = tokensSold.mul(100).div(10000);\n        for (uint256 i = 0; i < 3; i++) {\n\n            if (_refferAddresses[i] != address(0)) {\n                rewardTokens[_refferAddresses[i]] = reward;\n            }\n        }\n\n        // update launchpad token information\n        launchpadStatus.totalBaseCollected = launchpadStatus\n            .totalBaseCollected\n            .add(amount_in);\n        launchpadStatus.totalTokensSold = launchpadStatus.totalTokensSold.add(\n            tokensSold+reward\n        );\n\n        // transfer unused BNB back to user if base token is BNB\n        if (launchpadInfo.isBNB && amount_in < msg.value) {\n            msg.sender.transfer(msg.value.sub(amount_in));\n        }\n\n        // transfer non BNB base token to launchpad\n        if (!launchpadInfo.isBNB) {\n            TransferHelper.safeTransferFrom(\n                address(launchpadInfo.bToken),\n                msg.sender,\n                address(this),\n                amount_in\n            );\n        }\n    }\n\n    /**\n     * @notice withdraws deposited base tokens of the caller if the launchpad failed\n     */\n    function userWithdrawBaseTokens() external nonReentrant {\n        require(getLaunchpadStatus() == 3, \"NOT FAILED\");\n\n        // calculate user base tokens to be withdrawn\n        BuyerInfo storage buyer = buyers[msg.sender];\n        uint256 baseDeposited = buyer.baseDeposited;\n        require(baseDeposited > 0, \"NOTHING TO WITHDRAW\");\n\n        // update deposited tokens value\n        launchpadStatus.totalBaseWithdrawn = launchpadStatus\n            .totalBaseWithdrawn\n            .add(buyer.baseDeposited);\n        buyer.baseDeposited = 0;\n\n        // tranfer base token back to the depositor\n        TransferHelper.safeTransferBaseToken(\n            address(launchpadInfo.bToken),\n            msg.sender,\n            baseDeposited,\n            !launchpadInfo.isBNB\n        );\n    }\n\n    /**\n     * @notice withdraws users sale token amount if the launchpad was successful and the\n     * liquidity pool creation is completed.\n     */\n    function userWithdrawTokens() external nonReentrant {\n        require(launchpadStatus.lpGenerationComplete, \"AWAITING LP GENERATION\");\n\n        // get sale tokens amount to withdraw\n        BuyerInfo storage buyer = buyers[msg.sender];\n        uint256 tokensOwed = buyer.tokensOwed;\n        require(tokensOwed > 0, \"NOTHING TO WITHDRAW\");\n        \n\n\n\n        // update withdrawn sale token amount\n        launchpadStatus.totalTokensWithdrawn = launchpadStatus\n            .totalTokensWithdrawn\n            .add(buyer.tokensOwed);\n        buyer.tokensOwed = 0;\n\n        // transfer sale token to function caller\n        TransferHelper.safeTransfer(\n            address(launchpadInfo.sToken),\n            msg.sender,\n            tokensOwed\n        );\n    }\n\n    function withdrawRewardTokens()external nonReentrant {\n        require(launchpadStatus.lpGenerationComplete, \"AWAITING LP GENERATION\");\n\n        // get sale tokens amount to withdraw\n        uint256 reward = rewardTokens[msg.sender];\n        require(reward > 0, \"NOTHING TO WITHDRAW\");\n        \n        // update withdrawn sale token amount\n        launchpadStatus.totalTokensWithdrawn = launchpadStatus\n            .totalTokensWithdrawn\n            .add(reward);\n            rewardTokens[msg.sender] = 0;\n\n        // transfer sale token to function caller\n        TransferHelper.safeTransfer(\n            address(launchpadInfo.sToken),\n            msg.sender,\n            reward\n        );\n    }\n\n    /*---------------------------------------------------------------------------------------------\n     * ------------------------------------Only Owner functions------------------------------------\n     */\n    modifier onlyLaunchpadOwner() {\n        require(\n            launchpadInfo.launchpadOwner == msg.sender,\n            \"NOT LAUNCHPAD OWNER\"\n        );\n        _;\n    }\n\n    /**\n     * @notice update the whitelisted users by owner. Users can be added to or removed from whitelist\n     * @param _users array of user addresses to be added to or removed from whitelist\n     * @param _add indicating if the given user(s) should be added to(=true) or removed from (=false) whitelist\n     */\n    function editWhitelist(address[] memory _users, bool _add)\n        external\n        onlyLaunchpadOwner\n    {\n        if (_add) {\n            for (uint256 i = 0; i < _users.length; i++) {\n                whitelist.add(_users[i]);\n            }\n        } else {\n            for (uint256 i = 0; i < _users.length; i++) {\n                whitelist.remove(_users[i]);\n            }\n        }\n    }\n\n    /**\n     * @notice withdraws all sale tokens by launchpad owner if the launchpad failed\n     * the sale tokens are sent to the launchpad owner address\n     */\n    function ownerWithdrawTokens() external onlyLaunchpadOwner {\n        require(getLaunchpadStatus() == 3, \"NOT FAILED\");\n        TransferHelper.safeTransfer(\n            address(launchpadInfo.sToken),\n            launchpadInfo.launchpadOwner,\n            launchpadInfo.sToken.balanceOf(address(this))\n        );\n    }\n\n    /**\n     * @notice sets if the launchpad is only for whitelisted users by launchpad owner\n     */\n    function setWhitelistFlag(bool _flag) external onlyLaunchpadOwner {\n        launchpadStatus.whitelistOnly = _flag;\n    }\n\n    /**\n     * @notice updates the start and end time of the launchpad by launchpad owner\n     */\n    function updateDuration(uint256 _startTime, uint256 _endTime)\n        external\n        onlyLaunchpadOwner\n    {\n        require(\n            getLaunchpadStatus() == 0 &&\n                launchpadInfo.startTime > block.timestamp,\n            \"LAUNCHPAD NOT ACTIVE\"\n        );\n        require(\n            _endTime.sub(_startTime) <=\n                launchpadSettings.getMaxLaunchpadLength(),\n            \"DURATION TOO LONG\"\n        );\n        launchpadInfo.startTime = _startTime;\n        launchpadInfo.endTime = _endTime;\n    }\n\n    /**\n     * @notice updates the limit a single user can spend on the launchpad\n     */\n    function updateMaxSpendLimit(uint256 _maxSpend)\n        external\n        onlyLaunchpadOwner\n    {\n        launchpadInfo.maxSpendPerBuyer = _maxSpend;\n    }\n\n    /*---------------------------------------------------------------------------------------------\n     * ---------------------------------Only Pancake Dev functions--------------------------------\n     */\n    /**\n     * @notice enegyFi developers can force a fail in case of an unintended behaviour\n     * @dev security function to ensure the launchpad can be cancelled at any time to unlock funds\n     */\n    function forceFailByPancake() external {\n        require(msg.sender == KINKO_DEV);\n        launchpadStatus.forceFailed = true;\n    }\n\n    /*---------------------------------------------------------------------------------------------\n     * --------------------------------------Getter functions--------------------------------------\n     */\n    /**\n     * @notice returns the current status of the launchpad\n     */\n    function getLaunchpadStatus() public view returns (uint256) {\n        if (launchpadStatus.forceFailed) {\n            return 3; // launchpad failed\n        }\n        if (\n            (block.timestamp > launchpadInfo.endTime) &&\n            (launchpadStatus.totalBaseCollected < launchpadInfo.softCap)\n        ) {\n            return 3; // launchpad failed - softcap not met\n        }\n        if (launchpadStatus.totalBaseCollected >= launchpadInfo.hardcap) {\n            return 2; // launchpad successful - hardcap met\n        }\n        if (\n            (block.timestamp > launchpadInfo.endTime) &&\n            (launchpadStatus.totalBaseCollected >= launchpadInfo.softCap)\n        ) {\n            return 2; // launchpad successful - softcap met\n        }\n        if (\n            (block.timestamp >= launchpadInfo.startTime) &&\n            (block.timestamp <= launchpadInfo.endTime)\n        ) {\n            return 1; // launchpad active\n        }\n        return 0; // launchpad not active yet\n    }\n\n    /**\n     * @notice returns if a user if whitelisted\n     * @param _user address of the user to be checked\n     */\n    function getUserWhitelistStatus(address _user)\n        external\n        view\n        returns (bool)\n    {\n        return whitelist.contains(_user);\n    }\n\n    /**\n     * @notice returns the users address at the given whitelist index\n     * @param _index whitelist index\n     */\n    function getWhitelistedUserAtIndex(uint256 _index)\n        external\n        view\n        returns (address)\n    {\n        return whitelist.at(_index);\n    }\n\n    /**\n     * @notice returns the total number of whitelisted users\n     */\n    function getWhitelistedUsersLength() external view returns (uint256) {\n        return whitelist.length();\n    }\n}\n",
  "sourcePath": "/Users/apple/Desktop/datacpoy/BlockChain/kinko-contracts/contracts/Launchpad.sol",
  "compiler": {
    "name": "solc",
    "version": "0.6.12+commit.27d51765.Emscripten.clang"
  },
  "schemaVersion": "3.4.6",
  "updatedAt": "2022-06-27T08:00:31.968Z",
  "devdoc": {
    "kind": "dev",
    "methods": {
      "addLiquidity()": {
        "details": "it creates a liquidity pair, locks liquidty and enables the withdraw of users sale tokens."
      },
      "constructor": {
        "details": "sets initially contract dependend addresses",
        "params": {
          "_launchpadGenerator": "address of the launchpad generator",
          "_launchpadLockForwarder": "address of LanchpadLockForwarder contract",
          "_launchpadSettings": "address of the settings contract",
          "_pancakeDev": "address of the developer account",
          "_wbnb": "address of the wrapped bnb contract"
        }
      },
      "editWhitelist(address[],bool)": {
        "params": {
          "_add": "indicating if the given user(s) should be added to(=true) or removed from (=false) whitelist",
          "_users": "array of user addresses to be added to or removed from whitelist"
        }
      },
      "forceFailByPancake()": {
        "details": "security function to ensure the launchpad can be cancelled at any time to unlock funds"
      },
      "forceFailIfPairExists()": {
        "details": "this function can be called by anyone and requires the launchpad to be active"
      },
      "getUserWhitelistStatus(address)": {
        "params": {
          "_user": "address of the user to be checked"
        }
      },
      "getWhitelistedUserAtIndex(uint256)": {
        "params": {
          "_index": "whitelist index"
        }
      },
      "init1(address,uint256,uint256,uint256,uint256,uint256,uint256,uint256,uint256,uint256,uint256)": {
        "details": "this function can only be called by the launchpad generator",
        "params": {
          "_amount": "the total amount of sale tokens (min 10 000)",
          "_endTime": "the timestamp of the launchpad end",
          "_hardcap": "the maximum amount of tokens to be reached for success",
          "_launchpadOwner": "the owner address of the launchpad",
          "_liquidityPercent": "the percent of locked liquidity in parts per 1000 (min 250)",
          "_listingRate": "the listing rate on pancakeswap",
          "_lockPeriod": "the duration of the locking period in seconds",
          "_maxSpendPerBuyer": "the total amount of base token a specific buyer can spend",
          "_softcap": "the minumum amount of tokens to be reached until end time for success",
          "_startTime": "the timestamp to start launchpad",
          "_tokenPrice": "the amount of sale tokens for one base token"
        }
      },
      "init2(address,address,uint256,uint256,address,address,address)": {
        "details": "this function can only be called by the launchpad generator",
        "params": {
          "_baseFeeAddress": "the receiver of the base token fee amount",
          "_baseToken": "the token to purchase the sale token",
          "_launchpadToken": "the token to be sold in the launchpad (sale token)",
          "_pancakeTokenFee": "the fee on the sale token by adding liquidity in parts per 1000",
          "_referralAddress": "the receiver of the sale and base token referral fee amounts",
          "_referralFee": "the fee calculated on base fee an token fee in parts per 1000",
          "_tokenFeeAddress": "the receiver of the sale token fee amount"
        }
      },
      "userDeposit(uint256,address[3])": {
        "details": "this function uses msg.value and ignores _amount param for BNB as base token. The correct amount is required for ERC20 base tokens",
        "params": {
          "_amount": "the amount of base token to deposit"
        }
      }
    },
    "version": 1
  },
  "userdoc": {
    "kind": "user",
    "methods": {
      "addLiquidity()": {
        "notice": "has to be called after the launchpad was successful to end the launchpad."
      },
      "editWhitelist(address[],bool)": {
        "notice": "update the whitelisted users by owner. Users can be added to or removed from whitelist"
      },
      "forceFailByPancake()": {
        "notice": "enegyFi developers can force a fail in case of an unintended behaviour"
      },
      "forceFailIfPairExists()": {
        "notice": "set the status of the launchpad to failed, if a the liquidity pair exists on pancakeswap before the launchpad is successfully finished"
      },
      "getLaunchpadStatus()": {
        "notice": "returns the current status of the launchpad"
      },
      "getUserWhitelistStatus(address)": {
        "notice": "returns if a user if whitelisted"
      },
      "getWhitelistedUserAtIndex(uint256)": {
        "notice": "returns the users address at the given whitelist index"
      },
      "getWhitelistedUsersLength()": {
        "notice": "returns the total number of whitelisted users"
      },
      "init1(address,uint256,uint256,uint256,uint256,uint256,uint256,uint256,uint256,uint256,uint256)": {
        "notice": "first initilize function sets launchpad information by the launchpad generator"
      },
      "init2(address,address,uint256,uint256,address,address,address)": {
        "notice": "second initilize function sets launchpad information by the launchpad generator"
      },
      "ownerWithdrawTokens()": {
        "notice": "withdraws all sale tokens by launchpad owner if the launchpad failed the sale tokens are sent to the launchpad owner address"
      },
      "setWhitelistFlag(bool)": {
        "notice": "sets if the launchpad is only for whitelisted users by launchpad owner"
      },
      "updateDuration(uint256,uint256)": {
        "notice": "updates the start and end time of the launchpad by launchpad owner"
      },
      "updateMaxSpendLimit(uint256)": {
        "notice": "updates the limit a single user can spend on the launchpad"
      },
      "userDeposit(uint256,address[3])": {
        "notice": "deposits the given amount of base tokens and calculates the equivalent amount of sale tokens owed by the caller."
      },
      "userWithdrawBaseTokens()": {
        "notice": "withdraws deposited base tokens of the caller if the launchpad failed"
      },
      "userWithdrawTokens()": {
        "notice": "withdraws users sale token amount if the launchpad was successful and the liquidity pool creation is completed."
      }
    },
    "version": 1
  }
}