{
  "contractName": "LaunchpadGenerator",
  "abi": [
    {
      "inputs": [
        {
          "internalType": "address",
          "name": "_launchpadFactory",
          "type": "address"
        },
        {
          "internalType": "address",
          "name": "_launchpadSettings",
          "type": "address"
        },
        {
          "internalType": "address",
          "name": "_wbnb",
          "type": "address"
        },
        {
          "internalType": "address",
          "name": "_launchpadLockForwarder",
          "type": "address"
        },
        {
          "internalType": "address",
          "name": "_pancakeDev",
          "type": "address"
        }
      ],
      "stateMutability": "nonpayable",
      "type": "constructor"
    },
    {
      "inputs": [],
      "name": "KINKO_DEV",
      "outputs": [
        {
          "internalType": "address",
          "name": "",
          "type": "address"
        }
      ],
      "stateMutability": "view",
      "type": "function",
      "constant": true
    },
    {
      "inputs": [],
      "name": "LAUNCHPAD_FACTORY",
      "outputs": [
        {
          "internalType": "address",
          "name": "",
          "type": "address"
        }
      ],
      "stateMutability": "view",
      "type": "function",
      "constant": true
    },
    {
      "inputs": [],
      "name": "LAUNCHPAD_LOCK_FORWARDER",
      "outputs": [
        {
          "internalType": "address",
          "name": "",
          "type": "address"
        }
      ],
      "stateMutability": "view",
      "type": "function",
      "constant": true
    },
    {
      "inputs": [],
      "name": "LAUNCHPAD_SETTINGS",
      "outputs": [
        {
          "internalType": "contract ILaunchpadSettings",
          "name": "",
          "type": "address"
        }
      ],
      "stateMutability": "view",
      "type": "function",
      "constant": true
    },
    {
      "inputs": [],
      "name": "WBNB",
      "outputs": [
        {
          "internalType": "address",
          "name": "",
          "type": "address"
        }
      ],
      "stateMutability": "view",
      "type": "function",
      "constant": true
    },
    {
      "inputs": [
        {
          "internalType": "address payable",
          "name": "_launchpadOwner",
          "type": "address"
        },
        {
          "internalType": "contract IERC20",
          "name": "_launchpadToken",
          "type": "address"
        },
        {
          "internalType": "contract IERC20Meta",
          "name": "_baseToken",
          "type": "address"
        },
        {
          "internalType": "address payable",
          "name": "_referralAddress",
          "type": "address"
        },
        {
          "internalType": "uint256[9]",
          "name": "uint_params",
          "type": "uint256[9]"
        }
      ],
      "name": "createLaunchpad",
      "outputs": [],
      "stateMutability": "payable",
      "type": "function",
      "payable": true
    },
    {
      "inputs": [
        {
          "internalType": "uint256",
          "name": "_amount",
          "type": "uint256"
        },
        {
          "internalType": "uint256",
          "name": "_listingRate",
          "type": "uint256"
        },
        {
          "internalType": "uint256",
          "name": "_liquidityRate",
          "type": "uint256"
        }
      ],
      "name": "calculateAmountRequired",
      "outputs": [
        {
          "internalType": "uint256",
          "name": "",
          "type": "uint256"
        }
      ],
      "stateMutability": "view",
      "type": "function",
      "constant": true
    }
  ],
  "bytecode": "0x61012060405234801561001157600080fd5b50604051614057380380614057833981810160405260a081101561003457600080fd5b508051602082015160408301516060840151608090940151929391929091906001600160a01b0385161580159061007357506001600160a01b03841615155b801561008757506001600160a01b03831615155b801561009b57506001600160a01b03821615155b80156100af57506001600160a01b03811615155b6100ef576040805162461bcd60e51b815260206004820152600c60248201526b5a45524f204144445245535360a01b604482015290519081900360640190fd5b6001600160601b0319606095861b811660805293851b84166101005290841b831660a052831b821660c05290911b1660e05260805160601c60a05160601c60c05160601c60e05160601c6101005160601c613e936101c4600039806101e752806104035280610493528061051e52806105e452806106895280610738528061085952806109db5280610b9a5280610c375280610cc35280610d4f5280610ee15250806102d552806109ba5250806101c05280610a1d5250806109fc5280610f055250806102f95280610e505250613e936000f3fe6080604052600436106100705760003560e01c8063c1671c501161004e578063c1671c5014610103578063d1d45fa014610118578063d2f5640714610194578063f8619d8c146101a957610070565b8063182cc369146100755780632fb7245d146100a65780638dd95002146100ee575b600080fd5b34801561008157600080fd5b5061008a6101be565b604080516001600160a01b039092168252519081900360200190f35b3480156100b257600080fd5b506100dc600480360360608110156100c957600080fd5b50803590602081013590604001356101e2565b60408051918252519081900360200190f35b3480156100fa57600080fd5b5061008a6102d3565b34801561010f57600080fd5b5061008a6102f7565b61019260048036036101a081101561012f57600080fd5b6040805161012081810183526001600160a01b0385358116956020810135821695948101358216946060820135909216939181019290916101a08301916080840190600990839083908082843760009201919091525091945061031b9350505050565b005b3480156101a057600080fd5b5061008a610edf565b3480156101b557600080fd5b5061008a610f03565b7f000000000000000000000000000000000000000000000000000000000000000081565b6000807f00000000000000000000000000000000000000000000000000000000000000006001600160a01b031663355468506040518163ffffffff1660e01b815260040160206040518083038186803b15801561023e57600080fd5b505afa158015610252573d6000803e3d6000fd5b505050506040513d602081101561026857600080fd5b5051905060006102846103e861027e8885610f27565b90610f89565b905060006102af6305f5e10061027e6103e88690036102a989818d60648e9003610f27565b90610f27565b905060006102c7836102c18a85610ff0565b90610ff0565b98975050505050505050565b7f000000000000000000000000000000000000000000000000000000000000000081565b7f000000000000000000000000000000000000000000000000000000000000000081565b610323611204565b815180825260208084015190830181905260408085015190840152606080850151908401526080808501519084015260a0808501519084015260c084015160e08085019190915284015161010080850191909152840151610120840152610397919061027e90670de0b6b3a7640000610f27565b60c082018190526020820151825190916103be91670de0b6b3a76400009161027e91610f27565b14610401576040805162461bcd60e51b815260206004820152600e60248201526d494e56414c494420504152414d5360901b604482015290519081900360640190fd5b7f00000000000000000000000000000000000000000000000000000000000000006001600160a01b031663be4130546040518163ffffffff1660e01b815260040160206040518083038186803b15801561045a57600080fd5b505afa15801561046e573d6000803e3d6000fd5b505050506040513d602081101561048457600080fd5b505160e0820151101561051c577f00000000000000000000000000000000000000000000000000000000000000006001600160a01b031663be4130546040518163ffffffff1660e01b815260040160206040518083038186803b1580156104ea57600080fd5b505afa1580156104fe573d6000803e3d6000fd5b505050506040513d602081101561051457600080fd5b505160e08201525b7f00000000000000000000000000000000000000000000000000000000000000006001600160a01b0316633b107d976040518163ffffffff1660e01b815260040160206040518083038186803b15801561057557600080fd5b505afa158015610589573d6000803e3d6000fd5b505050506040513d602081101561059f57600080fd5b505134146105e2576040805162461bcd60e51b815260206004820152600b60248201526a119151481393d50813515560aa1b604482015290519081900360640190fd5b7f00000000000000000000000000000000000000000000000000000000000000006001600160a01b031663146c4be76040518163ffffffff1660e01b815260040160206040518083038186803b15801561063b57600080fd5b505afa15801561064f573d6000803e3d6000fd5b505050506040513d602081101561066557600080fd5b505160408051633b107d9760e01b815290516001600160a01b03928316926108fc927f000000000000000000000000000000000000000000000000000000000000000090911691633b107d9791600480820192602092909190829003018186803b1580156106d257600080fd5b505afa1580156106e6573d6000803e3d6000fd5b505050506040513d60208110156106fc57600080fd5b50516040518115909202916000818181858888f19350505050158015610726573d6000803e3d6000fd5b506001600160a01b03831615610813577f00000000000000000000000000000000000000000000000000000000000000006001600160a01b0316630b9714ca846040518263ffffffff1660e01b815260040180826001600160a01b0316815260200191505060206040518083038186803b1580156107a357600080fd5b505afa1580156107b7573d6000803e3d6000fd5b505050506040513d60208110156107cd57600080fd5b5051610813576040805162461bcd60e51b815260206004820152601060248201526f1253959053125108149151915494905360821b604482015290519081900360640190fd5b80516127101115610857576040805162461bcd60e51b81526020600482015260096024820152684d494e20444956495360b81b604482015290519081900360640190fd5b7f00000000000000000000000000000000000000000000000000000000000000006001600160a01b031663cef6fc0b6040518163ffffffff1660e01b815260040160206040518083038186803b1580156108b057600080fd5b505afa1580156108c4573d6000803e3d6000fd5b505050506040513d60208110156108da57600080fd5b50516101008201516101208301516108f19161104a565b111561093a576040805162461bcd60e51b8152602060048201526013602482015272125395905312510815125351481411549253d1606a1b604482015290519081900360640190fd5b60fa81606001511015801561095557506103e8816060015111155b61099a576040805162461bcd60e51b8152602060048201526011602482015270494e56414c4944204c495155494449545960781b604482015290519081900360640190fd5b60006109b38260000151836080015184606001516101e2565b90506000307f00000000000000000000000000000000000000000000000000000000000000007f00000000000000000000000000000000000000000000000000000000000000007f00000000000000000000000000000000000000000000000000000000000000007f0000000000000000000000000000000000000000000000000000000000000000604051610a4890611257565b6001600160a01b039586168152938516602085015291841660408085019190915290841660608401529216608082015290519081900360a001906000f080158015610a97573d6000803e3d6000fd5b509050610aa6873383856110a7565b806001600160a01b031663b93ac7928985600001518660c001518760a00151886020015189604001518a606001518b608001518c61010001518d61012001518e60e001516040518c63ffffffff1660e01b8152600401808c6001600160a01b031681526020018b81526020018a81526020018981526020018881526020018781526020018681526020018581526020018481526020018381526020018281526020019b505050505050505050505050600060405180830381600087803b158015610b6f57600080fd5b505af1158015610b83573d6000803e3d6000fd5b50505050806001600160a01b03166339848cd187897f00000000000000000000000000000000000000000000000000000000000000006001600160a01b031663355468506040518163ffffffff1660e01b815260040160206040518083038186803b158015610bf157600080fd5b505afa158015610c05573d6000803e3d6000fd5b505050506040513d6020811015610c1b57600080fd5b50516040805163f6c0812f60e01b815290516001600160a01b037f0000000000000000000000000000000000000000000000000000000000000000169163f6c0812f916004808301926020929190829003018186803b158015610c7d57600080fd5b505afa158015610c91573d6000803e3d6000fd5b505050506040513d6020811015610ca757600080fd5b50516040805163146c4be760e01b815290516001600160a01b037f0000000000000000000000000000000000000000000000000000000000000000169163146c4be7916004808301926020929190829003018186803b158015610d0957600080fd5b505afa158015610d1d573d6000803e3d6000fd5b505050506040513d6020811015610d3357600080fd5b5051604080516347a2085f60e01b815290516001600160a01b037f000000000000000000000000000000000000000000000000000000000000000016916347a2085f916004808301926020929190829003018186803b158015610d9557600080fd5b505afa158015610da9573d6000803e3d6000fd5b505050506040513d6020811015610dbf57600080fd5b5051604080516001600160e01b031960e08a901b1681526001600160a01b03978816600482015295871660248701526044860194909452606485019290925284166084840152831660a483015291891660c4820152905160e480830192600092919082900301818387803b158015610e3657600080fd5b505af1158015610e4a573d6000803e3d6000fd5b505050507f00000000000000000000000000000000000000000000000000000000000000006001600160a01b03166377eb877c826040518263ffffffff1660e01b815260040180826001600160a01b03168152602001915050600060405180830381600087803b158015610ebd57600080fd5b505af1158015610ed1573d6000803e3d6000fd5b505050505050505050505050565b7f000000000000000000000000000000000000000000000000000000000000000081565b7f000000000000000000000000000000000000000000000000000000000000000081565b600082610f3657506000610f83565b82820282848281610f4357fe5b0414610f805760405162461bcd60e51b8152600401808060200182810382526021815260200180613e196021913960400191505060405180910390fd5b90505b92915050565b6000808211610fdf576040805162461bcd60e51b815260206004820152601a60248201527f536166654d6174683a206469766973696f6e206279207a65726f000000000000604482015290519081900360640190fd5b818381610fe857fe5b049392505050565b600082820183811015610f80576040805162461bcd60e51b815260206004820152601b60248201527f536166654d6174683a206164646974696f6e206f766572666c6f770000000000604482015290519081900360640190fd5b6000828211156110a1576040805162461bcd60e51b815260206004820152601e60248201527f536166654d6174683a207375627472616374696f6e206f766572666c6f770000604482015290519081900360640190fd5b50900390565b604080516001600160a01b0385811660248301528481166044830152606480830185905283518084039091018152608490920183526020820180516001600160e01b03166323b872dd60e01b17815292518251600094606094938a169392918291908083835b6020831061112c5780518252601f19909201916020918201910161110d565b6001836020036101000a0380198251168184511680821785525050505050509050019150506000604051808303816000865af19150503d806000811461118e576040519150601f19603f3d011682016040523d82523d6000602084013e611193565b606091505b50915091508180156111c15750805115806111c157508080602001905160208110156111be57600080fd5b50515b6111fc5760405162461bcd60e51b8152600401808060200182810382526024815260200180613e3a6024913960400191505060405180910390fd5b505050505050565b604051806101400160405280600081526020016000815260200160008152602001600081526020016000815260200160008152602001600081526020016000815260200160008152602001600081525090565b612bb4806112658339019056fe6101206040523480156200001257600080fd5b5060405162002bb438038062002bb4833981810160405260a08110156200003857600080fd5b5080516020820151604083015160608401516080909401516001600055929391929091906001600160a01b038516158015906200007d57506001600160a01b03841615155b80156200009257506001600160a01b03831615155b8015620000a757506001600160a01b03821615155b8015620000bc57506001600160a01b03811615155b620000fd576040805162461bcd60e51b815260206004820152600c60248201526b5a45524f204144445245535360a01b604482015290519081900360640190fd5b6001600160601b0319606086811b821660e05285811b821660c05284811b821660a05283811b821660805282901b16610100526001600160a01b03918216949282169382169282169116612a01620001b360003980610c4e525080610abd528061142e52806116e5525080610b3052806111be52806119065250806108955280610bc25280610d0c5280610e9b5250806112da528061181e528061198b5280611a0c5280611a445280611e225250612a016000f3fe6080604052600436106101b75760003560e01c8063927ac44d116100ec578063bff75f531161008a578063e8078d9411610064578063e8078d9414610714578063e86e634014610729578063f5ab16cc1461073e578063fe8121de14610771576101b7565b8063bff75f5314610683578063c39e7dbb146106ea578063d1ab011e146106ff576101b7565b8063a94e7e80116100c6578063a94e7e801461059f578063b93ac792146105b4578063b9863a4414610627578063bba886311461066e576101b7565b8063927ac44d1461048c57806397a993aa1461053e578063a19ab1161461058a576101b7565b80634bb18e3f1161015957806376936e531161013357806376936e53146103df57806389954886146104015780638c301df81461044d5780638dd9500214610477576101b7565b80634bb18e3f146102f65780636933eb151461030b578063706b63c61461033c576101b7565b806338b903331161019557806338b903331461022d57806339848cd1146102545780633d296122146102b55780634200e4fc146102ca576101b7565b806324ef1bc7146101bc5780632ad1f1db146101e8578063370243dc14610218575b600080fd5b3480156101c857600080fd5b506101e6600480360360208110156101df57600080fd5b5035610786565b005b3480156101f457600080fd5b506101e66004803603604081101561020b57600080fd5b50803590602001356107e0565b34801561022457600080fd5b506101e6610974565b34801561023957600080fd5b50610242610aad565b60408051918252519081900360200190f35b34801561026057600080fd5b506101e6600480360360e081101561027757600080fd5b506001600160a01b0381358116916020810135821691604082013591606081013591608082013581169160a081013582169160c09091013516610ab2565b3480156102c157600080fd5b506101e6610c43565b3480156102d657600080fd5b506101e6600480360360208110156102ed57600080fd5b50351515610c87565b34801561030257600080fd5b50610242610cf8565b34801561031757600080fd5b50610320610d0a565b604080516001600160a01b039092168252519081900360200190f35b34801561034857600080fd5b50610351610d2e565b604051808f6001600160a01b031681526020018e6001600160a01b031681526020018d6001600160a01b031681526020018c81526020018b81526020018a815260200189815260200188815260200187815260200186815260200185815260200184815260200183815260200182151581526020019e50505050505050505050505050505060405180910390f35b6101e6600480360360808110156103f557600080fd5b50803590602001610d72565b34801561040d57600080fd5b50610416611186565b6040805195865260208601949094526001600160a01b03928316858501529082166060850152166080830152519081900360a00190f35b34801561045957600080fd5b506103206004803603602081101561047057600080fd5b50356111a9565b34801561048357600080fd5b506103206111bc565b34801561049857600080fd5b506101e6600480360360408110156104af57600080fd5b8101906020810181356401000000008111156104ca57600080fd5b8201836020820111156104dc57600080fd5b803590602001918460208302840111640100000000831117156104fe57600080fd5b91908080602002602001604051908101604052809392919081815260200183836020028082843760009201919091525092955050505035151590506111e0565b34801561054a57600080fd5b506105716004803603602081101561056157600080fd5b50356001600160a01b03166112bf565b6040805192835260208301919091528051918290030190f35b34801561059657600080fd5b506103206112d8565b3480156105ab57600080fd5b506101e66112fc565b3480156105c057600080fd5b506101e660048036036101608110156105d857600080fd5b506001600160a01b038135169060208101359060408101359060608101359060808101359060a08101359060c08101359060e08101359061010081013590610120810135906101400135611423565b34801561063357600080fd5b5061065a6004803603602081101561064a57600080fd5b50356001600160a01b03166114d9565b604080519115158252519081900360200190f35b34801561067a57600080fd5b506102426114e6565b34801561068f57600080fd5b50610698611579565b604080519a15158b5298151560208b0152961515898901526060890195909552608088019390935260a087019190915260c086015260e085015261010084015261012083015251908190036101400190f35b3480156106f657600080fd5b506101e66115b7565b34801561070b57600080fd5b506103206116e3565b34801561072057600080fd5b506101e6611707565b34801561073557600080fd5b506101e6611d90565b34801561074a57600080fd5b506102426004803603602081101561076157600080fd5b50356001600160a01b0316611eab565b34801561077d57600080fd5b506101e6611ebd565b6001546001600160a01b031633146107db576040805162461bcd60e51b81526020600482015260136024820152722727aa102620aaa721a42820a21027aba722a960691b604482015290519081900360640190fd5b600655565b6001546001600160a01b03163314610835576040805162461bcd60e51b81526020600482015260136024820152722727aa102620aaa721a42820a21027aba722a960691b604482015290519081900360640190fd5b61083d6114e6565b15801561084b5750600c5442105b610893576040805162461bcd60e51b81526020600482015260146024820152734c41554e4348504144204e4f542041435449564560601b604482015290519081900360640190fd5b7f00000000000000000000000000000000000000000000000000000000000000006001600160a01b031663cef6fc0b6040518163ffffffff1660e01b815260040160206040518083038186803b1580156108ec57600080fd5b505afa158015610900573d6000803e3d6000fd5b505050506040513d602081101561091657600080fd5b50516109228284611feb565b1115610969576040805162461bcd60e51b81526020600482015260116024820152704455524154494f4e20544f4f204c4f4e4760781b604482015290519081900360640190fd5b600c91909155600d55565b600260005414156109ba576040805162461bcd60e51b815260206004820152601f6024820152600080516020612967833981519152604482015290519081900360640190fd5b6002600055601454610100900460ff16610a14576040805162461bcd60e51b815260206004820152601660248201527520aba0a4aa24a7239026281023a2a722a920aa24a7a760511b604482015290519081900360640190fd5b336000908152601d602052604090205480610a6c576040805162461bcd60e51b81526020600482015260136024820152724e4f5448494e4720544f20574954484452415760681b604482015290519081900360640190fd5b601954610a799082612048565b601955336000818152601d6020526040812055600254610aa5916001600160a01b0390911690836120a9565b506001600055565b600181565b336001600160a01b037f00000000000000000000000000000000000000000000000000000000000000001614610b1b576040805162461bcd60e51b81526020600482015260096024820152682327a92124a22222a760b91b604482015290519081900360640190fd5b600e805460ff19166001600160a01b038981167f00000000000000000000000000000000000000000000000000000000000000008216811492909217909255600280548984166001600160a01b031991821617909155600380548216909217909155600f8790556010869055601180548684169083161790556012805485841690831617905560138054848416921691909117905560408051635564890b60e11b815290517f00000000000000000000000000000000000000000000000000000000000000009092169163aac9121691600481810192602092909190829003018186803b158015610c0b57600080fd5b505afa158015610c1f573d6000803e3d6000fd5b505050506040513d6020811015610c3557600080fd5b5051601b5550505050505050565b336001600160a01b037f00000000000000000000000000000000000000000000000000000000000000001614610c7857600080fd5b6014805460ff19166001179055565b6001546001600160a01b03163314610cdc576040805162461bcd60e51b81526020600482015260136024820152722727aa102620aaa721a42820a21027aba722a960691b604482015290519081900360640190fd5b60148054911515620100000262ff000019909216919091179055565b6000610d04601e612213565b90505b90565b7f000000000000000000000000000000000000000000000000000000000000000081565b600154600254600354600454600554600654600754600854600954600a54600b54600c54600d54600e546001600160a01b039d8e169d9c8d169c909b169a60ff168e565b60026000541415610db8576040805162461bcd60e51b815260206004820152601f6024820152600080516020612967833981519152604482015290519081900360640190fd5b6002600055610dc56114e6565b600114610e06576040805162461bcd60e51b815260206004820152600a6024820152694e4f542041435449564560b01b604482015290519081900360640190fd5b60145462010000900460ff1615610e6557610e22601e3361221e565b610e65576040805162461bcd60e51b815260206004820152600f60248201526e1393d50815d2125511531254d51151608a1b604482015290519081900360640190fd5b601b54600c54610e7491612048565b421015610f485760408051634a6da48160e01b815233600482015290516001600160a01b037f00000000000000000000000000000000000000000000000000000000000000001691634a6da481916024808301926020929190829003018186803b158015610ee157600080fd5b505afa158015610ef5573d6000803e3d6000fd5b505050506040513d6020811015610f0b57600080fd5b5051610f485760405162461bcd60e51b81526004018080602001828103825260218152602001806129246021913960400191505060405180910390fd5b336000908152601c60205260408120600e5490919060ff16610f6a5783610f6c565b345b8254600654919250600091610f8091611feb565b601654600854919250600091610f9591611feb565b9050808211610fa45781610fa6565b805b915081831115610fb4578192505b600554600090610fd690610fd086670de0b6b3a7640000612233565b9061228c565b90506000811161101b576040805162461bcd60e51b815260206004820152600b60248201526a5a45524f20544f4b454e5360a81b604482015290519081900360640190fd5b845461102b57601a805460010190555b84546110379085612048565b855560018501546110489082612048565b60018601556000611060612710610fd0846064612233565b905060005b60038110156110e457600088826003811061107c57fe5b60200201356001600160a01b03166001600160a01b0316146110dc5781601d60008a84600381106110a957fe5b60200201356001600160a01b03166001600160a01b03166001600160a01b03168152602001908152602001600020819055505b600101611065565b506016546110f29086612048565b60165560185461110490838301612048565b601855600e5460ff16801561111857503485105b1561115557336108fc61112b3488611feb565b6040518115909202916000818181858888f19350505050158015611153573d6000803e3d6000fd5b505b600e5460ff1661117757600354611177906001600160a01b03163330886122f3565b50506001600055505050505050565b600f546010546011546012546013546001600160a01b0392831692918216911685565b60006111b6601e83612450565b92915050565b7f000000000000000000000000000000000000000000000000000000000000000081565b6001546001600160a01b03163314611235576040805162461bcd60e51b81526020600482015260136024820152722727aa102620aaa721a42820a21027aba722a960691b604482015290519081900360640190fd5b801561127d5760005b82518110156112775761126e83828151811061125657fe5b6020026020010151601e61245c90919063ffffffff16565b5060010161123e565b506112bb565b60005b82518110156112b9576112b083828151811061129857fe5b6020026020010151601e61247190919063ffffffff16565b50600101611280565b505b5050565b601c602052600090815260409020805460019091015482565b7f000000000000000000000000000000000000000000000000000000000000000081565b6001546001600160a01b03163314611351576040805162461bcd60e51b81526020600482015260136024820152722727aa102620aaa721a42820a21027aba722a960691b604482015290519081900360640190fd5b6113596114e6565b60031461139a576040805162461bcd60e51b815260206004820152600a6024820152691393d50811905253115160b21b604482015290519081900360640190fd5b600254600154604080516370a0823160e01b81523060048201529051611421936001600160a01b0390811693169183916370a0823191602480820192602092909190829003018186803b1580156113f057600080fd5b505afa158015611404573d6000803e3d6000fd5b505050506040513d602081101561141a57600080fd5b50516120a9565b565b336001600160a01b037f0000000000000000000000000000000000000000000000000000000000000000161461148c576040805162461bcd60e51b81526020600482015260096024820152682327a92124a22222a760b91b604482015290519081900360640190fd5b600180546001600160a01b0319166001600160a01b039c909c169b909b17909a55600498909855600596909655600694909455600892909255600755600955600a55600c55600d55600b55565b60006111b6601e8361221e565b60145460009060ff16156114fc57506003610d07565b600d54421180156115105750600754601654105b1561151d57506003610d07565b6008546016541061153057506002610d07565b600d5442118015611545575060075460165410155b1561155257506002610d07565b600c5442108015906115665750600d544211155b1561157357506001610d07565b50600090565b601454601554601654601754601854601954601a54601b5460ff8089169861010081048216986201000090910490911696909590949093909290918a565b600260005414156115fd576040805162461bcd60e51b815260206004820152601f6024820152600080516020612967833981519152604482015290519081900360640190fd5b600260005561160a6114e6565b60031461164b576040805162461bcd60e51b815260206004820152600a6024820152691393d50811905253115160b21b604482015290519081900360640190fd5b336000908152601c602052604090208054806116a4576040805162461bcd60e51b81526020600482015260136024820152724e4f5448494e4720544f20574954484452415760681b604482015290519081900360640190fd5b81546017546116b291612048565b60175560008255600354600e546116da916001600160a01b0316903390849060ff1615612486565b50506001600055565b7f000000000000000000000000000000000000000000000000000000000000000081565b6002600054141561174d576040805162461bcd60e51b815260206004820152601f6024820152600080516020612967833981519152604482015290519081900360640190fd5b6002600055601454610100900460ff16156117a5576040805162461bcd60e51b815260206004820152601360248201527247454e45524154494f4e20434f4d504c45544560681b604482015290519081900360640190fd5b6117ad6114e6565b6002146117ef576040805162461bcd60e51b815260206004820152600b60248201526a4e4f54205355434345535360a81b604482015290519081900360640190fd5b6002546003546040805163b2b6d1a560e01b81526001600160a01b0393841660048201529183166024830152517f00000000000000000000000000000000000000000000000000000000000000009092169163b2b6d1a591604480820192602092909190829003018186803b15801561186757600080fd5b505afa15801561187b573d6000803e3d6000fd5b505050506040513d602081101561189157600080fd5b5051156118aa576014805460ff19166001179055611d89565b600f546016546000916118c5916103e891610fd09190612233565b905060006118f66103e8610fd06001600801546118f086601460020154611feb90919063ffffffff16565b90612233565b600e5490915060ff1615611979577f00000000000000000000000000000000000000000000000000000000000000006001600160a01b031663d0e30db0826040518263ffffffff1660e01b81526004016000604051808303818588803b15801561195f57600080fd5b505af1158015611973573d6000803e3d6000fd5b50505050505b6003546119b0906001600160a01b03167f000000000000000000000000000000000000000000000000000000000000000083612630565b600f546018546000916119cb916103e891610fd09190612233565b600954600a546018549293506000926119f792620186a092610fd0926118f09160640390829089611feb565b600254909150611a31906001600160a01b03167f000000000000000000000000000000000000000000000000000000000000000083612630565b600354600254600b546001600160a01b037f0000000000000000000000000000000000000000000000000000000000000000811693632277d0e3939082169291169087908690611a82904290612048565b600154604080516001600160e01b031960e08a901b1681526001600160a01b03978816600482015295871660248701526044860194909452606485019290925260848401529290921660a4820152905160c480830192600092919082900301818387803b158015611af257600080fd5b505af1158015611b06573d6000803e3d6000fd5b50506013546001600160a01b0316159150611bc39050576000611b3d6103e8610fd0600f600101548861223390919063ffffffff16565b600354601354600e54929350611b68926001600160a01b039283169290911690849060ff1615612486565b611b728582611feb565b94506000611b946103e8610fd0600f600101548761223390919063ffffffff16565b600254601354919250611bb4916001600160a01b039182169116836120a9565b611bbe8482611feb565b935050505b600354601154600e54611be9926001600160a01b03908116921690879060ff1615612486565b600254601254611c06916001600160a01b039081169116846120a9565b600254604080516370a0823160e01b815230600482015290516000926001600160a01b0316916370a08231916024808301926020929190829003018186803b158015611c5157600080fd5b505afa158015611c65573d6000803e3d6000fd5b505050506040513d6020811015611c7b57600080fd5b5051601854909150811115611cb957601854600090611c9b908390611feb565b600254909150611cb7906001600160a01b031661dead836120a9565b505b600e5460009060ff16611d4257600354604080516370a0823160e01b815230600482015290516001600160a01b03909216916370a0823191602480820192602092909190829003018186803b158015611d1157600080fd5b505afa158015611d25573d6000803e3d6000fd5b505050506040513d6020811015611d3b57600080fd5b5051611d44565b475b600354600154600e54929350611d6f926001600160a01b039283169290911690849060ff1615612486565b50506014805461ff00191661010017905550504260155550505b6001600055565b601454610100900460ff16158015611dab575060145460ff16155b611df3576040805162461bcd60e51b81526020600482015260146024820152734c41554e4348504144204e4f542041435449564560601b604482015290519081900360640190fd5b6002546003546040805163b2b6d1a560e01b81526001600160a01b0393841660048201529183166024830152517f00000000000000000000000000000000000000000000000000000000000000009092169163b2b6d1a591604480820192602092909190829003018186803b158015611e6b57600080fd5b505afa158015611e7f573d6000803e3d6000fd5b505050506040513d6020811015611e9557600080fd5b505115611421576014805460ff19166001179055565b601d6020526000908152604090205481565b60026000541415611f03576040805162461bcd60e51b815260206004820152601f6024820152600080516020612967833981519152604482015290519081900360640190fd5b6002600055601454610100900460ff16611f5d576040805162461bcd60e51b815260206004820152601660248201527520aba0a4aa24a7239026281023a2a722a920aa24a7a760511b604482015290519081900360640190fd5b336000908152601c60205260409020600181015480611fb9576040805162461bcd60e51b81526020600482015260136024820152724e4f5448494e4720544f20574954484452415760681b604482015290519081900360640190fd5b6001820154601954611fca91612048565b601955600060018301556002546116da906001600160a01b031633836120a9565b600082821115612042576040805162461bcd60e51b815260206004820152601e60248201527f536166654d6174683a207375627472616374696f6e206f766572666c6f770000604482015290519081900360640190fd5b50900390565b6000828201838110156120a2576040805162461bcd60e51b815260206004820152601b60248201527f536166654d6174683a206164646974696f6e206f766572666c6f770000000000604482015290519081900360640190fd5b9392505050565b604080516001600160a01b038481166024830152604480830185905283518084039091018152606490920183526020820180516001600160e01b031663a9059cbb60e01b178152925182516000946060949389169392918291908083835b602083106121265780518252601f199092019160209182019101612107565b6001836020036101000a0380198251168184511680821785525050505050509050019150506000604051808303816000865af19150503d8060008114612188576040519150601f19603f3d011682016040523d82523d6000602084013e61218d565b606091505b50915091508180156121bb5750805115806121bb57508080602001905160208110156121b857600080fd5b50515b61220c576040805162461bcd60e51b815260206004820152601f60248201527f5472616e7366657248656c7065723a205452414e534645525f4641494c454400604482015290519081900360640190fd5b5050505050565b60006111b682612793565b60006120a2836001600160a01b038416612797565b600082612242575060006111b6565b8282028284828161224f57fe5b04146120a25760405162461bcd60e51b81526004018080602001828103825260218152602001806129876021913960400191505060405180910390fd5b60008082116122e2576040805162461bcd60e51b815260206004820152601a60248201527f536166654d6174683a206469766973696f6e206279207a65726f000000000000604482015290519081900360640190fd5b8183816122eb57fe5b049392505050565b604080516001600160a01b0385811660248301528481166044830152606480830185905283518084039091018152608490920183526020820180516001600160e01b03166323b872dd60e01b17815292518251600094606094938a169392918291908083835b602083106123785780518252601f199092019160209182019101612359565b6001836020036101000a0380198251168184511680821785525050505050509050019150506000604051808303816000865af19150503d80600081146123da576040519150601f19603f3d011682016040523d82523d6000602084013e6123df565b606091505b509150915081801561240d57508051158061240d575080806020019051602081101561240a57600080fd5b50515b6124485760405162461bcd60e51b81526004018080602001828103825260248152602001806129a86024913960400191505060405180910390fd5b505050505050565b60006120a283836127af565b60006120a2836001600160a01b038416612813565b60006120a2836001600160a01b03841661285d565b806124c7576040516001600160a01b0384169083156108fc029084906000818181858888f193505050501580156124c1573d6000803e3d6000fd5b5061262a565b604080516001600160a01b038581166024830152604480830186905283518084039091018152606490920183526020820180516001600160e01b031663a9059cbb60e01b17815292518251600094606094938a169392918291908083835b602083106125445780518252601f199092019160209182019101612525565b6001836020036101000a0380198251168184511680821785525050505050509050019150506000604051808303816000865af19150503d80600081146125a6576040519150601f19603f3d011682016040523d82523d6000602084013e6125ab565b606091505b50915091508180156125d95750805115806125d957508080602001905160208110156125d657600080fd5b50515b612448576040805162461bcd60e51b815260206004820152601f60248201527f5472616e7366657248656c7065723a205452414e534645525f4641494c454400604482015290519081900360640190fd5b50505050565b604080516001600160a01b038481166024830152604480830185905283518084039091018152606490920183526020820180516001600160e01b031663095ea7b360e01b178152925182516000946060949389169392918291908083835b602083106126ad5780518252601f19909201916020918201910161268e565b6001836020036101000a0380198251168184511680821785525050505050509050019150506000604051808303816000865af19150503d806000811461270f576040519150601f19603f3d011682016040523d82523d6000602084013e612714565b606091505b5091509150818015612742575080511580612742575080806020019051602081101561273f57600080fd5b50515b61220c576040805162461bcd60e51b815260206004820152601e60248201527f5472616e7366657248656c7065723a20415050524f56455f4641494c45440000604482015290519081900360640190fd5b5490565b60009081526001919091016020526040902054151590565b815460009082106127f15760405162461bcd60e51b81526004018080602001828103825260228152602001806129456022913960400191505060405180910390fd5b82600001828154811061280057fe5b9060005260206000200154905092915050565b600061281f8383612797565b612855575081546001818101845560008481526020808220909301849055845484825282860190935260409020919091556111b6565b5060006111b6565b60008181526001830160205260408120548015612919578354600019808301919081019060009087908390811061289057fe5b90600052602060002001549050808760000184815481106128ad57fe5b6000918252602080832090910192909255828152600189810190925260409020908401905586548790806128dd57fe5b600190038181906000526020600020016000905590558660010160008781526020019081526020016000206000905560019450505050506111b6565b60009150506111b656fe494e535546464943454e5420524f554e44203120544f4b454e2042414c414e4345456e756d657261626c655365743a20696e646578206f7574206f6620626f756e64735265656e7472616e637947756172643a207265656e7472616e742063616c6c00536166654d6174683a206d756c7469706c69636174696f6e206f766572666c6f775472616e7366657248656c7065723a205452414e534645525f46524f4d5f4641494c4544a2646970667358221220263a0c6ee0ea0c5db996e6670fc65e6ce2d76fc0594a1d4eedfd0479637a84aa64736f6c634300060c0033536166654d6174683a206d756c7469706c69636174696f6e206f766572666c6f775472616e7366657248656c7065723a205452414e534645525f46524f4d5f4641494c4544a2646970667358221220572351dc8879de2ec5b9666ebd4378fb3715ec1667880003068eb47bc728e99264736f6c634300060c0033",
  "immutableReferences": {
    "2822": [
      {
        "length": 32,
        "start": 761
      },
      {
        "length": 32,
        "start": 3664
      }
    ],
    "2824": [
      {
        "length": 32,
        "start": 2556
      },
      {
        "length": 32,
        "start": 3845
      }
    ],
    "2826": [
      {
        "length": 32,
        "start": 448
      },
      {
        "length": 32,
        "start": 2589
      }
    ],
    "2828": [
      {
        "length": 32,
        "start": 725
      },
      {
        "length": 32,
        "start": 2490
      }
    ],
    "2830": [
      {
        "length": 32,
        "start": 487
      },
      {
        "length": 32,
        "start": 1027
      },
      {
        "length": 32,
        "start": 1171
      },
      {
        "length": 32,
        "start": 1310
      },
      {
        "length": 32,
        "start": 1508
      },
      {
        "length": 32,
        "start": 1673
      },
      {
        "length": 32,
        "start": 1848
      },
      {
        "length": 32,
        "start": 2137
      },
      {
        "length": 32,
        "start": 2523
      },
      {
        "length": 32,
        "start": 2970
      },
      {
        "length": 32,
        "start": 3127
      },
      {
        "length": 32,
        "start": 3267
      },
      {
        "length": 32,
        "start": 3407
      },
      {
        "length": 32,
        "start": 3809
      }
    ]
  },
  "source": "// SPDX-License-Identifier: MIT\n\n/**\n * @title Generator of Pancake launchpad enviroment\n * @dev This contract generate new launchpad with the given launchpad params. Launchpad\n * creation charges a fee in BNB which is defined in the launchpad settings.\n */\npragma solidity 0.6.12;\n\nimport \"../interfaces/IERC20Meta.sol\";\nimport \"../interfaces/ILaunchpadFactory.sol\";\nimport \"./Launchpad.sol\";\nimport \"./TransferHelper.sol\";\n\ncontract LaunchpadGenerator {\n    using SafeMath for uint256;\n\n    // struct with parameter needed to create a new launchpad\n    struct LaunchpadParams {\n        uint256 amount; // min 10 000\n        uint256 hardcap; // amount to be reached for successful ilo\n        uint256 softcap; // minimum sold amount reached at end time for successful ilo\n        uint256 liquidityPercent; // min 250(=25%) max 1000(=100%)\n        uint256 listingRate; // listing price of sale token on pancakeswap\n        uint256 maxSpendPerBuyer; // the maximum amount to be spent by a specific buyer\n        uint256 tokenPrice; // the amount of sale tokens for one base token\n        uint256 lockPeriod; // min 1 year in seconds\n        uint256 startTime; // the timestamp to start the launchpad\n        uint256 endTime; // the timestamp to end the launchpad (max length of settings contract must be met)\n    }\n\n    // addresses of dependen contracts\n    address public immutable LAUNCHPAD_FACTORY;\n    address public immutable LAUNCHPAD_LOCK_FORWARDER;\n    address public immutable KINKO_DEV;\n    address public immutable WBNB;\n    ILaunchpadSettings public immutable LAUNCHPAD_SETTINGS;\n\n    /**\n     *@dev sets initially contract dependend addresses\n     *@param _launchpadFactory address of the launchpad factory contract\n     *@param _launchpadSettings address of the settings contract\n     *@param _wbnb address of the wrapped bnb contract\n     *@param _launchpadLockForwarder address of LanchpadLockForwarder contract\n     *@param _pancakeDev address of the developer account\n     */\n    constructor(\n        address _launchpadFactory,\n        address _launchpadSettings,\n        address _wbnb,\n        address _launchpadLockForwarder,\n        address _pancakeDev\n    ) public {\n        require(\n            _launchpadFactory != address(0) &&\n                _launchpadSettings != address(0) &&\n                _wbnb != address(0) &&\n                _launchpadLockForwarder != address(0) &&\n                _pancakeDev != address(0),\n            \"ZERO ADDRESS\"\n        );\n        LAUNCHPAD_FACTORY = _launchpadFactory;\n        LAUNCHPAD_SETTINGS = ILaunchpadSettings(_launchpadSettings);\n        LAUNCHPAD_LOCK_FORWARDER = _launchpadLockForwarder;\n        KINKO_DEV = _pancakeDev;\n        WBNB = _wbnb;\n    }\n\n    /**\n     * @notice creates a new launchpad with the given parameters\n     * @dev requires to receive the creation fee in BNB (defined in settings)\n     * @param _launchpadOwner address of the launchpad owner account\n     * @param _launchpadToken the token to be sold\n     * @param _referralAddress the address to send the referral fee to\n     * @param uint_params the parameters defined in LaunchpadParams struct (order matters)\n     */\n    function createLaunchpad(\n        address payable _launchpadOwner,\n        IERC20 _launchpadToken,\n        IERC20Meta _baseToken,\n        address payable _referralAddress,\n        uint256[9] memory uint_params\n    ) external payable {\n        // read parameter from function call\n        LaunchpadParams memory params;\n        params.amount = uint_params[0];\n        params.hardcap = uint_params[1];\n        params.softcap = uint_params[2];\n        params.liquidityPercent = uint_params[3];\n        params.listingRate = uint_params[4];\n        params.maxSpendPerBuyer = uint_params[5];\n        params.lockPeriod = uint_params[6];\n        params.startTime = uint_params[7];\n        params.endTime = uint_params[8];\n\n        // calculate token price and check precision\n        params.tokenPrice = params.hardcap.mul(10**18).div(\n            params.amount\n        );\n        require(\n            params.tokenPrice.mul(params.amount).div(10**18) ==\n                params.hardcap,\n            \"INVALID PARAMS\"\n        );\n\n        // set locking period to a minimum of one year\n        if (params.lockPeriod < LAUNCHPAD_SETTINGS.getMinLockingDuration()) {\n            params.lockPeriod = LAUNCHPAD_SETTINGS.getMinLockingDuration();\n        }\n\n        // exact amount of creation fee has to be sent by function call\n        require(\n            msg.value == LAUNCHPAD_SETTINGS.getGlmrCreationFee(),\n            \"FEE NOT MET\"\n        );\n        // send creation fee to registered address\n        LAUNCHPAD_SETTINGS.getBaseFeeReceiver().transfer(\n            LAUNCHPAD_SETTINGS.getGlmrCreationFee()\n        );\n\n        // check for valid referrer address\n        if (_referralAddress != address(0)) {\n            require(\n                LAUNCHPAD_SETTINGS.referrerIsValid(_referralAddress),\n                \"INVALID REFERRAL\"\n            );\n        }\n\n        // check for sufficient amount\n        require(params.amount >= 10000, \"MIN DIVIS\");\n\n        // check if max time length is not met\n        require(\n            params.endTime.sub(params.startTime) <=\n                LAUNCHPAD_SETTINGS.getMaxLaunchpadLength(),\n            \"INVALID TIME PERIOD\"\n        );\n\n        // check for valid liquidity params (min 30% max 100%)\n        require(\n            params.liquidityPercent >= 250 && params.liquidityPercent <= 1000,\n            \"INVALID LIQUIDITY\"\n        );\n\n        // calculate required token amount\n        uint256 tokensRequiredForLaunchpad = calculateAmountRequired(\n            params.amount,\n            params.listingRate,\n            params.liquidityPercent\n        );\n\n        // create launchpad\n        Launchpad newLaunchpad = new Launchpad(\n            address(this),\n            WBNB,\n            address(LAUNCHPAD_SETTINGS),\n            LAUNCHPAD_LOCK_FORWARDER,\n            KINKO_DEV\n        );\n\n        // send required launchpad token amount to launchpad contract\n        TransferHelper.safeTransferFrom(\n            address(_launchpadToken),\n            address(msg.sender),\n            address(newLaunchpad),\n            tokensRequiredForLaunchpad\n        );\n\n        // first part of launchpad initilization\n        newLaunchpad.init1(\n            _launchpadOwner,\n            params.amount,\n            params.tokenPrice,\n            params.maxSpendPerBuyer,\n            params.hardcap,\n            params.softcap,\n            params.liquidityPercent,\n            params.listingRate,\n            params.startTime,\n            params.endTime,\n            params.lockPeriod\n        );\n\n        // second part of launchpad initilization\n        newLaunchpad.init2(\n            _baseToken,\n            _launchpadToken,\n            LAUNCHPAD_SETTINGS.getTokenFee(),\n            LAUNCHPAD_SETTINGS.getReferralFee(),\n            LAUNCHPAD_SETTINGS.getBaseFeeReceiver(),\n            LAUNCHPAD_SETTINGS.getSaleFeeReceiver(),\n            _referralAddress\n        );\n\n        // register the created launchpad in factory\n        ILaunchpadFactory(LAUNCHPAD_FACTORY).registerLaunchpad(\n            address(newLaunchpad)\n        );\n    }\n\n    /**\n     *@notice calculates the amount of launchpad tokens to be required for creating a new launchpad\n     *@dev this amount is sent to the new created launchpad contract\n     */\n    function calculateAmountRequired(\n        uint256 _amount,\n        uint256 _listingRate,\n        uint256 _liquidityRate\n    ) public view returns (uint256) {\n        // calculate sale token fee\n        uint256 tokenFee = LAUNCHPAD_SETTINGS.getTokenFee();\n        uint256 feeAmount = _amount.mul(tokenFee).div(1000);\n\n        // calculate required liquidity amount for locking\n        uint256 liquidityRequired = _amount\n            .mul(100 - _listingRate)\n            .mul(_liquidityRate)\n            .mul(1000 - tokenFee)\n            .div(100000000);\n\n        // calculate total required amount\n        uint256 tokensRequiredForLaunchpad = _amount.add(liquidityRequired).add(\n            feeAmount\n        );\n        return tokensRequiredForLaunchpad;\n    }\n}\n",
  "sourcePath": "/Users/apple/Desktop/datacpoy/BlockChain/kinko-contracts/contracts/LaunchpadGenerator.sol",
  "compiler": {
    "name": "solc",
    "version": "0.6.12+commit.27d51765.Emscripten.clang"
  },
  "schemaVersion": "3.4.6",
  "updatedAt": "2022-06-27T08:01:27.469Z",
  "networkType": "ethereum",
  "devdoc": {
    "kind": "dev",
    "methods": {
      "calculateAmountRequired(uint256,uint256,uint256)": {
        "details": "this amount is sent to the new created launchpad contract"
      },
      "constructor": {
        "details": "sets initially contract dependend addresses",
        "params": {
          "_launchpadFactory": "address of the launchpad factory contract",
          "_launchpadLockForwarder": "address of LanchpadLockForwarder contract",
          "_launchpadSettings": "address of the settings contract",
          "_pancakeDev": "address of the developer account",
          "_wbnb": "address of the wrapped bnb contract"
        }
      },
      "createLaunchpad(address,address,address,address,uint256[9])": {
        "details": "requires to receive the creation fee in BNB (defined in settings)",
        "params": {
          "_launchpadOwner": "address of the launchpad owner account",
          "_launchpadToken": "the token to be sold",
          "_referralAddress": "the address to send the referral fee to",
          "uint_params": "the parameters defined in LaunchpadParams struct (order matters)"
        }
      }
    },
    "version": 1
  },
  "userdoc": {
    "kind": "user",
    "methods": {
      "calculateAmountRequired(uint256,uint256,uint256)": {
        "notice": "calculates the amount of launchpad tokens to be required for creating a new launchpad"
      },
      "createLaunchpad(address,address,address,address,uint256[9])": {
        "notice": "creates a new launchpad with the given parameters"
      }
    },
    "version": 1
  }
}