{
  "contractName": "PancakeLocker",
  "abi": [
    {
      "inputs": [
        {
          "internalType": "address",
          "name": "_pancakeFactory",
          "type": "address"
        }
      ],
      "stateMutability": "nonpayable",
      "type": "constructor"
    },
    {
      "anonymous": false,
      "inputs": [
        {
          "indexed": true,
          "internalType": "address",
          "name": "previousOwner",
          "type": "address"
        },
        {
          "indexed": true,
          "internalType": "address",
          "name": "newOwner",
          "type": "address"
        }
      ],
      "name": "OwnershipTransferred",
      "type": "event"
    },
    {
      "anonymous": false,
      "inputs": [
        {
          "indexed": true,
          "internalType": "address",
          "name": "lpToken",
          "type": "address"
        },
        {
          "indexed": true,
          "internalType": "address",
          "name": "user",
          "type": "address"
        },
        {
          "indexed": false,
          "internalType": "uint256",
          "name": "amount",
          "type": "uint256"
        },
        {
          "indexed": false,
          "internalType": "uint256",
          "name": "lockDate",
          "type": "uint256"
        },
        {
          "indexed": false,
          "internalType": "uint256",
          "name": "unlockDate",
          "type": "uint256"
        }
      ],
      "name": "onDeposit",
      "type": "event"
    },
    {
      "anonymous": false,
      "inputs": [
        {
          "indexed": true,
          "internalType": "address",
          "name": "lpToken",
          "type": "address"
        },
        {
          "indexed": false,
          "internalType": "uint256",
          "name": "amount",
          "type": "uint256"
        }
      ],
      "name": "onWithdraw",
      "type": "event"
    },
    {
      "inputs": [],
      "name": "KINKO_FACTORY",
      "outputs": [
        {
          "internalType": "contract IPancakeFactory",
          "name": "",
          "type": "address"
        }
      ],
      "stateMutability": "view",
      "type": "function",
      "constant": true
    },
    {
      "inputs": [],
      "name": "devaddr",
      "outputs": [
        {
          "internalType": "address payable",
          "name": "",
          "type": "address"
        }
      ],
      "stateMutability": "view",
      "type": "function",
      "constant": true
    },
    {
      "inputs": [],
      "name": "fees",
      "outputs": [
        {
          "internalType": "uint256",
          "name": "bnbFee",
          "type": "uint256"
        },
        {
          "internalType": "contract IERC20Burn",
          "name": "secondaryFeeToken",
          "type": "address"
        },
        {
          "internalType": "uint256",
          "name": "secondaryTokenFee",
          "type": "uint256"
        },
        {
          "internalType": "uint256",
          "name": "secondaryTokenDiscount",
          "type": "uint256"
        },
        {
          "internalType": "uint256",
          "name": "liquidityFee",
          "type": "uint256"
        },
        {
          "internalType": "uint256",
          "name": "referralPercent",
          "type": "uint256"
        },
        {
          "internalType": "contract IERC20Burn",
          "name": "referralToken",
          "type": "address"
        },
        {
          "internalType": "uint256",
          "name": "referralHold",
          "type": "uint256"
        },
        {
          "internalType": "uint256",
          "name": "referralDiscount",
          "type": "uint256"
        }
      ],
      "stateMutability": "view",
      "type": "function",
      "constant": true
    },
    {
      "inputs": [],
      "name": "migrator",
      "outputs": [
        {
          "internalType": "address",
          "name": "",
          "type": "address"
        }
      ],
      "stateMutability": "view",
      "type": "function",
      "constant": true
    },
    {
      "inputs": [],
      "name": "owner",
      "outputs": [
        {
          "internalType": "address",
          "name": "",
          "type": "address"
        }
      ],
      "stateMutability": "view",
      "type": "function",
      "constant": true
    },
    {
      "inputs": [],
      "name": "renounceOwnership",
      "outputs": [],
      "stateMutability": "nonpayable",
      "type": "function"
    },
    {
      "inputs": [
        {
          "internalType": "address",
          "name": "",
          "type": "address"
        },
        {
          "internalType": "uint256",
          "name": "",
          "type": "uint256"
        }
      ],
      "name": "tokenLocks",
      "outputs": [
        {
          "internalType": "uint256",
          "name": "lockDate",
          "type": "uint256"
        },
        {
          "internalType": "uint256",
          "name": "amount",
          "type": "uint256"
        },
        {
          "internalType": "uint256",
          "name": "initialAmount",
          "type": "uint256"
        },
        {
          "internalType": "uint256",
          "name": "unlockDate",
          "type": "uint256"
        },
        {
          "internalType": "uint256",
          "name": "lockID",
          "type": "uint256"
        },
        {
          "internalType": "address",
          "name": "owner",
          "type": "address"
        }
      ],
      "stateMutability": "view",
      "type": "function",
      "constant": true
    },
    {
      "inputs": [
        {
          "internalType": "address",
          "name": "newOwner",
          "type": "address"
        }
      ],
      "name": "transferOwnership",
      "outputs": [],
      "stateMutability": "nonpayable",
      "type": "function"
    },
    {
      "inputs": [
        {
          "internalType": "address",
          "name": "_lpToken",
          "type": "address"
        },
        {
          "internalType": "uint256",
          "name": "_amount",
          "type": "uint256"
        },
        {
          "internalType": "uint256",
          "name": "_unlockDate",
          "type": "uint256"
        },
        {
          "internalType": "address payable",
          "name": "_referral",
          "type": "address"
        },
        {
          "internalType": "bool",
          "name": "_feeInGlmr",
          "type": "bool"
        },
        {
          "internalType": "address payable",
          "name": "_withdrawer",
          "type": "address"
        }
      ],
      "name": "lockLPToken",
      "outputs": [],
      "stateMutability": "payable",
      "type": "function",
      "payable": true
    },
    {
      "inputs": [
        {
          "internalType": "address",
          "name": "_lpToken",
          "type": "address"
        },
        {
          "internalType": "uint256",
          "name": "_index",
          "type": "uint256"
        },
        {
          "internalType": "uint256",
          "name": "_lockID",
          "type": "uint256"
        },
        {
          "internalType": "uint256",
          "name": "_unlockDate",
          "type": "uint256"
        }
      ],
      "name": "relock",
      "outputs": [],
      "stateMutability": "nonpayable",
      "type": "function"
    },
    {
      "inputs": [
        {
          "internalType": "address",
          "name": "_lpToken",
          "type": "address"
        },
        {
          "internalType": "uint256",
          "name": "_index",
          "type": "uint256"
        },
        {
          "internalType": "uint256",
          "name": "_lockID",
          "type": "uint256"
        },
        {
          "internalType": "uint256",
          "name": "_amount",
          "type": "uint256"
        }
      ],
      "name": "withdraw",
      "outputs": [],
      "stateMutability": "nonpayable",
      "type": "function"
    },
    {
      "inputs": [
        {
          "internalType": "address",
          "name": "_lpToken",
          "type": "address"
        },
        {
          "internalType": "uint256",
          "name": "_index",
          "type": "uint256"
        },
        {
          "internalType": "uint256",
          "name": "_lockID",
          "type": "uint256"
        },
        {
          "internalType": "uint256",
          "name": "_amount",
          "type": "uint256"
        }
      ],
      "name": "incrementLock",
      "outputs": [],
      "stateMutability": "nonpayable",
      "type": "function"
    },
    {
      "inputs": [
        {
          "internalType": "address",
          "name": "_lpToken",
          "type": "address"
        },
        {
          "internalType": "uint256",
          "name": "_index",
          "type": "uint256"
        },
        {
          "internalType": "uint256",
          "name": "_lockID",
          "type": "uint256"
        },
        {
          "internalType": "uint256",
          "name": "_amount",
          "type": "uint256"
        }
      ],
      "name": "splitLock",
      "outputs": [],
      "stateMutability": "payable",
      "type": "function",
      "payable": true
    },
    {
      "inputs": [
        {
          "internalType": "address",
          "name": "_lpToken",
          "type": "address"
        },
        {
          "internalType": "uint256",
          "name": "_index",
          "type": "uint256"
        },
        {
          "internalType": "uint256",
          "name": "_lockID",
          "type": "uint256"
        },
        {
          "internalType": "address payable",
          "name": "_newOwner",
          "type": "address"
        }
      ],
      "name": "transferLockOwnership",
      "outputs": [],
      "stateMutability": "nonpayable",
      "type": "function"
    },
    {
      "inputs": [
        {
          "internalType": "address",
          "name": "_lpToken",
          "type": "address"
        },
        {
          "internalType": "uint256",
          "name": "_index",
          "type": "uint256"
        },
        {
          "internalType": "uint256",
          "name": "_lockID",
          "type": "uint256"
        },
        {
          "internalType": "uint256",
          "name": "_amount",
          "type": "uint256"
        }
      ],
      "name": "migrate",
      "outputs": [],
      "stateMutability": "nonpayable",
      "type": "function"
    },
    {
      "inputs": [
        {
          "internalType": "address payable",
          "name": "_devaddr",
          "type": "address"
        }
      ],
      "name": "setDev",
      "outputs": [],
      "stateMutability": "nonpayable",
      "type": "function"
    },
    {
      "inputs": [
        {
          "internalType": "uint256",
          "name": "_referralPercent",
          "type": "uint256"
        },
        {
          "internalType": "uint256",
          "name": "_referralDiscount",
          "type": "uint256"
        },
        {
          "internalType": "uint256",
          "name": "_bnbFee",
          "type": "uint256"
        },
        {
          "internalType": "uint256",
          "name": "_secondaryTokenFee",
          "type": "uint256"
        },
        {
          "internalType": "uint256",
          "name": "_secondaryTokenDiscount",
          "type": "uint256"
        },
        {
          "internalType": "uint256",
          "name": "_liquidityFee",
          "type": "uint256"
        }
      ],
      "name": "setFees",
      "outputs": [],
      "stateMutability": "nonpayable",
      "type": "function"
    },
    {
      "inputs": [
        {
          "internalType": "contract IERC20Burn",
          "name": "_referralToken",
          "type": "address"
        },
        {
          "internalType": "uint256",
          "name": "_hold",
          "type": "uint256"
        }
      ],
      "name": "setReferralTokenAndHold",
      "outputs": [],
      "stateMutability": "nonpayable",
      "type": "function"
    },
    {
      "inputs": [
        {
          "internalType": "address",
          "name": "_secondaryFeeToken",
          "type": "address"
        }
      ],
      "name": "setSecondaryFeeToken",
      "outputs": [],
      "stateMutability": "nonpayable",
      "type": "function"
    },
    {
      "inputs": [
        {
          "internalType": "address",
          "name": "_migrator",
          "type": "address"
        }
      ],
      "name": "setMigrator",
      "outputs": [],
      "stateMutability": "nonpayable",
      "type": "function"
    },
    {
      "inputs": [
        {
          "internalType": "address",
          "name": "_user",
          "type": "address"
        },
        {
          "internalType": "bool",
          "name": "_add",
          "type": "bool"
        }
      ],
      "name": "whitelistFeeAccount",
      "outputs": [],
      "stateMutability": "nonpayable",
      "type": "function"
    },
    {
      "inputs": [
        {
          "internalType": "uint256",
          "name": "_index",
          "type": "uint256"
        }
      ],
      "name": "getLockedTokenAtIndex",
      "outputs": [
        {
          "internalType": "address",
          "name": "",
          "type": "address"
        }
      ],
      "stateMutability": "view",
      "type": "function",
      "constant": true
    },
    {
      "inputs": [
        {
          "internalType": "address",
          "name": "_lpToken",
          "type": "address"
        }
      ],
      "name": "getNumLocksForToken",
      "outputs": [
        {
          "internalType": "uint256",
          "name": "",
          "type": "uint256"
        }
      ],
      "stateMutability": "view",
      "type": "function",
      "constant": true
    },
    {
      "inputs": [],
      "name": "getNumLockedTokens",
      "outputs": [
        {
          "internalType": "uint256",
          "name": "",
          "type": "uint256"
        }
      ],
      "stateMutability": "view",
      "type": "function",
      "constant": true
    },
    {
      "inputs": [
        {
          "internalType": "address",
          "name": "_user",
          "type": "address"
        },
        {
          "internalType": "uint256",
          "name": "_index",
          "type": "uint256"
        }
      ],
      "name": "getUserLockedTokenAtIndex",
      "outputs": [
        {
          "internalType": "address",
          "name": "",
          "type": "address"
        }
      ],
      "stateMutability": "view",
      "type": "function",
      "constant": true
    },
    {
      "inputs": [
        {
          "internalType": "address",
          "name": "_user",
          "type": "address"
        },
        {
          "internalType": "address",
          "name": "_lpToken",
          "type": "address"
        },
        {
          "internalType": "uint256",
          "name": "_index",
          "type": "uint256"
        }
      ],
      "name": "getUserLockForTokenAtIndex",
      "outputs": [
        {
          "internalType": "uint256",
          "name": "",
          "type": "uint256"
        },
        {
          "internalType": "uint256",
          "name": "",
          "type": "uint256"
        },
        {
          "internalType": "uint256",
          "name": "",
          "type": "uint256"
        },
        {
          "internalType": "uint256",
          "name": "",
          "type": "uint256"
        },
        {
          "internalType": "uint256",
          "name": "",
          "type": "uint256"
        },
        {
          "internalType": "address",
          "name": "",
          "type": "address"
        }
      ],
      "stateMutability": "view",
      "type": "function",
      "constant": true
    },
    {
      "inputs": [
        {
          "internalType": "address",
          "name": "_user",
          "type": "address"
        }
      ],
      "name": "getUserNumLockedTokens",
      "outputs": [
        {
          "internalType": "uint256",
          "name": "",
          "type": "uint256"
        }
      ],
      "stateMutability": "view",
      "type": "function",
      "constant": true
    },
    {
      "inputs": [
        {
          "internalType": "address",
          "name": "_user",
          "type": "address"
        },
        {
          "internalType": "address",
          "name": "_lpToken",
          "type": "address"
        }
      ],
      "name": "getUserNumLocksForToken",
      "outputs": [
        {
          "internalType": "uint256",
          "name": "",
          "type": "uint256"
        }
      ],
      "stateMutability": "view",
      "type": "function",
      "constant": true
    },
    {
      "inputs": [
        {
          "internalType": "address",
          "name": "_user",
          "type": "address"
        }
      ],
      "name": "getUserWhitelistStatus",
      "outputs": [
        {
          "internalType": "bool",
          "name": "",
          "type": "bool"
        }
      ],
      "stateMutability": "view",
      "type": "function",
      "constant": true
    },
    {
      "inputs": [
        {
          "internalType": "uint256",
          "name": "_index",
          "type": "uint256"
        }
      ],
      "name": "getWhitelistedUserAtIndex",
      "outputs": [
        {
          "internalType": "address",
          "name": "",
          "type": "address"
        }
      ],
      "stateMutability": "view",
      "type": "function",
      "constant": true
    },
    {
      "inputs": [],
      "name": "getWhitelistedUsersLength",
      "outputs": [
        {
          "internalType": "uint256",
          "name": "",
          "type": "uint256"
        }
      ],
      "stateMutability": "view",
      "type": "function",
      "constant": true
    }
  ],
  "bytecode": "0x60a06040523480156200001157600080fd5b506040516200328538038062003285833981810160405260208110156200003757600080fd5b505160006200004562000141565b600080546001600160a01b0319166001600160a01b0383169081178255604051929350917f8be0079c531659141344cd1fd0a4f28419497f9722a3daafe3b4186f6b6457e0908290a350600180556001600160a01b038116620000de576040805162461bcd60e51b815260206004820152600c60248201526b5a45524f204144445245535360a01b604482015290519081900360640190fd5b60601b6001600160601b03191660805260118054336001600160a01b031990911617905560fa600d55670de0b6b3a764000060085568056bc75e2d63100000600a90815560c8600b55600c55678ac7230489e80000600f55606460105562000145565b3390565b60805160601c61311d62000168600039806108a9528061140b525061311d6000f3fe6080604052600436106101d85760003560e01c80638da5cb5b11610102578063bef497fd11610095578063d4ff493f11610064578063d4ff493f146107b3578063ee424278146107f6578063f02c26431461083b578063f2fde38b14610874576101d8565b8063bef497fd146106af578063ccebfa3f146106f6578063d477f05f1461076b578063d49e77cd1461079e576101d8565b8063a3969815116100d1578063a3969815146105b5578063a69d9c4f146105e8578063a9b07cea14610623578063b9863a4414610668576101d8565b80638da5cb5b146104b7578063903df806146104cc57806391ff1eb1146105055780639af1d35a14610540576101d8565b806360491d241161017a57806386f6c3c11161014957806386f6c3c1146103c85780638931a4be146104105780638af416f6146104435780638c301df81461048d576101d8565b806360491d2414610344578063715018a614610389578063783451e81461039e5780637cd07e47146103b3576101d8565b806323cf3118116101b657806323cf31181461027d5780634532d776146102b25780634bb18e3f146102f7578063582d5adc1461030c576101d8565b806301390d66146101dd57806314dd79a31461020e5780631f2a1d2f14610238575b600080fd5b3480156101e957600080fd5b506101f26108a7565b604080516001600160a01b039092168252519081900360200190f35b34801561021a57600080fd5b506101f26004803603602081101561023157600080fd5b50356108cb565b34801561024457600080fd5b5061026b6004803603602081101561025b57600080fd5b50356001600160a01b03166108de565b60408051918252519081900360200190f35b34801561028957600080fd5b506102b0600480360360208110156102a057600080fd5b50356001600160a01b03166108f9565b005b3480156102be57600080fd5b506102b0600480360360808110156102d557600080fd5b506001600160a01b03813516906020810135906040810135906060013561097d565b34801561030357600080fd5b5061026b610c3a565b6102b06004803603608081101561032257600080fd5b506001600160a01b038135169060208101359060408101359060600135610c4b565b34801561035057600080fd5b506102b06004803603608081101561036757600080fd5b506001600160a01b038135169060208101359060408101359060600135610f24565b34801561039557600080fd5b506102b061115c565b3480156103aa57600080fd5b5061026b611208565b3480156103bf57600080fd5b506101f2611214565b3480156103d457600080fd5b506102b0600480360360c08110156103eb57600080fd5b5080359060208101359060408101359060608101359060808101359060a00135611223565b34801561041c57600080fd5b506102b06004803603602081101561043357600080fd5b50356001600160a01b03166112a2565b6102b0600480360360c081101561045957600080fd5b506001600160a01b0381358116916020810135916040820135916060810135821691608082013515159160a0013516611326565b34801561049957600080fd5b506101f2600480360360208110156104b057600080fd5b5035611bf4565b3480156104c357600080fd5b506101f2611c01565b3480156104d857600080fd5b506101f2600480360360408110156104ef57600080fd5b506001600160a01b038135169060200135611c10565b34801561051157600080fd5b506102b06004803603604081101561052857600080fd5b506001600160a01b0381351690602001351515611c3a565b34801561054c57600080fd5b50610555611cc4565b604051808a8152602001896001600160a01b03168152602001888152602001878152602001868152602001858152602001846001600160a01b03168152602001838152602001828152602001995050505050505050505060405180910390f35b3480156105c157600080fd5b5061026b600480360360208110156105d857600080fd5b50356001600160a01b0316611cf2565b3480156105f457600080fd5b5061026b6004803603604081101561060b57600080fd5b506001600160a01b0381358116916020013516611d1a565b34801561062f57600080fd5b506102b06004803603608081101561064657600080fd5b506001600160a01b038135169060208101359060408101359060600135611d46565b34801561067457600080fd5b5061069b6004803603602081101561068b57600080fd5b50356001600160a01b0316611f7a565b604080519115158252519081900360200190f35b3480156106bb57600080fd5b506102b0600480360360808110156106d257600080fd5b506001600160a01b0381358116916020810135916040820135916060013516611f87565b34801561070257600080fd5b5061072f6004803603604081101561071957600080fd5b506001600160a01b0381351690602001356121cd565b60408051968752602087019590955285850193909352606085019190915260808401526001600160a01b031660a0830152519081900360c00190f35b34801561077757600080fd5b506102b06004803603602081101561078e57600080fd5b50356001600160a01b0316612227565b3480156107aa57600080fd5b506101f26122ab565b3480156107bf57600080fd5b5061072f600480360360608110156107d657600080fd5b506001600160a01b038135811691602081013590911690604001356122ba565b34801561080257600080fd5b506102b06004803603608081101561081957600080fd5b506001600160a01b0381351690602081013590604081013590606001356123ac565b34801561084757600080fd5b506102b06004803603604081101561085e57600080fd5b506001600160a01b0381351690602001356126c6565b34801561088057600080fd5b506102b06004803603602081101561089757600080fd5b50356001600160a01b031661274e565b7f000000000000000000000000000000000000000000000000000000000000000081565b60006108d8600683612850565b92915050565b6001600160a01b031660009081526003602052604090205490565b61090161285c565b6001600160a01b0316610912611c01565b6001600160a01b03161461095b576040805162461bcd60e51b815260206004820181905260248201526000805160206130a4833981519152604482015290519081900360640190fd5b601280546001600160a01b0319166001600160a01b0392909216919091179055565b600260015414156109c3576040805162461bcd60e51b815260206004820152601f602482015260008051602061303d833981519152604482015290519081900360640190fd5b600260015580610a0b576040805162461bcd60e51b815260206004820152600e60248201526d16915493c815d2551211149055d360921b604482015290519081900360640190fd5b3360009081526002602081815260408084206001600160a01b038916855290920190528120805485908110610a3c57fe5b90600052602060002001549050600060036000876001600160a01b03166001600160a01b031681526020019081526020016000208281548110610a7b57fe5b906000526020600020906006020190508382148015610aa6575060058101546001600160a01b031633145b610ae7576040805162461bcd60e51b815260206004820152600d60248201526c0989e8696409a92a69a82a8869609b1b604482015290519081900360640190fd5b42816003015410610b29576040805162461bcd60e51b81526020600482015260076024820152661393d50816515560ca1b604482015290519081900360640190fd5b6001810154610b389084612860565b60018201819055610be4573360009081526002602081815260408084206001600160a01b038b16855290920190529020805481906000198101908110610b7a57fe5b9060005260206000200154818781548110610b9157fe5b906000526020600020018190555080805480610ba957fe5b6000828152602081208201600019908101919091550190558054610be257336000908152600260205260409020610be090886128bd565b505b505b610bef8633856128d2565b6040805184815290516001600160a01b038816917fccad973dcd043c7d680389db4378bd6b9775db7124092e9e0422c9e46d7985dc919081900360200190a250506001805550505050565b6000610c466004612a3c565b905090565b60026001541415610c91576040805162461bcd60e51b815260206004820152601f602482015260008051602061303d833981519152604482015290519081900360640190fd5b600260015580610cd6576040805162461bcd60e51b815260206004820152600b60248201526a16915493c8105353d5539560aa1b604482015290519081900360640190fd5b3360009081526002602081815260408084206001600160a01b038916855290920190528120805485908110610d0757fe5b90600052602060002001549050600060036000876001600160a01b03166001600160a01b031681526020019081526020016000208281548110610d4657fe5b906000526020600020906006020190508382148015610d71575060058101546001600160a01b031633145b610db2576040805162461bcd60e51b815260206004820152600d60248201526c0989e8696409a92a69a82a8869609b1b604482015290519081900360640190fd5b6008543414610df6576040805162461bcd60e51b815260206004820152600b60248201526a119151481393d50813515560aa1b604482015290519081900360640190fd5b6011546008546040516001600160a01b039092169181156108fc0291906000818181858888f19350505050158015610e32573d6000803e3d6000fd5b506001810154610e429084612860565b6001820155610e4f612fdb565b8154815260208082018581526040808401968752600394850154606085019081526001600160a01b039a8b1660008181528786528381208054608089018181523360a08b018181528c8b52600180850186559486528a86209b516006909402909b019283559751828401559b516002808301919091559451998101999099558a5160048a01559651600590980180546001600160a01b03191698909d1697909717909b559185528183528085209985529801815296822093518454808301865594835296909120909201949094558055505050565b60026001541415610f6a576040805162461bcd60e51b815260206004820152601f602482015260008051602061303d833981519152604482015290519081900360640190fd5b60026001556402540be4008110610fbc576040805162461bcd60e51b81526020600482015260116024820152701512535154d51053540812539590531251607a1b604482015290519081900360640190fd5b3360009081526002602081815260408084206001600160a01b038916855290920190528120805485908110610fed57fe5b90600052602060002001549050600060036000876001600160a01b03166001600160a01b03168152602001908152602001600020828154811061102c57fe5b906000526020600020906006020190508382148015611057575060058101546001600160a01b031633145b611098576040805162461bcd60e51b815260206004820152600d60248201526c0989e8696409a92a69a82a8869609b1b604482015290519081900360640190fd5b828160030154106110e0576040805162461bcd60e51b815260206004820152600d60248201526c554e4c4f434b204245464f524560981b604482015290519081900360640190fd5b600061110a6103e86111046008600401548560010154612a4790919063ffffffff16565b90612aa0565b9050600061112582846001015461286090919063ffffffff16565b600184018190556003840186905560115490915061114e9089906001600160a01b0316846128d2565b505060018055505050505050565b61116461285c565b6001600160a01b0316611175611c01565b6001600160a01b0316146111be576040805162461bcd60e51b815260206004820181905260248201526000805160206130a4833981519152604482015290519081900360640190fd5b600080546040516001600160a01b03909116907f8be0079c531659141344cd1fd0a4f28419497f9722a3daafe3b4186f6b6457e0908390a3600080546001600160a01b0319169055565b6000610c466006612a3c565b6012546001600160a01b031681565b61122b61285c565b6001600160a01b031661123c611c01565b6001600160a01b031614611285576040805162461bcd60e51b815260206004820181905260248201526000805160206130a4833981519152604482015290519081900360640190fd5b600d95909555601093909355600891909155600a55600b55600c55565b6112aa61285c565b6001600160a01b03166112bb611c01565b6001600160a01b031614611304576040805162461bcd60e51b815260206004820181905260248201526000805160206130a4833981519152604482015290519081900360640190fd5b600980546001600160a01b0319166001600160a01b0392909216919091179055565b6002600154141561136c576040805162461bcd60e51b815260206004820152601f602482015260008051602061303d833981519152604482015290519081900360640190fd5b60026001556402540be40084106113be576040805162461bcd60e51b81526020600482015260116024820152701512535154d51053540812539590531251607a1b604482015290519081900360640190fd5b60008511611402576040805162461bcd60e51b815260206004820152600c60248201526b125394d551919250d251539560a21b604482015290519081900360640190fd5b600086905060007f00000000000000000000000000000000000000000000000000000000000000006001600160a01b031663e6a43905836001600160a01b0316630dfe16816040518163ffffffff1660e01b815260040160206040518083038186803b15801561147157600080fd5b505afa158015611485573d6000803e3d6000fd5b505050506040513d602081101561149b57600080fd5b50516040805163d21220a760e01b815290516001600160a01b0387169163d21220a7916004808301926020929190829003018186803b1580156114dd57600080fd5b505afa1580156114f1573d6000803e3d6000fd5b505050506040513d602081101561150757600080fd5b5051604080516001600160e01b031960e086901b1681526001600160a01b039384166004820152929091166024830152516044808301926020929190829003018186803b15801561155757600080fd5b505afa15801561156b573d6000803e3d6000fd5b505050506040513d602081101561158157600080fd5b505190506001600160a01b03808216908916146115d0576040805162461bcd60e51b81526020600482015260086024820152674e4f542043414b4560c01b604482015290519081900360640190fd5b6115dc8833308a612b07565b6001600160a01b038516158015906115fe5750600e546001600160a01b031615155b156116c757600f54600e54604080516370a0823160e01b81526001600160a01b038981166004830152915191909216916370a08231916024808301926020929190829003018186803b15801561165357600080fd5b505afa158015611667573d6000803e3d6000fd5b505050506040513d602081101561167d57600080fd5b505110156116c7576040805162461bcd60e51b8152602060048201526012602482015271494e41444551554154452042414c414e434560701b604482015290519081900360640190fd5b6116d2600433612c64565b611940578315611812576008546001600160a01b0386161561170957601054611706906103e8906111049084908303612a47565b90505b80341461174b576040805162461bcd60e51b815260206004820152600b60248201526a119151481393d50813515560aa1b604482015290519081900360640190fd5b80801580159061176357506001600160a01b03871615155b156117d05760006117886103e861110460086005015485612a4790919063ffffffff16565b6040519091506001600160a01b0389169082156108fc029083906000818181858888f193505050501580156117c1573d6000803e3d6000fd5b506117cc8282612860565b9150505b6011546040516001600160a01b039091169082156108fc029083906000818181858888f1935050505015801561180a573d6000803e3d6000fd5b50505061193b565b600a546001600160a01b0386161561183f5760105461183c906103e8906111049084908303612a47565b90505b600954611857906001600160a01b0316333084612b07565b600d541580159061187057506001600160a01b03861615155b156118d45760006118956103e861110460086005015485612a4790919063ffffffff16565b6009549091506118af906001600160a01b03168883612c79565b6009546118c6906001600160a01b031688836128d2565b6118d08282612860565b9150505b60095460408051630852cd8d60e31b81526004810184905290516001600160a01b03909216916342966c689160248082019260009290919082900301818387803b15801561192157600080fd5b505af1158015611935573d6000803e3d6000fd5b50505050505b611974565b34156119745760405133903480156108fc02916000818181858888f19350505050158015611972573d6000803e3d6000fd5b505b60006119946103e86111046008600401548b612a4790919063ffffffff16565b9050841580156119ac57506119aa600433612c64565b155b156119cc57600b546119c9906103e8906111049084908303612a47565b90505b6011546119e4908a906001600160a01b0316836128d2565b60006119f08983612860565b90506119fa612fdb565b42816000018181525050818160200181815250508181604001818152505088816060018181525050600360008c6001600160a01b03166001600160a01b0316815260200190815260200160002080549050816080018181525050858160a001906001600160a01b031690816001600160a01b031681525050600360008c6001600160a01b03166001600160a01b03168152602001908152602001600020819080600181540180825580915050600190039060005260206000209060060201600090919091909150600082015181600001556020820151816001015560408201518160020155606082015181600301556080820151816004015560a08201518160050160006101000a8154816001600160a01b0302191690836001600160a01b031602179055505050611b368b6006612ddc90919063ffffffff16565b506001600160a01b0386166000908152600260205260409020611b59818d612ddc565b506001600160a01b038c16600081815260028301602090815260408083206080870151815460018101835582865294849020909401939093558582015186516060808901518451938452948301919091528183019390935290519293339390927f830357565da6ecfc26d8d9f69df488ed6f70361af9a07e570544aeb5c5e765e5928290030190a35050600180555050505050505050505050565b60006108d8600483612850565b6000546001600160a01b031690565b6001600160a01b0382166000908152600260205260408120611c328184612850565b949350505050565b611c4261285c565b6001600160a01b0316611c53611c01565b6001600160a01b031614611c9c576040805162461bcd60e51b815260206004820181905260248201526000805160206130a4833981519152604482015290519081900360640190fd5b8015611cb357611cad600483612ddc565b50611cc0565b611cbe6004836128bd565b505b5050565b600854600954600a54600b54600c54600d54600e54600f546010546001600160a01b03978816979092169189565b6001600160a01b0381166000908152600260205260408120611d1381612a3c565b9392505050565b6001600160a01b0391821660009081526002602081815260408084209490951683529201909152205490565b60026001541415611d8c576040805162461bcd60e51b815260206004820152601f602482015260008051602061303d833981519152604482015290519081900360640190fd5b600260015580611dd1576040805162461bcd60e51b815260206004820152600b60248201526a16915493c8105353d5539560aa1b604482015290519081900360640190fd5b3360009081526002602081815260408084206001600160a01b038916855290920190528120805485908110611e0257fe5b90600052602060002001549050600060036000876001600160a01b03166001600160a01b031681526020019081526020016000208281548110611e4157fe5b906000526020600020906006020190508382148015611e6c575060058101546001600160a01b031633145b611ead576040805162461bcd60e51b815260206004820152600d60248201526c0989e8696409a92a69a82a8869609b1b604482015290519081900360640190fd5b611eb986333086612b07565b6000611ed96103e861110460086004015487612a4790919063ffffffff16565b601154909150611ef49088906001600160a01b0316836128d2565b6000611f008583612860565b6001840154909150611f129082612df1565b600184015582546003840154604080518481526020810193909352828101919091525133916001600160a01b038b16917f830357565da6ecfc26d8d9f69df488ed6f70361af9a07e570544aeb5c5e765e59181900360600190a3505060018055505050505050565b60006108d8600483612c64565b336001600160a01b03821614801590611f9f57503315155b611fe2576040805162461bcd60e51b815260206004820152600f60248201526e494e56414c4944204144445245535360881b604482015290519081900360640190fd5b3360009081526002602081815260408084206001600160a01b03891685529092019052812080548590811061201357fe5b90600052602060002001549050600060036000876001600160a01b03166001600160a01b03168152602001908152602001600020828154811061205257fe5b90600052602060002090600602019050838214801561207d575060058101546001600160a01b031633145b6120be576040805162461bcd60e51b815260206004820152600d60248201526c0989e8696409a92a69a82a8869609b1b604482015290519081900360640190fd5b6001600160a01b03831660009081526002602052604090206120e08188612ddc565b506001600160a01b0387166000818152600280840160209081526040808420600488015481546001810183558287528487200155338552838352818520958552949092019052902080548190600019810190811061213a57fe5b906000526020600020015481898154811061215157fe5b90600052602060002001819055508080548061216957fe5b60008281526020812082016000199081019190915501905580546121a2573360009081526002602052604090206121a0908a6128bd565b505b50505060050180546001600160a01b0319166001600160a01b03939093169290921790915550505050565b600360205281600052604060002081815481106121e657fe5b60009182526020909120600690910201805460018201546002830154600384015460048501546005909501549396509194509290916001600160a01b031686565b61222f61285c565b6001600160a01b0316612240611c01565b6001600160a01b031614612289576040805162461bcd60e51b815260206004820181905260248201526000805160206130a4833981519152604482015290519081900360640190fd5b601180546001600160a01b0319166001600160a01b0392909216919091179055565b6011546001600160a01b031681565b6000806000806000806000600260008b6001600160a01b03166001600160a01b0316815260200190815260200160002060020160008a6001600160a01b03166001600160a01b03168152602001908152602001600020888154811061231b57fe5b906000526020600020015490506000600360008b6001600160a01b03166001600160a01b03168152602001908152602001600020828154811061235a57fe5b6000918252602090912060069091020180546001820154600283015460038401546004850154600590950154939c50919a50985096509094506001600160a01b03169250505093975093979195509350565b600260015414156123f2576040805162461bcd60e51b815260206004820152601f602482015260008051602061303d833981519152604482015290519081900360640190fd5b60026001556012546001600160a01b031661243e576040805162461bcd60e51b81526020600482015260076024820152661393d50814d15560ca1b604482015290519081900360640190fd5b60008111612484576040805162461bcd60e51b815260206004820152600e60248201526d2d22a9279026a4a3a920aa24a7a760911b604482015290519081900360640190fd5b3360009081526002602081815260408084206001600160a01b0389168552909201905281208054859081106124b557fe5b90600052602060002001549050600060036000876001600160a01b03166001600160a01b0316815260200190815260200160002082815481106124f457fe5b90600052602060002090600602019050838214801561251f575060058101546001600160a01b031633145b612560576040805162461bcd60e51b815260206004820152600d60248201526c0989e8696409a92a69a82a8869609b1b604482015290519081900360640190fd5b600181015461256f9084612860565b6001820181905561261b573360009081526002602081815260408084206001600160a01b038b168552909201905290208054819060001981019081106125b157fe5b90600052602060002001548187815481106125c857fe5b9060005260206000200181905550808054806125e057fe5b60008281526020812082016000199081019190915501905580546126195733600090815260026020526040902061261790886128bd565b505b505b6012546126339087906001600160a01b031685612c79565b60125460038201546040805163db5ecd3f60e01b81526001600160a01b038a811660048301526024820188905260448201939093523360648201529051919092169163db5ecd3f9160848083019260209291908290030181600087803b15801561269c57600080fd5b505af11580156126b0573d6000803e3d6000fd5b505050506040513d602081101561114e57600080fd5b6126ce61285c565b6001600160a01b03166126df611c01565b6001600160a01b031614612728576040805162461bcd60e51b815260206004820181905260248201526000805160206130a4833981519152604482015290519081900360640190fd5b600e80546001600160a01b0319166001600160a01b039390931692909217909155600f55565b61275661285c565b6001600160a01b0316612767611c01565b6001600160a01b0316146127b0576040805162461bcd60e51b815260206004820181905260248201526000805160206130a4833981519152604482015290519081900360640190fd5b6001600160a01b0381166127f55760405162461bcd60e51b815260040180806020018281038252602681526020018061305d6026913960400191505060405180910390fd5b600080546040516001600160a01b03808516939216917f8be0079c531659141344cd1fd0a4f28419497f9722a3daafe3b4186f6b6457e091a3600080546001600160a01b0319166001600160a01b0392909216919091179055565b6000611d138383612e4b565b3390565b6000828211156128b7576040805162461bcd60e51b815260206004820152601e60248201527f536166654d6174683a207375627472616374696f6e206f766572666c6f770000604482015290519081900360640190fd5b50900390565b6000611d13836001600160a01b038416612eaf565b604080516001600160a01b038481166024830152604480830185905283518084039091018152606490920183526020820180516001600160e01b031663a9059cbb60e01b178152925182516000946060949389169392918291908083835b6020831061294f5780518252601f199092019160209182019101612930565b6001836020036101000a0380198251168184511680821785525050505050509050019150506000604051808303816000865af19150503d80600081146129b1576040519150601f19603f3d011682016040523d82523d6000602084013e6129b6565b606091505b50915091508180156129e45750805115806129e457508080602001905160208110156129e157600080fd5b50515b612a35576040805162461bcd60e51b815260206004820152601f60248201527f5472616e7366657248656c7065723a205452414e534645525f4641494c454400604482015290519081900360640190fd5b5050505050565b60006108d882612f75565b600082612a56575060006108d8565b82820282848281612a6357fe5b0414611d135760405162461bcd60e51b81526004018080602001828103825260218152602001806130836021913960400191505060405180910390fd5b6000808211612af6576040805162461bcd60e51b815260206004820152601a60248201527f536166654d6174683a206469766973696f6e206279207a65726f000000000000604482015290519081900360640190fd5b818381612aff57fe5b049392505050565b604080516001600160a01b0385811660248301528481166044830152606480830185905283518084039091018152608490920183526020820180516001600160e01b03166323b872dd60e01b17815292518251600094606094938a169392918291908083835b60208310612b8c5780518252601f199092019160209182019101612b6d565b6001836020036101000a0380198251168184511680821785525050505050509050019150506000604051808303816000865af19150503d8060008114612bee576040519150601f19603f3d011682016040523d82523d6000602084013e612bf3565b606091505b5091509150818015612c21575080511580612c215750808060200190516020811015612c1e57600080fd5b50515b612c5c5760405162461bcd60e51b81526004018080602001828103825260248152602001806130c46024913960400191505060405180910390fd5b505050505050565b6000611d13836001600160a01b038416612f79565b604080516001600160a01b038481166024830152604480830185905283518084039091018152606490920183526020820180516001600160e01b031663095ea7b360e01b178152925182516000946060949389169392918291908083835b60208310612cf65780518252601f199092019160209182019101612cd7565b6001836020036101000a0380198251168184511680821785525050505050509050019150506000604051808303816000865af19150503d8060008114612d58576040519150601f19603f3d011682016040523d82523d6000602084013e612d5d565b606091505b5091509150818015612d8b575080511580612d8b5750808060200190516020811015612d8857600080fd5b50515b612a35576040805162461bcd60e51b815260206004820152601e60248201527f5472616e7366657248656c7065723a20415050524f56455f4641494c45440000604482015290519081900360640190fd5b6000611d13836001600160a01b038416612f91565b600082820183811015611d13576040805162461bcd60e51b815260206004820152601b60248201527f536166654d6174683a206164646974696f6e206f766572666c6f770000000000604482015290519081900360640190fd5b81546000908210612e8d5760405162461bcd60e51b815260040180806020018281038252602281526020018061301b6022913960400191505060405180910390fd5b826000018281548110612e9c57fe5b9060005260206000200154905092915050565b60008181526001830160205260408120548015612f6b5783546000198083019190810190600090879083908110612ee257fe5b9060005260206000200154905080876000018481548110612eff57fe5b600091825260208083209091019290925582815260018981019092526040902090840190558654879080612f2f57fe5b600190038181906000526020600020016000905590558660010160008781526020019081526020016000206000905560019450505050506108d8565b60009150506108d8565b5490565b60009081526001919091016020526040902054151590565b6000612f9d8383612f79565b612fd3575081546001818101845560008481526020808220909301849055845484825282860190935260409020919091556108d8565b5060006108d8565b6040518060c00160405280600081526020016000815260200160008152602001600081526020016000815260200160006001600160a01b03168152509056fe456e756d657261626c655365743a20696e646578206f7574206f6620626f756e64735265656e7472616e637947756172643a207265656e7472616e742063616c6c004f776e61626c653a206e6577206f776e657220697320746865207a65726f2061646472657373536166654d6174683a206d756c7469706c69636174696f6e206f766572666c6f774f776e61626c653a2063616c6c6572206973206e6f7420746865206f776e65725472616e7366657248656c7065723a205452414e534645525f46524f4d5f4641494c4544a264697066735822122062a94b683bd5b75db63618cb6dac0b8492d256a0754dfb03b759bbc259f2087e64736f6c634300060c0033",
  "immutableReferences": {
    "4131": [
      {
        "length": 32,
        "start": 2217
      },
      {
        "length": 32,
        "start": 5131
      }
    ]
  },
  "source": "// SPDX-License-Identifier: MIT\n\n/**\n * @title Locker of Pancake launchpad enviroment\n * @dev This contract manages locks of pancakeswap LP tokens. LP tokens can be locked for\n * a specific time, locks can be incremented, split up into multiple locks, relocked and\n * withdrawn by owner if the unlock date is met.\n */\n\npragma solidity 0.6.12;\n\nimport \"@openzeppelin/contracts/utils/EnumerableSet.sol\";\nimport \"@openzeppelin/contracts/math/SafeMath.sol\";\nimport \"@openzeppelin/contracts/utils/ReentrancyGuard.sol\";\nimport \"@openzeppelin/contracts/access/Ownable.sol\";\n\nimport \"../interfaces/pancake/IPancakePair.sol\";\nimport \"../interfaces/pancake/IPancakeFactory.sol\";\nimport \"../interfaces/IERC20Burn.sol\";\nimport \"../interfaces/IMigrator.sol\";\nimport \"../interfaces/IPancakeLocker.sol\";\n\nimport \"./TransferHelper.sol\";\n\ncontract PancakeLocker is IPancakeLocker, Ownable, ReentrancyGuard {\n    using SafeMath for uint256;\n    using EnumerableSet for EnumerableSet.AddressSet;\n\n    /*---------------------------------------------------------------------------------------------\n     * -------------------------------------------Structs-------------------------------------------\n     */\n\n    // holding lock information for user\n    struct UserInfo {\n        EnumerableSet.AddressSet lockedTokens; // list of locked LP tokens by user\n        mapping(address => uint256[]) locksForToken;\n    }\n\n    // holding information about a token lock\n    struct TokenLock {\n        uint256 lockDate; // unix timestamp of locking date\n        uint256 amount; // current amount in the lock\n        uint256 initialAmount; // total amount added initially on locking\n        uint256 unlockDate; // unix timestamp for ealiest unlock\n        uint256 lockID; // unique identifier of a token lcok\n        address owner; // owner address of the locked token allowed for access control\n    }\n\n    // holding information about the fees for a lock\n    struct FeeStruct {\n        uint256 bnbFee; // bnb fee charged on non whitelisted locking\n        IERC20Burn secondaryFeeToken; // fee token optional to bnb\n        uint256 secondaryTokenFee; // realative fee on fee token in parts per 1000\n        uint256 secondaryTokenDiscount; // discount on liquidity fee\n        uint256 liquidityFee; // fee on LP tokens\n        uint256 referralPercent; // relative fee for referral in parts per 1000\n        IERC20Burn referralToken; // token referrer has to hold\n        uint256 referralHold; // amount of referral token referrer has to hold\n        uint256 referralDiscount; // discount on fees for providing valid referrer\n    }\n\n    mapping(address => UserInfo) private users; // user infos for each user\n    mapping(address => TokenLock[]) public tokenLocks; // token lock info for each LP token\n\n    EnumerableSet.AddressSet private feeWhitelist; // addresses for locking without fees\n    EnumerableSet.AddressSet private lockedTokens; // addresses of locked LP tokens\n\n    FeeStruct public fees; // holding all fee information\n\n    address payable public devaddr; // receiving fees\n    address public migrator; //migrates locks\n    IPancakeFactory public immutable KINKO_FACTORY; // factory of the LP token\n\n    /*---------------------------------------------------------------------------------------------\n     * -------------------------------------------Events-------------------------------------------\n     */\n    event onDeposit(\n        address indexed lpToken,\n        address indexed user,\n        uint256 amount,\n        uint256 lockDate,\n        uint256 unlockDate\n    );\n    event onWithdraw(address indexed lpToken, uint256 amount);\n\n    /**\n     * @dev sets initially contract dependend addresses and fee parameter\n     * @param _pancakeFactory address of the pancake factory\n     */\n    constructor(address _pancakeFactory) public {\n        require(_pancakeFactory != address(0), \"ZERO ADDRESS\");\n        KINKO_FACTORY = IPancakeFactory(_pancakeFactory);\n        devaddr = msg.sender;\n\n        fees.referralPercent = 250; // 250/1000 => 25%\n        fees.bnbFee = 1 ether;\n        fees.secondaryTokenFee = 100 ether;\n        fees.secondaryTokenDiscount = 200;\n        fees.liquidityFee = 10;\n        fees.referralHold = 10 ether;\n        fees.referralDiscount = 100;\n    }\n\n    /**\n     * @notice locks specific amount of LP tokens for a given period of time\n     * @dev fees are calculated if caller is not whitelisted\n     * @param _lpToken address of the LP token to be locked\n     * @param _amount total amount of LP tokens to be locked\n     * @param _unlockDate unix timestamp when withdrawer is allowed to unlock LP tokens\n     * @param _referral address of referrer for token locking\n     * @param _feeInGlmr bool indicating if base token is BNB\n     * @param _withdrawer address which is allowed to unlock lock LP tokens after unlock date\n     */\n    function lockLPToken(\n        address _lpToken,\n        uint256 _amount,\n        uint256 _unlockDate,\n        address payable _referral,\n        bool _feeInGlmr,\n        address payable _withdrawer\n    ) external payable override nonReentrant {\n        require(_unlockDate < 10000000000, \"TIMESTAMP INVALID\");\n        require(_amount > 0, \"INSUFFICIENT\");\n\n        // get LP from pancake factory\n        IPancakePair lpair = IPancakePair(address(_lpToken));\n        address factoryPairAddress = KINKO_FACTORY.getPair(\n            lpair.token0(),\n            lpair.token1()\n        );\n        require(factoryPairAddress == address(_lpToken), \"NOT CAKE\");\n\n        // transfer lock amount to pancake locker\n        TransferHelper.safeTransferFrom(\n            _lpToken,\n            address(msg.sender),\n            address(this),\n            _amount\n        );\n\n        // check if referrer holds sufficient referral token\n        if (\n            _referral != address(0) && address(fees.referralToken) != address(0)\n        ) {\n            require(\n                fees.referralToken.balanceOf(_referral) >= fees.referralHold,\n                \"INADEQUATE BALANCE\"\n            );\n        }\n\n        // caller not whitelisted - charge fees\n        if (!feeWhitelist.contains(msg.sender)) {\n            // charge fee with BNB token\n            if (_feeInGlmr) {\n                uint256 bnbFee = fees.bnbFee;\n                // calculate discounted fee for providing valid referrer\n                if (_referral != address(0)) {\n                    bnbFee = bnbFee.mul(1000 - fees.referralDiscount).div(1000);\n                }\n                require(msg.value == bnbFee, \"FEE NOT MET\");\n\n                // calculate referral fee\n                uint256 devFee = bnbFee;\n                if (bnbFee != 0 && _referral != address(0)) {\n                    uint256 referralFee = devFee.mul(fees.referralPercent).div(\n                        1000\n                    );\n                    _referral.transfer(referralFee);\n                    devFee = devFee.sub(referralFee);\n                }\n                // transfer referral fee\n                devaddr.transfer(devFee);\n            } else {\n                // burn fee in non BNB token\n                uint256 burnFee = fees.secondaryTokenFee;\n                // calculate discounted fee for providing valid referrer\n                if (_referral != address(0)) {\n                    burnFee = burnFee.mul(1000 - fees.referralDiscount).div(\n                        1000\n                    );\n                }\n                TransferHelper.safeTransferFrom(\n                    address(fees.secondaryFeeToken),\n                    address(msg.sender),\n                    address(this),\n                    burnFee\n                );\n                // calculate and transfer referral fee\n                if (fees.referralPercent != 0 && _referral != address(0)) {\n                    uint256 referralFee = burnFee.mul(fees.referralPercent).div(\n                        1000\n                    );\n                    TransferHelper.safeApprove(\n                        address(fees.secondaryFeeToken),\n                        _referral,\n                        referralFee\n                    );\n                    TransferHelper.safeTransfer(\n                        address(fees.secondaryFeeToken),\n                        _referral,\n                        referralFee\n                    );\n                    burnFee = burnFee.sub(referralFee);\n                }\n                // burn remaining fee tokens\n                fees.secondaryFeeToken.burn(burnFee);\n            }\n        } else if (msg.value > 0) {\n            // send back BNB for whitelisted callers\n            msg.sender.transfer(msg.value);\n        }\n\n        // calculate liquidity fee and send to dev address\n        uint256 liquidityFee = _amount.mul(fees.liquidityFee).div(1000);\n        if (!_feeInGlmr && !feeWhitelist.contains(msg.sender)) {\n            liquidityFee = liquidityFee\n                .mul(1000 - fees.secondaryTokenDiscount)\n                .div(1000);\n        }\n        TransferHelper.safeTransfer(_lpToken, devaddr, liquidityFee);\n        uint256 amountLocked = _amount.sub(liquidityFee);\n\n        // set variables for token lock\n        TokenLock memory token_lock;\n        token_lock.lockDate = block.timestamp;\n        token_lock.amount = amountLocked;\n        token_lock.initialAmount = amountLocked;\n        token_lock.unlockDate = _unlockDate;\n        token_lock.lockID = tokenLocks[_lpToken].length;\n        token_lock.owner = _withdrawer;\n\n        // update LP token with token lock\n        tokenLocks[_lpToken].push(token_lock);\n        lockedTokens.add(_lpToken);\n\n        // update user with locked LP token\n        UserInfo storage user = users[_withdrawer];\n        user.lockedTokens.add(_lpToken);\n        uint256[] storage user_locks = user.locksForToken[_lpToken];\n        user_locks.push(token_lock.lockID);\n\n        emit onDeposit(\n            _lpToken,\n            msg.sender,\n            token_lock.amount,\n            token_lock.lockDate,\n            token_lock.unlockDate\n        );\n    }\n\n    /**\n     * @notice relocks the locked LP token by lock owner. A liquidity fee is calculated on\n     * the locking amount. The new locking amount is old locking amount minus liquidity fee.\n     * @param _lpToken address of the LP token to be relocked\n     * @param _index position of the lock in the user locks for specific LP token set\n     * @param _lockID unique identifier of the token lock\n     * @param _unlockDate unix timestamp when withdrawer is allowed to unlock LP tokens\n     */\n    function relock(\n        address _lpToken,\n        uint256 _index,\n        uint256 _lockID,\n        uint256 _unlockDate\n    ) external nonReentrant {\n        require(_unlockDate < 10000000000, \"TIMESTAMP INVALID\");\n\n        // check if lock is valid and sender is owner\n        uint256 lockID = users[msg.sender].locksForToken[_lpToken][_index];\n        TokenLock storage tokenLock = tokenLocks[_lpToken][lockID];\n        require(\n            lockID == _lockID && tokenLock.owner == msg.sender,\n            \"LOCK MISMATCH\"\n        );\n        // check if unlock timestamp is met to update LP tokens lock\n        require(tokenLock.unlockDate < _unlockDate, \"UNLOCK BEFORE\");\n\n        // calculate liquidity fee and new locking amount\n        uint256 liquidityFee = tokenLock.amount.mul(fees.liquidityFee).div(\n            1000\n        );\n        uint256 amountLocked = tokenLock.amount.sub(liquidityFee);\n\n        // update lock parameter with new locking amount and unlock date\n        tokenLock.amount = amountLocked;\n        tokenLock.unlockDate = _unlockDate;\n\n        // transfer liquidity fee to developer address\n        TransferHelper.safeTransfer(_lpToken, devaddr, liquidityFee);\n    }\n\n    /**\n     * @notice withdraws the desired amount of locked token by lock owner. Unlock timestamp\n     * has to be met.\n     * @param _lpToken address of the LP token to be withdrawn\n     * @param _index position of the lock in the user locks for specific LP token set\n     * @param _lockID unique identifier of the token lock\n     * @param _amount amount to be withdrawn from the lock\n     */\n    function withdraw(\n        address _lpToken,\n        uint256 _index,\n        uint256 _lockID,\n        uint256 _amount\n    ) external nonReentrant {\n        require(_amount > 0, \"ZERO WITHDRAWL\");\n\n        // check if lock is valid and sender is owner\n        uint256 lockID = users[msg.sender].locksForToken[_lpToken][_index];\n        TokenLock storage userLock = tokenLocks[_lpToken][lockID];\n        require(\n            lockID == _lockID && userLock.owner == msg.sender,\n            \"LOCK MISMATCH\"\n        );\n        // check if unlock timestamp is met to update LP tokens lock\n        require(userLock.unlockDate < block.timestamp, \"NOT YET\");\n        userLock.amount = userLock.amount.sub(_amount);\n\n        // remove lock if total amount is withdrawn\n        if (userLock.amount == 0) {\n            uint256[] storage userLocks = users[msg.sender].locksForToken[\n                _lpToken\n            ];\n            userLocks[_index] = userLocks[userLocks.length - 1];\n            userLocks.pop();\n            // remove users locked tokens if user has no other locks for same LP left\n            if (userLocks.length == 0) {\n                users[msg.sender].lockedTokens.remove(_lpToken);\n            }\n        }\n\n        // transfer desired unlocked amount to caller (lock owner)\n        TransferHelper.safeTransfer(_lpToken, msg.sender, _amount);\n        emit onWithdraw(_lpToken, _amount);\n    }\n\n    /**\n     * @notice increments the locked LP tokens amount by lock owner. A liquidity fee is\n     * charged on sending additional tokens to the locking contract.\n     * @param _lpToken address of the LP token to increment lock\n     * @param _index position of the lock in the user locks for specific LP token set\n     * @param _lockID unique identifier of the token lock\n     * @param _amount additional LP amount to be locked\n     */\n    function incrementLock(\n        address _lpToken,\n        uint256 _index,\n        uint256 _lockID,\n        uint256 _amount\n    ) external nonReentrant {\n        require(_amount > 0, \"ZERO AMOUNT\");\n\n        // check if lock is valid and sender is owner\n        uint256 lockID = users[msg.sender].locksForToken[_lpToken][_index];\n        TokenLock storage userLock = tokenLocks[_lpToken][lockID];\n        require(\n            lockID == _lockID && userLock.owner == msg.sender,\n            \"LOCK MISMATCH\"\n        );\n\n        // transfer desired additional LP lock amount\n        TransferHelper.safeTransferFrom(\n            _lpToken,\n            address(msg.sender),\n            address(this),\n            _amount\n        );\n\n        // calculate and transfer liquidity fee to developer address\n        uint256 liquidityFee = _amount.mul(fees.liquidityFee).div(1000);\n        TransferHelper.safeTransfer(_lpToken, devaddr, liquidityFee);\n\n        // increment amount in token lock\n        uint256 amountLocked = _amount.sub(liquidityFee);\n        userLock.amount = userLock.amount.add(amountLocked);\n\n        emit onDeposit(\n            _lpToken,\n            msg.sender,\n            amountLocked,\n            userLock.lockDate,\n            userLock.unlockDate\n        );\n    }\n\n    /**\n     * @notice splits up a specific token lock and creates an other new token lock with\n     * the given amount. The existing token lock is reduced by the equivalent amount.\n     * @dev a fee in BNB (bnbFee) is required to be sent by calling to create a new lock\n     * @param _lpToken address of the LP token to be split up\n     * @param _index position of the lock in the user locks for specific LP token set\n     * @param _lockID unique identifier of the token lock to be split up\n     * @param _amount LP amount to create a new lock with\n     */\n    function splitLock(\n        address _lpToken,\n        uint256 _index,\n        uint256 _lockID,\n        uint256 _amount\n    ) external payable nonReentrant {\n        require(_amount > 0, \"ZERO AMOUNT\");\n\n        // check if lock is valid and sender is owner\n        uint256 lockID = users[msg.sender].locksForToken[_lpToken][_index];\n        TokenLock storage userLock = tokenLocks[_lpToken][lockID];\n        require(\n            lockID == _lockID && userLock.owner == msg.sender,\n            \"LOCK MISMATCH\"\n        );\n\n        // trasnfer BNB as fee to developer address\n        require(msg.value == fees.bnbFee, \"FEE NOT MET\");\n        devaddr.transfer(fees.bnbFee);\n\n        // reduce existing lock amount with given amount\n        userLock.amount = userLock.amount.sub(_amount);\n\n        // create new lock with given amount\n        TokenLock memory token_lock;\n        token_lock.lockDate = userLock.lockDate;\n        token_lock.amount = _amount;\n        token_lock.initialAmount = _amount;\n        token_lock.unlockDate = userLock.unlockDate;\n        token_lock.lockID = tokenLocks[_lpToken].length;\n        token_lock.owner = msg.sender;\n        tokenLocks[_lpToken].push(token_lock);\n\n        // update users locks\n        UserInfo storage user = users[msg.sender];\n        uint256[] storage user_locks = user.locksForToken[_lpToken];\n        user_locks.push(token_lock.lockID);\n    }\n\n    /**\n     * @notice transfers the lock owner ship to a new owner by the current owner\n     * @param _lpToken address of the LP token to transfer the ownership of the lock for\n     * @param _index position of the lock in the user locks for specific LP token set\n     * @param _lockID unique identifier of the token lock to be split up\n     * @param _newOwner address of the new lock owner\n     */\n    function transferLockOwnership(\n        address _lpToken,\n        uint256 _index,\n        uint256 _lockID,\n        address payable _newOwner\n    ) external {\n        require(\n            msg.sender != _newOwner && msg.sender != address(0),\n            \"INVALID ADDRESS\"\n        );\n        // check if lock is valid and sender is owner\n        uint256 lockID = users[msg.sender].locksForToken[_lpToken][_index];\n        TokenLock storage transferredLock = tokenLocks[_lpToken][lockID];\n        require(\n            lockID == _lockID && transferredLock.owner == msg.sender,\n            \"LOCK MISMATCH\"\n        );\n\n        // add lock information to the new owner\n        UserInfo storage user = users[_newOwner];\n        user.lockedTokens.add(_lpToken);\n        uint256[] storage newOwnerLocks = user.locksForToken[_lpToken];\n        newOwnerLocks.push(transferredLock.lockID);\n\n        // remove lock information from old owner\n        uint256[] storage oldOwnerLocks = users[msg.sender].locksForToken[\n            _lpToken\n        ];\n        oldOwnerLocks[_index] = oldOwnerLocks[oldOwnerLocks.length - 1];\n        oldOwnerLocks.pop();\n        if (oldOwnerLocks.length == 0) {\n            users[msg.sender].lockedTokens.remove(_lpToken);\n        }\n        transferredLock.owner = _newOwner;\n    }\n\n    /**\n     * @notice migrates a existing lock to an other contract with help of migrator\n     * @param _lpToken address of the LP token to migrate the lock for\n     * @param _index position of the lock in the user locks for specific LP token set\n     * @param _lockID unique identifier of the token lock to be split up\n     * @param _amount amount of locked LP token to be migrated\n     */\n    function migrate(\n        address _lpToken,\n        uint256 _index,\n        uint256 _lockID,\n        uint256 _amount\n    ) external nonReentrant {\n        require(migrator != address(0), \"NOT SET\");\n        require(_amount > 0, \"ZERO MIGRATION\");\n\n        // check if lock is valid and sender is owner\n        uint256 lockID = users[msg.sender].locksForToken[_lpToken][_index];\n        TokenLock storage userLock = tokenLocks[_lpToken][lockID];\n        require(\n            lockID == _lockID && userLock.owner == msg.sender,\n            \"LOCK MISMATCH\"\n        );\n\n        // decreases lock amount\n        userLock.amount = userLock.amount.sub(_amount);\n\n        // removes lock if total left amount is migrated\n        if (userLock.amount == 0) {\n            uint256[] storage userLocks = users[msg.sender].locksForToken[\n                _lpToken\n            ];\n            userLocks[_index] = userLocks[userLocks.length - 1];\n            userLocks.pop();\n            // remove lock from user if no lock for same LP is left\n            if (userLocks.length == 0) {\n                users[msg.sender].lockedTokens.remove(_lpToken);\n            }\n        }\n\n        // migrate token with migrator\n        TransferHelper.safeApprove(_lpToken, migrator, _amount);\n        IMigrator(migrator).migrate(\n            _lpToken,\n            _amount,\n            userLock.unlockDate,\n            msg.sender\n        );\n    }\n\n    /*---------------------------------------------------------------------------------------------\n     * --------------------------------------Setter functions--------------------------------------\n     */\n\n    /**\n     * @notice set the dev address for receiving fees by owner\n     * @param _devaddr fee receiver address\n     */\n    function setDev(address payable _devaddr) external onlyOwner {\n        devaddr = _devaddr;\n    }\n\n    /**\n     * @notice set the fees and fee tokens by owner\n     * @param _referralPercent relative referral fee in parts per 1000\n     * @param _referralDiscount relative discount fee in parts per 1000\n     * @param _bnbFee BNB fee charged on lock creation for BNB base tokens\n     * @param _secondaryTokenFee fee charged on locking non BNB base token\n     * @param _secondaryTokenDiscount discount on liquidity fee\n     * @param _liquidityFee fee on LP tokens\n     */\n    function setFees(\n        uint256 _referralPercent,\n        uint256 _referralDiscount,\n        uint256 _bnbFee,\n        uint256 _secondaryTokenFee,\n        uint256 _secondaryTokenDiscount,\n        uint256 _liquidityFee\n    ) external onlyOwner {\n        fees.referralPercent = _referralPercent;\n        fees.referralDiscount = _referralDiscount;\n        fees.bnbFee = _bnbFee;\n        fees.secondaryTokenFee = _secondaryTokenFee;\n        fees.secondaryTokenDiscount = _secondaryTokenDiscount;\n        fees.liquidityFee = _liquidityFee;\n    }\n\n    /**\n     * @notice set the referral token and amount to hold by a referrer\n     * @param _referralToken address of burnable ERC20 token\n     * @param _hold amount of referral token a referrer has to hold\n     */\n    function setReferralTokenAndHold(IERC20Burn _referralToken, uint256 _hold)\n        external\n        onlyOwner\n    {\n        fees.referralToken = _referralToken;\n        fees.referralHold = _hold;\n    }\n\n    /**\n     * @notice set secondary fee token as option to bnb as fee by owner\n     * @param _secondaryFeeToken address of burnable ERC20 token\n     */\n    function setSecondaryFeeToken(address _secondaryFeeToken)\n        external\n        onlyOwner\n    {\n        fees.secondaryFeeToken = IERC20Burn(_secondaryFeeToken);\n    }\n\n    /**\n     * @notice set migrator by owner\n     * @param _migrator address of the new migrator contract\n     */\n    function setMigrator(address _migrator) external onlyOwner {\n        migrator = _migrator;\n    }\n\n    /**\n     * @notice whitelists a user by owner\n     * @param _user address of the user to whitelist\n     * @param _add bool if the given user should be added to (=true) or removed from (=false) whitelist\n     */\n    function whitelistFeeAccount(address _user, bool _add) external onlyOwner {\n        if (_add) {\n            feeWhitelist.add(_user);\n        } else {\n            feeWhitelist.remove(_user);\n        }\n    }\n\n    /*---------------------------------------------------------------------------------------------\n     * --------------------------------------Getter functions--------------------------------------\n     */\n\n    /**\n     * @notice returns address of a LP token at a specific index of the set\n     */\n    function getLockedTokenAtIndex(uint256 _index)\n        external\n        view\n        returns (address)\n    {\n        return lockedTokens.at(_index);\n    }\n\n    /**\n     * @notice returns the total number of locks for given token\n     * @param _lpToken address of token to get amount of locks for\n     */\n    function getNumLocksForToken(address _lpToken)\n        external\n        view\n        returns (uint256)\n    {\n        return tokenLocks[_lpToken].length;\n    }\n\n    /**\n     * @notice returns the total number of different locked lp tokens\n     */\n    function getNumLockedTokens() external view returns (uint256) {\n        return lockedTokens.length();\n    }\n\n    /**\n     * @notice returns the LP token address at a given index of the users set\n     * @param _user address of the user\n     * @param _index position of LP token in users lockedTokens set\n     */\n    function getUserLockedTokenAtIndex(address _user, uint256 _index)\n        external\n        view\n        returns (address)\n    {\n        UserInfo storage user = users[_user];\n        return user.lockedTokens.at(_index);\n    }\n\n    /**\n     * @notice returns the token lock of a given position in the users lp token lock set\n     * @param _user address of the user\n     * @param _lpToken address of LP token\n     * @param _index position of the token lock in the users token lock set for specific LP\n     */\n    function getUserLockForTokenAtIndex(\n        address _user,\n        address _lpToken,\n        uint256 _index\n    )\n        external\n        view\n        returns (\n            uint256,\n            uint256,\n            uint256,\n            uint256,\n            uint256,\n            address\n        )\n    {\n        uint256 lockID = users[_user].locksForToken[_lpToken][_index];\n        TokenLock storage tokenLock = tokenLocks[_lpToken][lockID];\n        return (\n            tokenLock.lockDate,\n            tokenLock.amount,\n            tokenLock.initialAmount,\n            tokenLock.unlockDate,\n            tokenLock.lockID,\n            tokenLock.owner\n        );\n    }\n\n    /**\n     * @notice returns the amount of different locked LP tokens for a given user\n     * @param _user address of user to be checked\n     */\n    function getUserNumLockedTokens(address _user)\n        external\n        view\n        returns (uint256)\n    {\n        UserInfo storage user = users[_user];\n        return user.lockedTokens.length();\n    }\n\n    /**\n     * @notice returns the amount of users locks for a specific LP token\n     * @param _user address of the user\n     * @param _lpToken address of LP token\n     */\n    function getUserNumLocksForToken(address _user, address _lpToken)\n        external\n        view\n        returns (uint256)\n    {\n        UserInfo storage user = users[_user];\n        return user.locksForToken[_lpToken].length;\n    }\n\n    /**\n     * @notice returns if the given user is whitelisted\n     * @param _user users address to be checked\n     */\n    function getUserWhitelistStatus(address _user)\n        external\n        view\n        returns (bool)\n    {\n        return feeWhitelist.contains(_user);\n    }\n\n    /**\n     * @notice returns the address of the user at a given index of the whitelist set\n     * @param _index position of the user in the whitelist\n     */\n    function getWhitelistedUserAtIndex(uint256 _index)\n        external\n        view\n        returns (address)\n    {\n        return feeWhitelist.at(_index);\n    }\n\n    /**\n     * @notice returns the total amout of whitelisted users\n     */\n    function getWhitelistedUsersLength() external view returns (uint256) {\n        return feeWhitelist.length();\n    }\n}\n",
  "sourcePath": "/Users/apple/Desktop/datacpoy/BlockChain/kinko-contracts/contracts/PancakeLocker.sol",
  "compiler": {
    "name": "solc",
    "version": "0.6.12+commit.27d51765.Emscripten.clang"
  },
  "schemaVersion": "3.4.6",
  "updatedAt": "2022-06-27T08:01:27.368Z",
  "networkType": "ethereum",
  "devdoc": {
    "kind": "dev",
    "methods": {
      "constructor": {
        "details": "sets initially contract dependend addresses and fee parameter",
        "params": {
          "_pancakeFactory": "address of the pancake factory"
        }
      },
      "getNumLocksForToken(address)": {
        "params": {
          "_lpToken": "address of token to get amount of locks for"
        }
      },
      "getUserLockForTokenAtIndex(address,address,uint256)": {
        "params": {
          "_index": "position of the token lock in the users token lock set for specific LP",
          "_lpToken": "address of LP token",
          "_user": "address of the user"
        }
      },
      "getUserLockedTokenAtIndex(address,uint256)": {
        "params": {
          "_index": "position of LP token in users lockedTokens set",
          "_user": "address of the user"
        }
      },
      "getUserNumLockedTokens(address)": {
        "params": {
          "_user": "address of user to be checked"
        }
      },
      "getUserNumLocksForToken(address,address)": {
        "params": {
          "_lpToken": "address of LP token",
          "_user": "address of the user"
        }
      },
      "getUserWhitelistStatus(address)": {
        "params": {
          "_user": "users address to be checked"
        }
      },
      "getWhitelistedUserAtIndex(uint256)": {
        "params": {
          "_index": "position of the user in the whitelist"
        }
      },
      "incrementLock(address,uint256,uint256,uint256)": {
        "params": {
          "_amount": "additional LP amount to be locked",
          "_index": "position of the lock in the user locks for specific LP token set",
          "_lockID": "unique identifier of the token lock",
          "_lpToken": "address of the LP token to increment lock"
        }
      },
      "lockLPToken(address,uint256,uint256,address,bool,address)": {
        "details": "fees are calculated if caller is not whitelisted",
        "params": {
          "_amount": "total amount of LP tokens to be locked",
          "_feeInGlmr": "bool indicating if base token is BNB",
          "_lpToken": "address of the LP token to be locked",
          "_referral": "address of referrer for token locking",
          "_unlockDate": "unix timestamp when withdrawer is allowed to unlock LP tokens",
          "_withdrawer": "address which is allowed to unlock lock LP tokens after unlock date"
        }
      },
      "migrate(address,uint256,uint256,uint256)": {
        "params": {
          "_amount": "amount of locked LP token to be migrated",
          "_index": "position of the lock in the user locks for specific LP token set",
          "_lockID": "unique identifier of the token lock to be split up",
          "_lpToken": "address of the LP token to migrate the lock for"
        }
      },
      "owner()": {
        "details": "Returns the address of the current owner."
      },
      "relock(address,uint256,uint256,uint256)": {
        "params": {
          "_index": "position of the lock in the user locks for specific LP token set",
          "_lockID": "unique identifier of the token lock",
          "_lpToken": "address of the LP token to be relocked",
          "_unlockDate": "unix timestamp when withdrawer is allowed to unlock LP tokens"
        }
      },
      "renounceOwnership()": {
        "details": "Leaves the contract without owner. It will not be possible to call `onlyOwner` functions anymore. Can only be called by the current owner. NOTE: Renouncing ownership will leave the contract without an owner, thereby removing any functionality that is only available to the owner."
      },
      "setDev(address)": {
        "params": {
          "_devaddr": "fee receiver address"
        }
      },
      "setFees(uint256,uint256,uint256,uint256,uint256,uint256)": {
        "params": {
          "_bnbFee": "BNB fee charged on lock creation for BNB base tokens",
          "_liquidityFee": "fee on LP tokens",
          "_referralDiscount": "relative discount fee in parts per 1000",
          "_referralPercent": "relative referral fee in parts per 1000",
          "_secondaryTokenDiscount": "discount on liquidity fee",
          "_secondaryTokenFee": "fee charged on locking non BNB base token"
        }
      },
      "setMigrator(address)": {
        "params": {
          "_migrator": "address of the new migrator contract"
        }
      },
      "setReferralTokenAndHold(address,uint256)": {
        "params": {
          "_hold": "amount of referral token a referrer has to hold",
          "_referralToken": "address of burnable ERC20 token"
        }
      },
      "setSecondaryFeeToken(address)": {
        "params": {
          "_secondaryFeeToken": "address of burnable ERC20 token"
        }
      },
      "splitLock(address,uint256,uint256,uint256)": {
        "details": "a fee in BNB (bnbFee) is required to be sent by calling to create a new lock",
        "params": {
          "_amount": "LP amount to create a new lock with",
          "_index": "position of the lock in the user locks for specific LP token set",
          "_lockID": "unique identifier of the token lock to be split up",
          "_lpToken": "address of the LP token to be split up"
        }
      },
      "transferLockOwnership(address,uint256,uint256,address)": {
        "params": {
          "_index": "position of the lock in the user locks for specific LP token set",
          "_lockID": "unique identifier of the token lock to be split up",
          "_lpToken": "address of the LP token to transfer the ownership of the lock for",
          "_newOwner": "address of the new lock owner"
        }
      },
      "transferOwnership(address)": {
        "details": "Transfers ownership of the contract to a new account (`newOwner`). Can only be called by the current owner."
      },
      "whitelistFeeAccount(address,bool)": {
        "params": {
          "_add": "bool if the given user should be added to (=true) or removed from (=false) whitelist",
          "_user": "address of the user to whitelist"
        }
      },
      "withdraw(address,uint256,uint256,uint256)": {
        "params": {
          "_amount": "amount to be withdrawn from the lock",
          "_index": "position of the lock in the user locks for specific LP token set",
          "_lockID": "unique identifier of the token lock",
          "_lpToken": "address of the LP token to be withdrawn"
        }
      }
    },
    "version": 1
  },
  "userdoc": {
    "kind": "user",
    "methods": {
      "getLockedTokenAtIndex(uint256)": {
        "notice": "returns address of a LP token at a specific index of the set"
      },
      "getNumLockedTokens()": {
        "notice": "returns the total number of different locked lp tokens"
      },
      "getNumLocksForToken(address)": {
        "notice": "returns the total number of locks for given token"
      },
      "getUserLockForTokenAtIndex(address,address,uint256)": {
        "notice": "returns the token lock of a given position in the users lp token lock set"
      },
      "getUserLockedTokenAtIndex(address,uint256)": {
        "notice": "returns the LP token address at a given index of the users set"
      },
      "getUserNumLockedTokens(address)": {
        "notice": "returns the amount of different locked LP tokens for a given user"
      },
      "getUserNumLocksForToken(address,address)": {
        "notice": "returns the amount of users locks for a specific LP token"
      },
      "getUserWhitelistStatus(address)": {
        "notice": "returns if the given user is whitelisted"
      },
      "getWhitelistedUserAtIndex(uint256)": {
        "notice": "returns the address of the user at a given index of the whitelist set"
      },
      "getWhitelistedUsersLength()": {
        "notice": "returns the total amout of whitelisted users"
      },
      "incrementLock(address,uint256,uint256,uint256)": {
        "notice": "increments the locked LP tokens amount by lock owner. A liquidity fee is charged on sending additional tokens to the locking contract."
      },
      "lockLPToken(address,uint256,uint256,address,bool,address)": {
        "notice": "locks specific amount of LP tokens for a given period of time"
      },
      "migrate(address,uint256,uint256,uint256)": {
        "notice": "migrates a existing lock to an other contract with help of migrator"
      },
      "relock(address,uint256,uint256,uint256)": {
        "notice": "relocks the locked LP token by lock owner. A liquidity fee is calculated on the locking amount. The new locking amount is old locking amount minus liquidity fee."
      },
      "setDev(address)": {
        "notice": "set the dev address for receiving fees by owner"
      },
      "setFees(uint256,uint256,uint256,uint256,uint256,uint256)": {
        "notice": "set the fees and fee tokens by owner"
      },
      "setMigrator(address)": {
        "notice": "set migrator by owner"
      },
      "setReferralTokenAndHold(address,uint256)": {
        "notice": "set the referral token and amount to hold by a referrer"
      },
      "setSecondaryFeeToken(address)": {
        "notice": "set secondary fee token as option to bnb as fee by owner"
      },
      "splitLock(address,uint256,uint256,uint256)": {
        "notice": "splits up a specific token lock and creates an other new token lock with the given amount. The existing token lock is reduced by the equivalent amount."
      },
      "transferLockOwnership(address,uint256,uint256,address)": {
        "notice": "transfers the lock owner ship to a new owner by the current owner"
      },
      "whitelistFeeAccount(address,bool)": {
        "notice": "whitelists a user by owner"
      },
      "withdraw(address,uint256,uint256,uint256)": {
        "notice": "withdraws the desired amount of locked token by lock owner. Unlock timestamp has to be met."
      }
    },
    "version": 1
  }
}